S00D0000696D6167652E7372656314
S3150000080000000420BD0C0000C7600100C1600100AB
S31500000810490D0000490D0000490D000000000000D0
S315000008200000000000000000000000001128010088
S31500000830490D000000000000E128010045290100E3
S31500000840610D0000650D0000690D00006D0D0000D2
S31500000850710D0000750D0000790D00007D0D000082
S31500000860810D0000850D0000890D00008D0D000032
S31500000870910D0000950D0000990D00009D0D0000E2
S31500000880A10D0000490D0000490D0000490D0000B2
S31500000890ED740000FB740000097500001775000078
S315000008A02575000033750000417500004F75000086
S315000008B0C50D0000C90D0000CD0D0000D10D0000D2
S315000008C0D50D0000D90D0000DD0D0000E10D000082
S315000008D0E50D0000E90D0000ED0D0000F10D000032
S315000008E0F50D0000F90D0000FD0D0000010E0000E1
S315000008F0050E0000090E00000D0E0000110E00008E
S31500000900150E0000190E0000490D0000490D0000EB
S31500000910490D0000490D0000490D0000490D000079
S315000009202DB40100490D0000490D0000490D0000DD
S31500000930490D000069690100490D0000490D0000DC
S31500000940490D0000490D0000490D0000490D000049
S31500000950490D0000490D0000490D0000490D000039
S31500000960490D0000490D0000490D00001D0E000054
S31500000970210E0000250E0000290E00002D0E00009D
S31500000980310E0000350E0000390E0000490D000042
S31500000990490D0000490D0000490D0000490D0000F9
S315000009A0490D0000490D0000490D0000490D0000E9
S315000009B0490D00007D690100490D0000490D000048
S315000009C0490D00003D0E0000490D0000490D0000D4
S315000009D0490D0000490D0000296901003D6901002B
S315000009E0490D00004169010055690100490D0000EB
S315000009F0490D0000490D0000410E0000450E0000A3
S31500000A00490D0000490D0000490D0000490D000088
S31500000A10490D0000490D0000E56001004D7D010013
S31500000A20D13D0000490D0000490D0000490D0000B0
S31500000A30490D0000490D0000490D0000490D000058
S31500000A40490D0000490D0000490E00004D0E000042
S31500000A50490D0000510E0000550E0000F9FB010083
S31500000A6005A70100590E00005D0E0000610E000092
S31500000A70650E0000690E00006D0E0000490D0000B5
S31500000A80490D0000490D0000490D0000490D000008
S31500000A90490D0000490D0000490D0000490D0000F8
S31500000AA0490D0000490D0000490D0000490D0000E8
S31500000AB0490D0000490D0000490D0000490D0000D8
S31500000AC0490D0000490D0000490D0000490D0000C8
S31500000AD0490D0000490D0000490D0000490D0000B8
S31500000AE0490D0000490D0000490D0000490D0000A8
S31500000AF0490D0000490D0000490D0000490D000098
S31500000B00490D0000490D0000490D0000490D000087
S31500000B10490D0000490D0000490D0000490D000077
S31500000B20490D0000490D0000490D0000490D000067
S31500000B30490D0000490D0000490D0000490D000057
S31500000B40490D0000490D0000490D0000490D000047
S31500000B50490D0000490D0000490D0000490D000037
S31500000B60710E0000750E0000790E00007D0E00006B
S31500000B70490D0000490D0000490D0000490D000017
S31500000B80490D0000490D0000810E0000850E000091
S31500000B90890E00008D0E0000490D0000490D000071
S31500000BA0910E0000950E0000B1600100B1600100D9
S31500000BB0B1600100B1600100B1600100B1600100E7
S31500000BC0B1600100B1600100B1600100B1600100D7
S31500000BD0B1600100B1600100B1600100B1600100C7
S31500000BE0B1600100B1600100B1600100B1600100B7
S31500000BF0B1600100B1600100B1600100FFFFFFFFBD
S31500000C0010B5054C237833B9044B13B10448AFF340
S31500000C1000800123237010BDC0AE0020000000003C
S31500000C20B862030008B5034B1BB103490348AFF391
S31500000C30008008BD00000000C4AE0020B8620300BA
S31500000C40A3F5803A704700BF174B002B08BF134B24
S31500000C509D46FFF7F5FF00218B460F461348144AC1
S31500000C60121A25F063FE0E4B002B00D098470D4B51
S31500000C70002B00D098470020002104000D000D48ED
S31500000C80002802D00C48AFF3008025F0E1FD2000DB
S31500000C90290016F031FB25F099FA00BF0000080084
S31500000CA0000000000000000000000420C0AC00208E
S31500000CB0F08B0220000000000000000072B616480B
S31500000CC0164901600A6882F3088815488047154965
S31500000CD0154A164B9A42BEBF51F8040B42F8040B54
S31500000CE0F8E7134A134B9A42BEBF51F8040B42F879
S31500000CF0040BF8E7104B00209A42BCBF42F8040BE5
S31500000D00FAE70E490E4A00209142BCBF41F8040B97
S31500000D10FAE762B60B48804708ED00E000080000DD
S31500000D206D3F00004464030000800020ACAC00204E
S31500000D300000002000000020FC400020C0AC002085
S31500000D40F08B0220490C000015F0B2B9524800475A
S31500000D505248004752480047524800475248004709
S31500000D6052480047524800475248004752480047F9
S31500000D7052480047524800475248004752480047E9
S31500000D8052480047524800475248004752480047D9
S31500000D9052480047524800475248004752480047C9
S31500000DA052480047524800475248004752480047B9
S31500000DB052480047524800475248004752480047A9
S31500000DC05248004752480047524800475248004799
S31500000DD05248004752480047524800475248004789
S31500000DE05248004752480047524800475248004779
S31500000DF05248004752480047524800475248004769
S31500000E005248004752480047524800475248004758
S31500000E105248004752480047524800475248004748
S31500000E205248004752480047524800475248004738
S31500000E305248004752480047524800475248004728
S31500000E405248004752480047524800475248004718
S31500000E505248004752480047524800475248004708
S31500000E6052480047524800475248004752480047F8
S31500000E7052480047524800475248004752480047E8
S31500000E8052480047524800475248004752480047D8
S31500000E905248004752480047C7600100C160010040
S31500000EA011280100E128010045290100E191000017
S31500000EB0199200005192000089920000C192000030
S31500000EC0F99200003193000069930000A19300009D
S31500000ED0D993000011940000499400008194000009
S31500000EE0B9940000F194000029950000490D000016
S31500000EF0E9AD000009AE000029AE000049AE0000D1
S31500000F0069AE000089AE0000A9AE0000C9AE0000BF
S31500000F10E9AE000009AF000029AF000049AF0000AC
S31500000F20D5A80000E1A80000EDA80000F9A800007F
S31500000F3005A9000011A900003DA9000071A9000043
S31500000F40A5A90000D9A900000DAA000041AA000029
S31500000F50490D0000490D0000490D0000490D000033
S31500000F60490D0000490D0000490D0000490D000023
S31500000F70490D0000490D0000490D0000490D000013
S31500000F80490D0000490D0000490D0000490D000003
S31500000F90490D0000E99D0000490D0000894C020042
S31500000FA0A94C0200BD960000D1960000F9960000FB
S31500000FB00D970000E596000021970000490D0000FE
S31500000FC0490D0000FDAF0000490D0000490D00006D
S31500000FD0490D0000490D0000490D0000490D0000B3
S31500000FE0490D000081F0004102E000BF83F000439C
S31500000FF030B54FEA41044FEA430594EA050F08BFAE
S3150000100090EA020F1FBF54EA000C55EA020C7FEA71
S31500001010645C7FEA655C00F0E2804FEA5454D4EBEE
S315000010205555B8BF6D420CDD2C4480EA020281EAB8
S31500001030030382EA000083EA010180EA020281EAF0
S315000010400303362D88BF30BD11F0004F4FEA013142
S315000010504FF4801C4CEA113102D0404261EB410151
S3150000106013F0004F4FEA03334CEA133302D05242D7
S3150000107063EB430394EA050F00F0A780A4F1010493
S31500001080D5F1200E0DDB02FA0EFC22FA05F28018CD
S3150000109041F1000103FA0EF2801843FA05F35941B3
S315000010A00EE0A5F120050EF1200E012A03FA0EFC32
S315000010B028BF4CF0020C43FA05F3C01851EBE3715C
S315000010C001F0004507D54FF0000EDCF1000C7EEB79
S315000010D000006EEB0101B1F5801F1BD3B1F5001FB7
S315000010E00CD349085FEA30004FEA3C0C04F10104D6
S315000010F04FEA445212F5800F80F09A80BCF1004FFF
S3150000110008BF5FEA500C50F1000041EB045141EA80
S31500001110050130BD5FEA4C0C404141EB0101013C49
S3150000112028BFB1F5801FE9D291F0000F04BF014638
S315000011300020B1FA81F308BF2033A3F10B03B3F10A
S3150000114020020CDA0C3208DD02F1140CC2F10C029A
S3150000115001FA0CF021FA02F10CE002F11402D8BFF8
S31500001160C2F1200C01FA02F120FA0CFCDCBF41EAC4
S315000011700C019040E41AA2BF01EB0451294330BD93
S315000011806FEA04041F3C1CDA0C340EDC04F1140470
S31500001190C4F1200220FA04F001FA02F340EA030047
S315000011A021FA04F345EA030130BDC4F10C04C4F18D
S315000011B0200220FA02F001FA04F340EA030029466D
S315000011C030BD21FA04F0294630BD94F0000F83F4B7
S315000011D0801306BF81F480110134013D4EE77FEA9A
S315000011E0645C18BF7FEA655C29D094EA050F08BFE6
S315000011F090EA020F05D054EA000C04BF19461046C7
S3150000120030BD91EA030F1EBF0021002030BD5FEA0A
S31500001210545C05D14000494128BF41F0004130BD32
S3150000122014F580043CBF01F5801130BD01F0004586
S3150000123045F0FE4141F470014FF0000030BD7FEAF9
S31500001240645C1ABF194610467FEA655C1CBF0B46F4
S31500001250024650EA013406BF52EA033591EA030F0B
S3150000126041F4002130BD00BF90F0000F04BF002103
S31500001270704730B54FF4806404F132044FF0000536
S315000012804FF0000150E700BF90F0000F04BF0021AF
S31500001290704730B54FF4806404F1320410F0004515
S315000012A048BF40424FF000013EE700BF42004FEA10
S315000012B0E2014FEA31014FEA02701FBF12F07F438D
S315000012C093F07F4F81F06051704732F07F4208BF44
S315000012D0704793F07F4F04BF41F40021704730B54B
S315000012E04FF4607401F0004521F000411CE700BF97
S315000012F050EA010208BF704730B54FF000050AE01A
S3150000130050EA010208BF704730B511F0004502D51A
S31500001310404261EB41014FF4806404F132045FEA1C
S31500001320915C3FF4D8AE4FF003025FEADC0C18BFC5
S3150000133003325FEADC0C18BF033202EBDC02C2F1B7
S31500001340200300FA03FC20FA02F001FA03FE40EA49
S315000013500E0021FA02F11444BDE600BF7BB972B952
S315000013600029BEBF00204FF0004106E008BF00285C
S315000013701CBF6FF000414FF0FF3000F007BAADF12F
S31500001380080C6DE904CE002909DB002B1ADB00F0FE
S315000013909BF8DDF804E0DDE9022304B07047404223
S315000013A061EB4101002B1BDB00F08EF8DDF804E059
S315000013B0DDE9022304B0404261EB4101524263EB96
S315000013C043037047524263EB430300F07DF8DDF8B8
S315000013D004E0DDE9022304B0404261EB41017047BD
S315000013E0524263EB430300F06FF8DDF804E0DDE9F9
S315000013F0022304B0524263EB4303704753B94AB920
S31500001400002908BF00281CBF4FF0FF314FF0FF3006
S3150000141000F0BCB9ADF1080C6DE904CE00F054F84B
S31500001420DDF804E0DDE9022304B07047430803F069
S315000014305533C01A830803F0333300F033301844B1
S3150000144000EB101000F00F3000EB002000EB004026
S31500001450000E704708B502460B4643EC172BB5EE57
S31500001460C07BF1EE10FA03D4BDE8084000F00CB8DA
S31500001470B1EE477B51EC170B00F006F8404261EBEA
S31500001480410108BD000000009FED0B6B41EC170BFE
S315000014909FED0B5B27EE066BBCEEC66BB8EE464BBC
S315000014A0A4EE457BFCEEC77B16EE101A17EE900AEB
S315000014B0704700BFAFF30080000000000000F03D61
S315000014C0000000000000F0412DE9F047089D0446A9
S315000014D08C46002B40F083808A42174647D9B2FAE1
S315000014E082F242B1C2F1200024FA00F09140974006
S315000014F040EA010C94404FEA1748230CBCFBF8F66F
S315000015001FFA87FE08FB16C143EA014306FB0EF1EC
S31500001510994209D9FB1806F1FF3080F019819942EA
S3150000152040F21681023E3B445B1AA4B2B3FBF8F0CC
S3150000153008FB103344EA034400FB0EFEA64509D916
S315000015403C1900F1FF3380F00581A64540F2028187
S3150000155002383C4440EA0640A4EB0E0400261DB1C6
S31500001560D4400023C5E900433146BDE8F08702B9FF
S31500001570FFDEB2FA82F2002A50D1CB1B4FEA174E99
S315000015801FFA87F80126B3FBFEFC210C0EFB1C3369
S3150000159041EA034108FB0CF38B4207D979180CF199
S315000015A0FF3002D28B4200F2E9808446C91AA3B208
S315000015B0B1FBFEF00EFB101143EA014408FB00F8F4
S315000015C0A04507D93C1900F1FF3302D2A04500F22D
S315000015D0D9801846A4EB080440EA0C40BFE78B42CA
S315000015E009D9002D00F0B1800026C5E9000130467A
S315000015F03146BDE8F087B3FA83F6002E4AD18B4216
S3150000160002D3824200F2B880841A61EB0301012002
S315000016108C46002DA8D0C5E9004CA5E7C2F12003F1
S3150000162020FA03F6974001FA02F04FEA174ED94026
S315000016303043030CB1FBFEF61FFA87F80EFB1611BA
S3150000164043EA014306FB08F1994204FA02F409D978
S31500001650FB1806F1FF3C80F08D80994240F28A80AB
S31500001660023E3B445B1A81B2B3FBFEF00EFB103325
S3150000167041EA034100FB08F38B4207D9791800F1D0
S31500001680FF3C73D28B4271D902383944CB1A40EAF7
S31500001690064678E7C6F1200C03FA06F422FA0CF3A4
S315000016A01C4320FA0CF701FA06F34FEA144E21FA0E
S315000016B00CF11F433B0CB1FBFEF91FFA84F80EFB3D
S315000016C0191143EA014109FB08FA8A4502FA06F2B2
S315000016D000FA06F308D9611809F1FF3048D28A45A5
S315000016E046D9A9F102092144A1EB0A01BFB2B1FB17
S315000016F0FEF00EFB101147EA014700FB08F8B8455B
S3150000170007D9E71900F1FF312ED2B8452CD9023896
S31500001710274440EA0940A7EB0807A0FB02894F458A
S31500001720C64649461AD317D05DB1B3EB0E0267EB36
S31500001730010707FA0CFCF2404CEA0202F740C5E941
S31500001740002700263146BDE8F0872E4628460BE7DF
S315000017500646E9E61846FDE64345E5D2B8EB020E35
S3150000176069EB04010138DFE70846D2E760468DE7FA
S315000017708146B9E7664675E730464AE7ACF1020CA2
S31500001780394413E702383C4424E700BF704700BFE2
S3150000179001F0FF01102A2BDB10F0070F08D010F81C
S315000017A0013B013A8B422DD010F0070F42B3F6D120
S315000017B0F0B441EA012141EA014122F007047FF039
S315000017C000070023F0E80256083C85EA010586EA90
S315000017D0010685FA47F5A3FA87F586FA47F6A5FACC
S315000017E087F68EB9EED1F0BC01F0FF0102F00702D8
S315000017F032B110F8013B013A83EA010313B1F8D183
S315000018000020704701387047002D06BF3546033863
S31500001810073815F0010F07D1013015F4807F02BF9C
S31500001820013015F4C03F0130F0BC0138704700BFED
S3150000183010F8012B11F8013B012A28BF9A42F7D074
S31500001840D01A7047034613F8012B002AFBD1181A49
S3150000185001387047014B01221A70704748BE0020BC
S3150000186010B504460B6811689847204610BD012A3A
S3150000187003D0022A03D0002070470160FBE70B6803
S315000018800360F8E77047836810B5044613B1032276
S3150000189001469847204610BD70B5094B0446D0E96D
S315000018A001560360AE4204D028461035FFF7EBFF21
S315000018B0F8E7606808B123F0FEFC204670BD00BF63
S315000018C01408030070B50D4E3378BFF35B8F13F029
S315000018D0010410D1304623F0F4FC60B1084D3046C7
S315000018E0084B85F8544F2B6023F0F7FC064A284630
S315000018F0064923F0DBFC024870BD00BFDCAE0020C9
S31500001900E0AE002080110300008000208518000052
S3150000191000F1080373B504460D460360E1B10846BD
S31500001920FFF790FF0F2805EB0006019007D900226C
S3150000193001A9204623F066FE019B2060A360324683
S315000019402946206823F0D9FE019B22680021204603
S315000019506360D15402B070BD014823F08CFD00BF16
S3150000196010B6020013B50B4602466C46D0E90001DC
S3150000197084E8030093E8030082E8030094E8030088
S3150000198083E8030002B010BD2DE9F84307468846F8
S315000019901646154604464FF0000944451AD0294616
S315000019A02046C5F808901035FFF7DCFFA36855F808
S315000019B0082C2046103444F8082C45F8083C55F805
S315000019C0042C54F8043C44F8042C45F8043CFFF776
S315000019D05AFFE2E7E01B3044BDE8F8832DE9F84FF3
S315000019E0D0E900A993466FF07843A9EB0A020746AF
S315000019F08846B3EB221F4FEA221402D1214823F076
S31500001A003DFD012C2246A1EB0A0638BF0122A4188F
S31500001A1035D23CB19C4228BF1C46200123F060FC15
S31500001A20054600E025462E44002358463146B3605D
S31500001A30FFF798FFB368DBF808204146CBF808307B
S31500001A405046F368B260DBF80C20CBF80C30F2603D
S31500001A502A46FFF799FF494600F110024046FFF774
S31500001A6093FF0646BAF1000F02D0504623F023FC3E
S31500001A7005EB0414C7E90056BC60BDE8F88F1C46A8
S31500001A80CBE700BF3AB60200564B002230B51A70BB
S31500001A9093B0554B1B6813B9544825F0A7FD544B1A
S31500001AA01B6813B9534825F0A1FD1C22002104A888
S31500001AB024F03CFFFFF706FF04A919F073FF4E4B15
S31500001AC00493FFF7FFFE01211AF0DEFBFFF7FAFE93
S31500001AD004A91AF0EFFBFFF7F5FE01211AF0BCFB93
S31500001AE0464825F083FD0023022245494548CDE9B5
S31500001AF0002340F68C2212F00BFC012017F0A0F90F
S31500001B00044628B9404825F071FD204613F0C6F872
S31500001B1003AA3E490BA8FFF7FBFE0BA817F07EF9B8
S31500001B200BA823F091FD03AA39490BA8FFF7F0FE95
S31500001B300BA817F07FF90BA823F086FD0A2017F0F3
S31500001B40D9F9044628B9334825F050FD204613F04C
S31500001B50A5F80BA817F034FA9DF84440002C33D0B2
S31500001B600B992D4825F042FD9DF844302BB10023FA
S31500001B700BA88DF8443023F067FD284B284D0B93B6
S31500001B80284B0E93284B0D93D5E902439C4222D055
S31500001B90002321460BA8A360FFF7E4FEA2680D9B75
S31500001BA00D92A360E2680E9B0E92E360AB68103361
S31500001BB0AB600BA8FFF767FE194816F04BFF002035
S31500001BC013F06CF813B030BD184825F00FFD204611
S31500001BD013F064F8C8E70BAA2146281DFFF7FEFE9E
S31500001BE0E7E700BF48BE00204CBE002054B6020006
S31500001BF044BE002071B60200551800008DB60200E2
S31500001C00A7B60200C92D0000B5B60200D2B6020082
S31500001C10D7B60200E0B60200FFB60200F11C0000D3
S31500001C2050BE0020611800006F18000010B70200B7
S31500001C3008B501210D2014F02DFE00210D2014F011
S31500001C40E1FDBDE80840FFF71FBF091A431E104615
S31500001C5030B555182C1A002C04DD13F8014F00F886
S31500001C60014BF7E70029ACBF5018101C30BD00002F
S31500001C702DE9F0418368A2EB010817460268044685
S31500001C800E469B1A984518D9B8F1000F02DA174884
S31500001C9023F0F4FB404623F023FB39460246054673
S31500001CA03046FFF7D2FF206808B123F004FB256019
S31500001CB04544C4E90155BDE8F0814568AD1AA8451B
S31500001CC008D839463046FFF7C0FF63688342F2D032
S31500001CD06060F0E70D4430462946FFF7B6FF6268BC
S31500001CE039462846FFF7B1FFF2E700BF28B70200E2
S31500001CF02DE9F04790B00546884602AF3A4607F10F
S31500001D000800FFF705FEF86807F120060A282CD818
S31500001D103A1D41463046FFF7FBFD786A16282ED954
S31500001D203B6A173861491844FFF782FDB0FA80F420
S31500001D306409304623F088FC07F1080023F084FC90
S31500001D4007F10802ECB15A493046FFF7E1FD31468A
S31500001D50284623F013FD012330462B7623F074FC2E
S31500001D6028463837BD46BDE8F0870B38BB68514971
S31500001D701844FFF75DFD0028CAD10124DCE70024E2
S31500001D80D7E741463046FFF7C3FD786A0D2808D9E4
S31500001D903B6A0E3848491844FFF74AFDB0FA80F40A
S31500001DA06409304623F050FC44B3DFF82881002450
S31500001DB04FF0FF31D8F80000BC62C7E9084411F0C3
S31500001DC0A9FB012811D13D4B3D4A18681E233D4908
S31500001DD0009612680968006816F0B6FF2346224688
S31500001DE02146D8F8000011F085F83B6A2B607B6A23
S31500001DF06B60BB6AAB6002232B76B1E707F1080282
S31500001E0041463046FFF784FD786A062808D93B6AC2
S31500001E1007382D491844FFF70BFDB0FA80F4640922
S31500001E20304623F011FC002C38D0284B0024DFF874
S31500001E30A8A0E8461B684FF0FF31DAF80000073328
S31500001E40BC6223F00703ADEB030DC7E9084411F0AC
S31500001E5061FB01280DF1080916D11D4B484619688A
S31500001E6025F05CFD4846FFF7EDFC4FF0000309EB5B
S31500001E70000249463046FFF7FBFE2346224621462E
S31500001E80DAF8000011F036F83B6A2B607B6A6B606B
S31500001E90BB6AAB6002232B76C54661E71C2221464E
S31500001EA0284624F043FD2C765AE700BF65B70200AA
S31500001EB07DB7020059B7020091B70200B0BE0020FC
S31500001EC038BE002040BE002089B7020004800020F2
S31500001ED03CBE00204CBE002044BE002010B5044687
S31500001EE0FFF7DAFC1021204623F0E7F9204610BD63
S31500001EF010B5044640F6587123F0DFF9204610BDB0
S31500001F0008B50E4B186824F0CBFC0D4B1860012069
S31500001F1011F00CF90B4B1860012011F007F90A4B70
S31500001F200A4A18600A480B4B0B4903600023C0E9B4
S31500001F300133C360BDE8084023F0B8B9048000202F
S31500001F403CBE00204CBE002044BE00200080002085
S31500001F5050BE002014080300991800000022C0E9B2
S31500001F600022826070470022C0E90022826070472A
S31500001F700022C0E900228260704701207047036892
S31500001F801B6A184703685B6A18472029F0B510D00A
S31500001F90046F0023242500F118069C4209D005FB96
S31500001FA003F2B7588F4202D104321044F0BD013318
S31500001FB0F3E70020FAE7704710B504468C2123F0BA
S31500001FC07CF9204610BDD0F88420032A38B50CD8F9
S31500001FD000F1740400239A420BD014F8015B8D4281
S31500001FE005D11E3350F8230038BD24F085F801339F
S31500001FF0F1E70020F8E7F8B505460F460646002447
S315000020002B6FA34210D9B369202B02D0013424369A
S31500002010F6E73946F069FFF70BFC0028F6D12420D5
S3150000202000FB04500430F8BD0020FCE7F7B500F1D2
S315000020300C0306460446154646F8041B4360104644
S31500002040FFF700FC0F2805EB0007019007D90022D7
S3150000205001A9304623F0D6FA019B6060E3603A4658
S315000020602946606823F049FB019B626800212046EF
S31500002070A360D15403B0F0BD90ED033A91ED034A4D
S31500002080D0ED023AB4EEC43AD1ED024AD1ED057A6A
S3150000209090ED056AF1EE10FAD1ED045AF4EEE43A49
S315000020A0D0ED046A54BFB0EE432AB0EE442AF1EEF6
S315000020B010FAF4EEC67A54BFF0EE632AF0EE642A04
S315000020C0F1EE10FAF4EEE65A54BFB0EE467AB0EEF0
S315000020D0677AF1EE10FA77EEC47A37EE427A54BF99
S315000020E0B0EE665AB0EE655A75EEE45AB5EEC07AB1
S315000020F035EE625A36EE436AF1EE10FAB5EEC05A84
S3150000210076EEE36A67EEA57AD8BF9FED0B7AF1EE1D
S3150000211010FAE6EE267AD8BF9FED075A27EE057A23
S3150000212077EEC77AF5EEC07AF1EE10FACCBF87EEFD
S31500002130270A9FED010A70470000000008B4F0B5B9
S315000021400E461146044682B0C81D00AF20F00700B7
S3150000215007F11C03ADEB000D53F8042B6D463B60F5
S315000021602846B04704F108030F2805EB0006236054
S31500002170786007D90022391D204623F043FA7B6890
S315000021802060A36032462946206823F0B1FA7B68B6
S3150000219022680021204608376360D154BD46BDE859
S315000021A0F04001B070470000B7EEC00A054B3A2276
S315000021B013B5044604498DED000BFFF7BFFF20461B
S315000021C002B010BDA0B70200A18A020010B50446F5
S315000021D0006808B123F06FF8204610BD70B50D1EDB
S315000021E0044602DA0B4823F049F94FF00003C0E930
S315000021F000338360284601D023F072F84619206028
S31500002200A6601DB12A46002124F090FB2046666098
S3150000221070BD00BF28B70200F0B58BB0054601A817
S3150000222034F076F82B68062128461B6A984707463D
S3150000223040B1D5F8880018B106221B4934F0A8F839
S3150000224001202FE0D5F870C0BCF1020F09D9D5F8EE
S3150000225088000028F4D003230622144934F098F8A5
S31500002260EEE74FF0240E01AC0EFB0C5E0FCC0EF128
S3150000227004060FC60FCC0FC6236806223846336005
S315000022800CF10103CEF818202B67D5F88430E91835
S3150000229081F8742003F11E020549013345F8221026
S315000022A0C5F884300BB0F0BDA3B70200F2B7020048
S315000022B0494E2520036F022B2DE9F041054688463D
S315000022C014460BD9D0F8880010B90120BDE8F0817A
S315000022D00A460323114934F05BF8F6E703685B6AA4
S315000022E09847064640B1D5F888000028EDD042460A
S315000022F00B4934F04DF8E8E72F6F24207B1C00FBD8
S3150000230007572B673D1D0FCC0FC50FCC0FC5236894
S3150000231030462B602023C7E90638D7E735B80200D8
S3150000232077B8020070B505460C464CB1E168284600
S31500002330FFF7F8FFA668204622F0BDFF3446F4E713
S3150000234070BD10B50446806B30B18368013B836075
S3150000235013B90368DB68984704F108002169FFF7A1
S31500002360E1FF204610BD70B505460C466CB1E1682C
S315000023702846FFF7F8FF04F11400A66823F064F975
S31500002380204622F098FF3446F0E770BD70B58B68A2
S31500002390164604460D1D012253B130681D461A69C2
S315000023A09042B9BF98680122D86800220346F3E735
S315000023B092B1CA68AA4203D1C4E90035204670BD6D
S315000023C0284622F0F7FF336802699A424FF000036D
S315000023D0F2DBC4E90003F1E72846F4E72DE9F04112
S315000023E01F460B1D04460E469A4215460AD14B69F6
S315000023F0002B32D00B693A68196991422DDA002216
S31500002400226008E0D7F800801369984515DACB6892
S31500002410934202D1036063600CE0104622F0CAFFCB
S315000024200369984519DDC36813B92360606001E04C
S31500002430256065602046BDE8F08114DD0B69934296
S31500002440DDD0104622F0A3FF0369984505DAEB6854
S315000024500BB92360EDE72060E8E73A4631462046AF
S31500002460FFF794FFE6E700232260D4E72DE9F04763
S31500002470ADF5206D0446C84A00210DF10C0A261D53
S3150000248050465546FFF7D2FDC44A01210AA8FFF778
S31500002490CDFDC34A022111A8FFF7C8FDC14A032199
S315000024A018A8FFF7C3FDC04A04211FA8FFF7BEFD09
S315000024B0BE4A052126A8FFF7B9FDBD4A06212DA86B
S315000024C0FFF7B4FDBB4A072134A8FFF7AFFDBA4AB0
S315000024D008213BA8FFF7AAFDB84A092142A8FFF741
S315000024E0A5FDB74A0A2149A8FFF7A0FDB54A0B2169
S315000024F050A8FFF79BFDB44A0C2157A8FFF796FD9D
S31500002500B24A0D215EA8FFF791FDB14A0E2165A8DA
S31500002510FFF78CFDAF4A0F216CA8FFF787FDAE4A87
S31500002520102173A8FFF782FDAC4A11217AA8FFF7A4
S315000025307DFDAB4A122181A8FFF778FDA94A132138
S3150000254088A8FFF773FDA84A14218FA8FFF76EFD30
S31500002550A64A152196A8FFF769FDA54A16219DA84A
S31500002560FFF764FDA34A1721A4A8FFF75FFDA24A5F
S315000025701821ABA8FFF75AFDA04A1921B2A8FFF708
S3150000258055FD914A1A21B9A8FFF750FD9C4A1B2117
S31500002590C0A8FFF74BFD9B4A1C21C7A8FFF746FDC5
S315000025A0894A1D21CEA8FFF741FD874A1E21D5A8DD
S315000025B0FFF73CFD944A1F21DCA8FFF737FD934A3D
S315000025C02021E3A8FFF732FD914A2121EAA8FFF76F
S315000025D02DFD904A2221F1A8FFF728FD8E4A2321DE
S315000025E0F8A8FFF723FD8D4A2421FFA8FFF71EFD5B
S315000025F08B4A25210DF58360FFF718FD894A2621B0
S315000026000DF23440FFF712FD874A27210DF58A6047
S31500002610FFF70CFD854A28210DF26C40FFF706FDF9
S31500002620834A29210DF59160FFF700FD814A2A2191
S315000026300DF2A440FFF7FAFC7F4A2B210DF59860B6
S31500002640FFF7F4FC7D4A2C210DF2DC40FFF7EEFC8F
S315000026505D4A2D210DF59F60FFF7E8FC784A2E2193
S315000026600DF21450FFF7E2FC764A2F210DF5A66015
S31500002670FFF7DCFC744A30210DF24C50FFF7D6FC14
S31500002680724A31210DF5AD60FFF7D0FC704A322158
S315000026900DF28450FFF7CAFC6E4A33210DF5B46083
S315000026A0FFF7C4FC6C4A34210DF2BC50FFF7BEFCA8
S315000026B06A4A35210DF5BB60FFF7B8FC684A36213A
S315000026C00DF2F450FFF7B2FC664A37210DF5C260F1
S315000026D0FFF7ACFC644A38210DF22C60FFF7A6FC2C
S315000026E0624A39210DF5C960FFF7A0FC604A3A211C
S315000026F00DF26460FFF79AFC5E4A3B210DF5D0604F
S31500002700FFF794FC5C4A3C210DF29C60FFF78EFCBF
S315000027105A4A3D210DF5D760FFF788FC584A3E21FD
S315000027200DF2D460FFF782FC564A3F210DF5DE60BC
S31500002730FFF77CFC544A40210DF20C70FFF776FC43
S31500002740524A41210DF5E560FFF770FC1E4A422111
S315000027500DF24470FFF76AFC4D4A43210DF5EC601B
S31500002760FFF764FC184A44210DF27C70FFF75EFC0B
S31500002770154A45210DF5F360FFF758FC454A4621F9
S315000027800DF2B470FFF752FC0F4A47210DF5FA60BF
S31500002790FFF74CFC80E000BFC3B80200D2B80200CD
S315000027A0D9B80200E1B80200E5B80200F0B80200AC
S315000027B0F9B80200FDB8020003B9020009B9020027
S315000027C00EB902001CB9020029B902002DB9020097
S315000027D037B9020045B902004BB9020050B90200F0
S315000027E066BA020054B902005AB9020060B9020082
S315000027F064B902001FBB02006DB9020073B9020082
S315000028007BB9020084B902008DB9020095B90200B5
S3150000281099B90200A2B90200AAB90200AFB9020032
S31500002820B9B90200C5B90200CAB90200D7B9020097
S31500002830E6B90200F1B90200FBB9020009BA0200CA
S3150000284010BA02001BBA02001FBA020024BA020024
S315000028502ABA020030BA020035BA02003CBA0200B7
S3150000286042BA02004BBA020052BA02005BBA020038
S3150000287062BA02006ABA020070BA020076BA0200B0
S315000028807BBA020081BA020087BA020094BA02003B
S3150000289098BA0200A5BA02005A4A48210DF2EC7015
S315000028A0FFF7C4FB584A49210DF60800FFF7BEFBA7
S315000028B0564A4A210DF62400FFF7B8FB544A4B212D
S315000028C00DF50460FFF7B2FB524A4C210DF65C0091
S315000028D0FFF7ACFB504A4D210DF67800FFF7A6FB3B
S315000028E04E4A4E210DF69400FFF7A0FB4C4A4F21AD
S315000028F00DF50B60FFF79AFB4A4A50210DF6CC0006
S31500002900FFF794FB484A51210DF6E800FFF78EFBCE
S31500002910464A52210DF60410FFF788FB444A53211C
S315000029200DF51260FFF782FB424A54210DF63C106A
S31500002930FFF77CFB404A55210DF65810FFF776FB52
S315000029403E4A56210DF67410FFF770FB3C4A57219C
S315000029500DF51960FFF76AFB3A4A58210DF6AC10DF
S31500002960FFF764FB384A59210DF6C810FFF75EFBE6
S31500002970364A5A210DF6E410FFF758FB002323715F
S31500002980C4E90236C4E904632B463246214601A84F
S31500002990FFF724FDDDF80890B9F1000F1FD0019B69
S315000029A073BB4E452CD02F68D9F810309F42ACBF70
S315000029B0002701272C2022F093FC2946804614305C
S315000029C051F8043B40F8043C23F092F833464A465B
S315000029D04146384622F0F0FC6369013363611C35D9
S315000029E00DF520639D42CFD11D461C3D281D22F0CA
S315000029F02BFE5545F9D120460DF5206DBDE8F08733
S31500002A000127D7E7ACBA0200AFBA0200B6BA020095
S31500002A10BCBA0200C3BA0200CCBA0200D7BA02009E
S31500002A20E1BA0200E6BA0200EEBA0200F3BA020008
S31500002A3029B9020000BB020005BB02000BBB020065
S31500002A4010BB020019BB020024BB02002FBB020010
S31500002A500A68002302604A680B6042608A68C1E91E
S31500002A6001338260704730B50D688368D0E9004253
S31500002A7005604D6845608D6885608B60C1E90042E0
S31500002A8030BD1FB500230C46CDE901330393FFF794
S31500002A90EAFF214601A8FFF7E6FF01A8FFF796FB2C
S31500002AA004B010BD2DE9F04F9946531E4FF00C0BA4
S31500002AB085B003EBD3730546884616464FEA630A8C
S31500002AC00C465B46A2451BDD671C7F007A1E0BFB8E
S31500002AD007F168580BFB02F1695890ED017A03FB88
S31500002AE00450D1ED017AB4EE677AF1EE10FAC8BF60
S31500002AF0174603FB07513C46FFF7C3FF0C23E1E7EC
S31500002B00F30710D4023E06EBD676B4EB660F0AD175
S31500002B1061000C204E1C01FB000100FB04503446F2
S31500002B202944FFF7AEFF661E0C27494601A806EBAF
S31500002B30D676FFF78DFF7610A04507FB045015DA11
S31500002B4007FB06F3E918EB5893ED017A019BD3EDE9
S31500002B50017AB4EEE77AF1EE10FA07DDFFF791FF9E
S31500002B60731E344603EBD3735E10E5E701A9FFF746
S31500002B7088FF01A8FFF72AFB05B0BDE8F08F00002B
S31500002B8070B5054688B00C461646114602A8641B69
S31500002B90FFF75EFF29463046FFF773FF0A4AA41087
S31500002BA002A905A862430192FFF752FF05AB019AFD
S31500002BB000212846FFF776FF05A8FFF707FB02A8C6
S31500002BC0FFF704FB08B070BDABAAAAAA1FB504465E
S31500002BD0014601A8FFF73CFF2046019A0C3C50F83D
S31500002BE00C3C92ED017AD3ED017AB4EEE77AF1EE80
S31500002BF010FA03DD2146FFF744FFEDE701A9FFF7D1
S31500002C0040FF01A8FFF7E2FA04B010BD88422DE9A3
S31500002C10F043054685B00F4633D000F10C04DFF8CB
S31500002C206880A7422DD026462B6856F80C2BD3ED8C
S31500002C30017A92ED017AB4EEE77AF1EE10FA1CDD34
S31500002C402146641BB14601A8A410FFF701FF08FB4B
S31500002C5004F4002C08DDA9F11801A9F10C09013CC6
S31500002C604846FFF70EFFF4E7284601A9FFF709FFDC
S31500002C7001A8FFF7ABFA3446D3E72046FFF7A6FFD5
S31500002C80F9E705B0BDE8F083ABAAAAAA2DE9F04F93
S31500002C904FF00C0B89B00446174698460D46DFF8F0
S31500002CA024A100EB0B092E1BC02E40F38880B61022
S31500002CB00AFB06F647BBB71E4FF00C087F1008FB51
S31500002CC0074102A8FFF7C4FE02A905A8FFF7C0FE48
S31500002CD0204605AB32463946FFF7E4FE05A8FFF766
S31500002CE075FA67B902A8FFF771FA2B1B0C3D0C2B7E
S31500002CF065DD2A4629462046FFF742FFF5E702A88A
S31500002D00013FFFF763FADAE77610E368013F0BFB52
S31500002D1006F6D3ED016AA359A11993ED017A55F888
S31500002D200C3CF4EEC76AD3ED017AF1EE10FA32DD0F
S31500002D30B4EEE77AF1EE10FA25DD20464E46FFF7AF
S31500002D4092FE29462368D3ED017A336893ED017A22
S31500002D50B4EEE77AF1EE10FA2FDCA1F10C03194676
S31500002D600C3B0A6892ED017AF4EEC77AF1EE10FA9E
S31500002D70F5DC8E421CD3294643463A463046354654
S31500002D80FFF784FF8FE7F4EEE76AF1EE10FA07DD4E
S31500002D90A5F10C01D1E7F4EEE76AF1EE10FA01DDD8
S31500002DA04946CAE7B4EEE77AF1EE10FAC5DDEFE779
S31500002DB030460191FFF757FE01990C36C2E709B07C
S31500002DC0BDE8F08FABAAAAAA2DE98048ADF5117D22
S31500002DD011F0D4FA002307460FA979481193CDE9DB
S31500002DE00F3313F033FB044630B97549754824F0A8
S31500002DF0FDFB204611F052FF734C2378BFF35B8F27
S31500002E00DB070ED4204622F05CFA50B16F4819F069
S31500002E1081FC204622F061FA6D4A6E496B4822F029
S31500002E2045FA002269490BA81AF0A0FC0B9C2CB9A4
S31500002E30694824F0DBFB204611F030FF0AAD674BF2
S31500002E40002440A82B60664B5C944093CDE9614416
S31500002E50FFF7E2F933F0C8FA6249024640A8FFF7E5
S31500002E6029FA1AF03DFF6049024640A8FFF722FA08
S31500002E700F994FF4000340AA0868009301445B4B86
S31500002E8063A80195CDE9024433F032FA63A833F022
S31500002E90B3FA28B1564824F0A9FB204611F0FEFEED
S31500002EA0639B1A689A1A1188082940F2DD841289F0
S31500002EB09918002A00F0D8849A588B188A5832B983
S31500002EC04C4B40F201114C4A4C4823F01DF9191D98
S31500002ED05B68CA18CB58D31A1988062940F2C484ED
S31500002EE0DB88D118002B00F0BF84D358CB58012BB8
S31500002EF005D0434824F07AFB002011F0CFFE0021D4
S31500002F00022013F08BFF002163A8DFF808A133F03D
S31500002F1083FA83683B4AD9689D683B4B089000203A
S31500002F20196015604D4318F087FA06460C2022F00A
S31500002F30D7F938AA06FB05F10446FFF74FF9334BDC
S31500002F400C20DFF8D4901C60DFF8D080D4E9003183
S31500002F50C91A059122F0C4F938AA05990446FFF763
S31500002F603DF92B4B012163A81C6033F0C9F90024FD
S31500002F70002163A833F0C4F9022163A833F0C0F935
S31500002F80214663A8002533F0BBF921460646504684
S31500002F9024F02CFBB3681A68AA4207DD03EB85030D
S31500002FA048460135596824F021FBF3E701344046D1
S31500002FB024F01CFB032CE3D100230693E1E300BFBE
S31500002FC07EBE02003ABB020060BE002068BE002042
S31500002FD0008000204323000055BB02002C9B2520C7
S31500002FE040BE02007CBB02006CBE020000000081F5
S31500002FF099BB0200BBBB0200C6BB0200C0BC0200FC
S3150000300006BD020038BE002040BE0020B4BE00202F
S31500003010B0BE002035BD020046BD0200030E03000F
S315000030200121084613F0FAFE2368D3E90012089B33
S31500003030521A586823F052FC0021012013F0EEFECC
S3150000304063A833F0BDF910B1A74824F0CFFA0A22DD
S315000030509FEDA60A63A938A833F0DAF9DDE93883CB
S3150000306005930023CDE938333A93069B13B11846EE
S3150000307022F021F9389808B122F01DF9002102202A
S3150000308013F0CCFE059B984500F0C0800026C24692
S3150000309034463546DAED007A0DF1F80BDAF81430DD
S315000030A0DAF80800F8EEE77ADAF81020DAF80C1009
S315000030B0DAF804C03D9300233A9018203C922C93F2
S315000030C0CDED387ACDF8E4C03B91CDE92A3322F034
S315000030D007F938AB00F1180E02462A90CDF8B0E099
S315000030E09C460832BCE80300DC4542F8080C42F86E
S315000030F0041C6346F4D1A642CDF8ACE03FD020468E
S315000031000C342AA9FFF7A4FC2AA80AF1180AFFF72B
S315000031105DF8059B9A45BDD1754B1B68D3E9001236
S31500003120744B521A1B68186823F0D8FB00237248A8
S315000031301A46194600680FF0DDFECDF81880A54244
S315000031406ED0661B6D4A21462846B3105A434FF08F
S315000031500003B2FA82F2C2F11F025200FFF796FD97
S31500003160C02E59DD05F1C00628463146FFF74EFD53
S31500003170A64255D030460C36FFF728FDF8E7731BFC
S315000031805E4E9A1056435E4A964202D15D4822F040
S3150000319075F9012E314638BF0121761880F0628319
S315000031A056B1964228BF16460C200693704322F06D
S315000031B097F8069B834600E0B3460BEB03002AA96B
S315000031C0FFF746FCA9465B46A1450CD04946184682
S315000031D00693FFF73DFC484609F10C09FEF7F6FF9A
S315000031E0069B0C33F0E7641B474BA4085C430C2397
S315000031F024F0404404FB03345C441DB1284622F00D
S315000032005AF80C2303FB06B65D467DE700242546E7
S3150000321082E70024254692E721462846FFF7F6FC7A
S315000032200022DFF8D8909FED398AA4EB05084FEA13
S31500003230A80809FB08F890456CD902F1010A4FF07D
S315000032400C08D34608FB02F8621B921009FB02F237
S3150000325093453BD255F80820116830915168319159
S3150000326091683291D1683391116934910C21526978
S3150000327001FB0BF135926A1869580868389048685E
S31500003280399088683A90C8683B9008693C9030A8A5
S3150000329049693D9138A9FEF7EFFEB4EEC80AF1EE92
S315000032A010FA1EDD02F10C06A64211D0A61BB610BE
S315000032B009FB06F6002E02F10C0109DD1046059108
S315000032C0FFF7DFFB0599013E0A46F3E75246ACE7F6
S315000032D00C3C0BF1FF3B2046FEF778FF0C4824F030
S315000032E085F90BF1010BAFE777BD02009A99193FFB
S315000032F0B4BE0020B0BE00204CBE0020ABAAAAAAD5
S31500003300AAAAAA0A3AB60200ABAAAA2ACDCC4C3E71
S3150000331091BD0200079B1022344930A8DF1B344BB5
S315000033204FF000090DF1640A00972F46FEF706FFDD
S31500003330304A002130A822F061FB014638A822F06D
S315000033401DFA2D4938A822F095FB014612A822F055
S3150000335015FA38A822F078F930A822F075F9274B2B
S31500003360102222491B782AA80093254BFEF7E6FE79
S31500003370244A00212AA822F041FB014630A822F067
S31500003380FDF91D4930A822F075FB014638A822F048
S31500003390F5F938A912A822F069FB38A822F054F9E9
S315000033A030A822F051F92AA822F04EF9164912A89F
S315000033B022F076FB18A8FFF759F8C14500F06B819B
S315000033C03B685646D3ED007AFDEEE77A17EE903A63
S315000033D0CDED057A03F1010B1A9BBBB11A69934532
S315000033E0D6BF1E46DB689B68F7E700BFA18A0200CE
S315000033F098BD02009CBD0200DFBD020048BE002051
S31500003400A7BD0200AABD0200BFBD0200564502D0FC
S3150000341033699B452DDA2C20099621F061FF00F1D6
S315000034201C03C0F810B0064643610023099A00F158
S31500003430140B836118A9037700F110030DA8FEF79A
S31500003440CDFFDDE90D32002A00F01B81002B40F094
S315000034501681524500F01381306913699842ACBF5A
S31500003460002001205346314621F0A6FF1D9B013363
S315000034701D9306F114011EA822F03AFB059B1022AB
S31500003480A94924A80093A94BFEF758FEA84A002193
S3150000349024A822F0B3FA01462AA822F06FF9A5491A
S315000034A02AA822F0E7FA014630A822F067F91EA9F9
S315000034B030A822F0D5FA014638A822F05FF938A9DB
S315000034C012A822F0D3FA38A822F0BEF830A822F0CB
S315000034D0BBF82AA822F0B8F824A822F0B5F8964B33
S315000034E01B782BB1059B1BB9944912A822F0D8FA78
S315000034F0934912A822F0D4FA3B682AA893ED010A50
S31500003500FEF752FE8F4A00212AA822F077FA0146DA
S3150000351030A822F033F98C4930A822F0ABFA0146E4
S3150000352038A822F02BF938A912A822F09FFA38A859
S3150000353022F08AF830A822F087F82AA822F084F828
S315000035403B682AA893ED030AFEF72EFE7F4A002168
S315000035502AA822F053FA014630A822F00FF97A4938
S3150000356030A822F087FA014638A822F007F938A9D0
S3150000357012A822F07BFA38A822F066F830A822F0CA
S3150000358063F82AA822F060F83B682AA893ED020A9D
S31500003590FEF70AFE6E4A00212AA822F02FFA0146FB
S315000035A030A822F0EBF8684930A822F063FA014609
S315000035B038A822F0E3F838A912A822F057FA38A85A
S315000035C022F042F830A822F03FF82AA822F03CF870
S315000035D03B682AA893ED050AFEF7E6FD5D4A002141
S315000035E02AA822F00BFA014630A822F0C7F856495D
S315000035F030A822F03FFA014638A822F0BFF838A9D1
S3150000360012A822F033FA38A822F01EF830A822F0C9
S315000036101BF82AA822F018F83B682AA893ED040A9A
S31500003620FEF7C2FD4C4A00212AA822F0E7F901461E
S3150000363030A822F0A3F8494930A822F01BFA014627
S3150000364038A822F09BF838A912A822F00FFA38A859
S3150000365021F0FAFF30A821F0F7FF2AA821F0F4FFA5
S3150000366008F1FF334B4503D0374912A822F018FA68
S315000036701EA809F101090C3721F0E6FF9DE601209D
S31500003680F0E65846099321F0DFFF304621F013FE9D
S31500003690099B1E46EDE6324912A822F001FA4FF0C8
S315000036A00008254B83F800802E4B1A68139B9A421C
S315000036B011D22D482E4623F099FF1A9918A8FEF725
S315000036C052FE12A821F0C0FFA64255D030460C3655
S315000036D0FEF77CFDF8E7254F4FF0FF31244E3868A2
S315000036E00FF018FF012809D11299306824F016F955
S315000036F043464246414638680FF0FCFB31682E4689
S315000037001C4823F073FF0A2010F058FF1A9918A8D6
S31500003710FEF729FE12A821F097FFA6422CD03046CC
S315000037200C36FEF753FDF8E7A18A0200A7BD02009A
S31500003730CABD02009D62030048BE0020D2BD020041
S31500003740DEBD0200E1BD0200DFBD0200EABD0200EF
S31500003750F2BD0200FABD020002BE02000BBE02006C
S315000037600ABE0200048000200DBE020044BE0020F6
S315000037703CBE00200BB7020015B1284621F09BFD88
S31500003780079F10F0FBFD00210790022013F046FB77
S31500003790374B4FF0FF3118680FF0BCFE01287FF45D
S315000037A038AD2022002130A8324C23F0BFF8324B2E
S315000037B0DFF8E0A0D3F80080304B1E6823681D6850
S315000037C09AF80030BFF35B8F13F0010B12D150460D
S315000037D021F077FD70B1DFF8B4905046284B89F898
S315000037E054BFC9F8003021F078FD264A26494846DC
S315000037F021F05CFD0323369530AD349638AECDE925
S31500003800323801238DF8DC300FCD0FC695E80F0056
S3150000381086E80F0000232020CDE92A332C9321F0DF
S315000038205FFD0DF1E00C00F1200E05462A90CDF863
S31500003830B0E0CDF8ACE0BCE80F000FC596E80F008D
S3150000384085E80F002AA9114818F0A2FA05462A9819
S3150000385008B121F030FD002D7FF4E2AB0C4823F0D7
S31500003860C5FE8DE716469FE400231B68FFDE00BFFA
S315000038704CBE0020B4BE002038BE002040BE002052
S31500003880801103000080002085180000E0AE0020B3
S315000038904ABD0200DCAE002013B5019012F01AFBFF
S315000038A0044618B1019A002123F040F8204602B0E0
S315000038B010BD12F011BBEFF305835BB1EFF311837B
S315000038C04FF0200282F31188BFF36F8FBFF34F8F43
S315000038D0036070470EF0AEBFEFF3058313B180F3BC
S315000038E0118870470EF0D4BF4FF47A73584300F234
S315000038F0E730B0FBF3F010F061BE000010B50446EF
S3150000390030B9084B4FF4B871074A084822F0FCFB5F
S31500003910FF200FF0BBFA10B12060002010BD43F26B
S31500003920DD70FBE71DBF020081BF0200C8BE0200BA
S3150000393008B530B90B4B40F2A1110B4A0B4822F0E7
S31500003940E3FB4B1C00681EBF4FF47A735943B1FB6F
S31500003950F3F10FF0DFFD002843F2DE7018BF002000
S3150000396008BD00BF1DBF020095BF0200C8BE020011
S3150000397013B530B9154B40F2C311154A154822F05C
S31500003980C3FB0068EFF30583B3B1002401A90194DA
S315000039900FF076FC01280CD1019840B10E4B4FF088
S315000039A080521A60BFF34F8FBFF36F8F204602B06D
S315000039B010BD43F2DD70FAE71A4619460FF09AFA7F
S315000039C0012843F2DD7008BF0020F0E71DBF0200AA
S315000039D0A7BF0200C8BE020004ED00E010B5044611
S315000039E030B9084B40F2ED11074A084822F08CFB2B
S315000039F004200FF09BFB10B12060002010BD43F2A5
S31500003A00DD70FBE735BF0200B9BF0200C8BE020089
S31500003A1008B530B90B4B40F20A210B4A0B4822F08D
S31500003A2073FB4B1C00681EBF4FF47A735943B1FBFE
S31500003A30F3F10FF05DFE002843F2DE7018BF0020A0
S31500003A4008BD00BF35BF0200C9BF0200C8BE0200E4
S31500003A5008B530B9074B40F22A21074A074822F039
S31500003A6053FB00680FF038FB002843F2DD7018BFE7
S31500003A70002008BD35BF0200D7BF0200C8BE020045
S31500003A8008B530B9054B4FF41071054A054822F0C8
S31500003A903BFB00680FF01EFF002008BD35BF02008B
S31500003AA0E7BF0200C8BE020038B50D46044630B96D
S31500003AB0084B4FF41471084A084822F025FB0EF013
S31500003AC0B5FC206010B10020257138BD43F2DD70D1
S31500003AD0FBE700BF49BF0200F8BF0200C8BE0200F4
S31500003AE037B50025019530B9144B40F26A21144AC6
S31500003AF0144822F009FB0068E8B1EFF30584B4B17D
S31500003B0001AA0EF0DDFD012804D00F4B4FF41E7103
S31500003B100B4AEDE7019840B10C4B4FF080521A600A
S31500003B20BFF34F8FBFF36F8F284603B030BD0EF043
S31500003B303DFD2046F9E743F2DD70F6E749BF020096
S31500003B4008C00200C8BE02005DBF020004ED00E02E
S31500003B5073B5069D30B9114B40F2E121104A114868
S31500003B6022F0D2FA066821F07F449EB101793046F0
S31500003B70009313460A1E214618BF01220EF064FC6C
S31500003B80204005B12860002843F2DE7018BF0020EF
S31500003B9002B070BD43F2DD70FAE700BF49BF020014
S31500003BA015C00200C8BE020008B530B9074B40F286
S31500003BB01731074A074822F0A7FA006818B10EF035
S31500003BC051FD002008BD43F2DD70FBE749BF02004E
S31500003BD023C00200C8BE020010B5044608461146BE
S31500003BE034B9084B40F22D31074A084822F08CFAC6
S31500003BF000220FF0FFF810B12060002010BD43F244
S31500003C00DD70FBE76EBF020034C00200C8BE0200D2
S31500003C1013B530B9144B40F24931144A144822F016
S31500003C2073FA002400680194EFF305839BB12346E1
S31500003C3001AA0FF08DFA012812D1019B13B90020B9
S31500003C4002B010BD0B4B4FF080521A60BFF34F8F7E
S31500003C50BFF36F8FF3E71A460FF04CF90128EED049
S31500003C6043F2DD70ECE700BF6EBF020043C0020006
S31500003C70C8BE020004ED00E008B530B90B4B40F2B7
S31500003C8071310B4A0B4822F03FFA531C00681EBFE5
S31500003C904FF47A735A43B2FBF3F20FF07BFB012821
S31500003CA043F2DE7008BF002008BD00BF6EBF0200F1
S31500003CB04FC00200C8BE020008B530B9054B40F23D
S31500003CC0A131054A054822F01FFA00680FF002FEEE
S31500003CD0002008BD6EBF02005BC00200C8BE020025
S31500003CE007B5186C01A99A630FF0CAFA019B3BB19C
S31500003CF0054B4FF080521A60BFF34F8FBFF36F8FA3
S31500003D0003B05DF804FB00BF04ED00E02DE9F041CF
S31500003D100D4616461F46044630B329B344220021F9
S31500003D2022F004FE04200FF001FAE06348B10322FA
S31500003D30002101200FF05EF8206420B9E06B0FF03F
S31500003D40C9FD01200EE0A0463A463146284648F80D
S31500003D50045B06F047FB28462346044A414606F024
S31500003D60C7FB0020BDE8F0810420FBE7E13C000032
S31500003D704FF0FF31C06B0FF0BBBCC06B0FF0ACB99E
S31500003D8037B504460191FFF7F3FF012813D1019AD5
S31500003D90211D206806F0E8FB054628B12046FFF7FE
S31500003DA0ECFF284603B030BD4FF0FF31206C0FF01A
S31500003DB0B1FBA56BF2E74FF46175F2E70123024A06
S31500003DC01370024A93607047BCBE002000000F408B
S31500003DD0FFF7F4BF2DE9F8432C4B1C68844228BF3B
S31500003DE0044604B32A4E2B4D3368DFF8B49023F013
S31500003DF00103D9F8008033602B6823F001032B60A0
S31500003E0072B6BFF34F8FBFF36F8F11F0A3F9224F36
S31500003E1058B9AB686B602B6843F001032B603B68B5
S31500003E20013B6B6062B6BDE8F883013C08FB04F316
S31500003E303361336843F001033360BFF34F8F30BF04
S31500003E40BFF36F8F154B00221A7062B600BF197848
S31500003E50B1B11A700E4A0F4D136823F001031360B7
S31500003E600EF0E8FC2B68204643F001032B6010F0AF
S31500003E70D9FD3B68013B6B60BDE8F8430EF008BD19
S31500003E80746AD9F80000B4FBF0F4E3E7C4BE00207E
S31500003E9000000F4010E000E0C0BE0020BCBE0020C5
S31500003EA0B8BE00200C4B64221A6002220B4B1A602B
S31500003EB06FF000420A4B1A600A4B4FF08072DA60CC
S31500003EC0002243F8F02C43F8E82C632243F8EC2C4C
S31500003ED0032243F8F02C7047C0BE0020B8BE002075
S31500003EE0C4BE002000E100E00B1E10DD00F01F0143
S31500003EF01944BFF34F8F064A0144C2F85C022030D2
S31500003F000B1A002BF9DCBFF34F8FBFF36F8F70478F
S31500003F1000ED00E00B1E10DD00F01F011944BFF399
S31500003F204F8F064A0144C2F8680220300B1A002B54
S31500003F30F9DCBFF34F8FBFF36F8F704700ED00E0E2
S31500003F400B1E10DD00F01F011944BFF34F8F064A08
S31500003F500144C2F8700220300B1A002BF9DCBFF3C3
S31500003F604F8FBFF36F8F704700ED00E03C4A08B5F6
S31500003F70D2F8883043F47003C2F88830394A13887F
S31500003F80580705D5138823F004031B041B0C138064
S31500003F90354A1388590705D5138823F004031B04F3
S31500003FA01B0C1380314B1A6892044CD5304A5A6068
S31500003FB04FF6FF729A601A6822F0A00242F02002C1
S31500003FC01A602C4B1A68900443D5294A5A604FF65A
S31500003FD0FF729A601A6822F0A00242F020021A606C
S31500003FE0254B1A68D10703D51A6822F001021A6018
S31500003FF01B4B5A69920315D45A6912F4003211D137
S31500004000BFF34F8FBFF36F8FC3F85022BFF34F8FAD
S31500004010BFF36F8F5A6942F400325A61BFF34F8F74
S31500004020BFF36F8F154A136F23F4005313670C4ABF
S31500004030536943F010035361BFF34F8FBFF36F8F84
S3150000404000F04AF808BD4CF220525A604DF628128C
S31500004050ADE74CF220525A604DF62812B6E700BF83
S3150000406000ED00E0000003400040034000800340F4
S3150000407020C528D90000C14010E000E000400E40F5
S3150000408010B5C4010E4A04F1814402EBC00004F5E8
S3150000409098042368C3F30223C05C04F0BDFB2368C5
S315000040A00246DBB201339A42B0FBF3F006D2054B6F
S315000040B040F6C501044A054822F026F810BD00BFA7
S315000040C0F3C002006BC00200DCC0020070C0020038
S315000040D00048704788BF002008B511F05FFF08BD93
S315000040E010B592B00420FFF7CBFF1422044600213E
S315000040F001A822F01BFC3022002106A822F016FCA3
S3150000410001A807F047FB012301A919488DF80430DF
S3150000411007F068FB04234FF0004216498DF818306B
S315000041204FF480331248CDE9072303F10133124AD5
S3150000413003F102230993114BB2FBF4F2CDE90A1302
S315000041401E2300218DF83030A023534306AA0D9379
S3150000415041F68463CDE90F3340F20123ADF84430D4
S31500004160234607F0FDFBB0FA80F0400912B010BDFF
S3150000417000400D401212780F00CA9A3B2A2A463C8C
S315000041807FB5684603F086FC074B694607480093EF
S31500004190074B0193074B0293074B039303F0C0FDB4
S315000041A007B05DF804FB00BFC8BE00200000444015
S315000041B0F8BE002028BF002058BF002010B5E4B08C
S315000041C04FF49E72002115AC204622F0AFFB14205E
S315000041D0FFF756FF4FF4003330212060A36002231F
S315000041E0009402A8E38140F2033323820C23E37494
S315000041F04FF40063C4E909334023E3622023C4E992
S315000042000D13074C019405F0BFFB02A9204605F0EB
S3150000421001FB0449684602F06FFA64B010BD00BFA6
S3150000422000C00C4088BF002038B5044611F0C6FE19
S3150000423002F0DEF800F056FB01F0A8FD0CB101F02B
S3150000424099FDFFF74DFF10B90B4823F0CFF90B4D41
S315000042500B4C0C480C4A641B0C49121A22F03EFB0C
S3150000426022460021284622F061FBFFF789FFBDE8C0
S315000042703840FFF7A3BF00BFBEC0020000000081A8
S31500004280406886810000008100000081F0900300F4
S315000042904B78C0018A781B02013A03F4E063D2B27C
S315000042A013430A78002A0CBF00224FF08072134392
S315000042B0034A1350BFF34F8FBFF36F8F704700BF92
S315000042C00000CC402DE9F743EC4C00232046ADF826
S315000042D004308DF8063004F0DBFEE94BE94AD3F8EA
S315000042E000199142224640F0D882D3F81039DBB249
S315000042F00B2B40F0D282636923F00053636163683D
S3150000430023F4F85343F4B0536360A368002BFCDA3C
S31500004310DB4BDD4ED3F87038DB48DA06C3F3001109
S315000043204ABF00220122114606F024FF0121304631
S3150000433006F09EFE0121304606F0E0FE022004F063
S3150000434011FAD6F8C03043F00203C6F8C03004F0C4
S31500004350EDFA336D43F002033365336943F002032C
S315000043603361336943F080733361336A43F010037A
S315000043703362336A5B00FCD50024012501A90227BC
S3150000438020468DF805408DF80650FFF781FF01A9FC
S3150000439008208DF805404FF006088DF80650FFF707
S315000043A077FFBA484FF0180903F0B8FEB84804F092
S315000043B07FF9B84803F028FF21461B22022003F0AC
S315000043C0B5FF13222946022003F0B0FF022118226E
S315000043D0084603F0ABFF20220321022003F0A6FFCC
S315000043E004F050F821460D22032003F09FFF11220E
S315000043F02946032003F09AFF20220221032003F01E
S3150000440095FF03211622084603F090FFD6F81032D6
S31500004410A14823F00803C6F81032042604F0C6F8B3
S315000044202946052004F07EF804F01CF920460DEB21
S3150000443006018DF805608DF80650FFF729FF0DEB94
S31500004440060138468DF805608DF80670FFF720FFE7
S3150000445003230DEB060130468DF805808DF80630F6
S31500004460FFF716FF0DEB060105208DF805408DF8C8
S315000044700650FFF70DFF07230DEB060140468DF8AA
S3150000448006608DF80530FFF703FFF0230DEB0601FC
S3150000449008208DF805408DF80630FFF7F9FE0DEB84
S315000044A006010E208DF805408DF80650FFF7F0FE48
S315000044B00DEB06010F208DF805408DF80690FFF7ED
S315000044C0E7FE0DEB060110208DF805408DF80690ED
S315000044D0FFF7DEFE0DEB060111208DF805408DF885
S315000044E00650FFF7D5FE0DEB060112208DF80540AC
S315000044F08DF80650FFF7CCFE0DEB060113208DF864
S3150000450005408DF80650FFF7C3FE0DEB0601192096
S315000045108DF805408DF80650FFF7BAFE0DEB060143
S315000045201A208DF805408DF80650FFF7B1FE0DEB09
S3150000453006011B208DF805408DF80650FFF7A8FEF2
S315000045400DEB06011C208DF805408DF80650FFF78F
S315000045509FFE0DEB06011D208DF805408DF80650D7
S31500004560FFF796FE0DEB06011E208DF805408DF82F
S315000045700650FFF78DFE0DEB06011F208DF8054056
S315000045808DF80650FFF784FE0DEB060120208DF80E
S3150000459005408DF80650FFF77BFE0DEB0601212046
S315000045A08DF805408DF80650FFF772FE0DEB0601FB
S315000045B022208DF805408DF80650FFF769FE0DEBB9
S315000045C0060123208DF805408DF80650FFF760FEA2
S315000045D00DEB060124208DF805408DF80650FFF7F7
S315000045E057FE0DEB060125208DF805408DF8065087
S315000045F0FFF74EFE0DEB060126208DF805408DF8DF
S315000046000650FFF745FE0DEB060127208DF8054005
S315000046108DF80650FFF73CFE0DEB060128208DF8BD
S3150000462005408DF80650FFF733FE0DEB06012920F5
S315000046308DF805408DF80650FFF72AFE0DEB0601B2
S315000046402A208DF805408DF80650FFF721FE0DEB68
S3150000465006012B208DF805408DF80650FFF718FE51
S315000046600DEB06012C208DF805408DF80650FFF75E
S315000046700FFE0DEB06012D2010E000BF0080CA40A2
S3150000468000C0CA406959AC570040C84084C3020004
S3150000469018C6020024C602008CC302008DF805402D
S315000046A08DF80650FFF7F4FD0DEB06012E208DF870
S315000046B005408DF80650FFF7EBFD0DEB06012F20A8
S315000046C08DF805408DF80650FFF7E2FD0DEB06016B
S315000046D030208DF805408DF80650FFF7D9FD0DEB1B
S315000046E0060134208DF805608DF80660FFF7D0FDD1
S315000046F00DEB060135208DF805408DF80650FFF7C5
S31500004700C7FD0DEB060136208DF805408DF80650E5
S31500004710FFF7BEFD0DEB060137208DF805408DF83D
S315000047200650FFF7B5FD0DEB060138208DF8054064
S315000047308DF80650FFF7ACFD0DEB060139208DF81C
S3150000474005408DF80650FFF7A3FD0DEB06013A2054
S315000047508DF805408DF80650FFF79AFD0DEB060122
S315000047603D208DF805408DF80650FFF791FD0DEBC5
S3150000477006013E208DF805808DF80670FFF788FD4E
S315000047800DEB060140208DF805408DF80650FFF729
S315000047907FFD0DEB060141208DF805408DF8065092
S315000047A0FFF776FD0DEB060142208DF805408DF8EA
S315000047B00650FFF76DFD0DEB060143208DF8054011
S315000047C08DF80650FFF764FD0DEB06014C208DF8C1
S315000047D005408DF80650FFF75BFD3A4B3A4C1A68D8
S315000047E022F007021A601A6822F0380242EA090229
S315000047F01A601A6822F0C0021A605A6822F0030290
S315000048005A609A6822F003029A60DA6822F49F627C
S3150000481022F00702DA601A6922F002021A615A6966
S3150000482022F0050232435A615A6922F002025A61A5
S315000048309A6922F002029A619A6922F001029A614B
S315000048409A6D22F001029A65DA6D22F00102DA65AC
S315000048501A6E22F001021A665A6E22F001025A6698
S315000048609A6E22F001029A66DA6E22F00102DA6688
S315000048702368164AC3F30223D05C03F0CDFF2368F6
S31500004880DBB22B449842B0FBF3F215D2104B40F644
S31500004890C501104A104821F037FC536923F0005334
S315000048A05361536823F4F85343F4A85353600B4AF7
S315000048B09368002BFCDA2BE5094B1A6003B0BDE8C0
S315000048C0F08300BF00400E400000CC40A0C30200B1
S315000048D06BC002006BC3020070C002000080CA40B9
S315000048E008800020FFF7EEBC104642B10023137388
S315000048F0536833B11B6823B10A46022118470320C7
S31500004900704701207047104642B100235373536825
S3150000491033B11B6823B10A460121184703207047AB
S31500004920012070472DE9F043044687B018B90120ED
S3150000493007B0BDE8F083837B002BF8D0426892680D
S3150000494051799942F3D303F1005312680C2740F6CC
S31500004950024C013B02EBC30612F8335000239D4282
S31500004960E5D907FB03F270688118825A62453BD18C
S315000049700D7A00239D422DD80026CB782374002E75
S31500004980D5D000250120DFF870802F46DFF86C9027
S31500004990A6603379AB42CBD90623B2688DF808708E
S315000049A06B43D118D25C8DF80620D2094B88ADF83E
S315000049B004304B788DF8073018D0022B02D12773BC
S315000049C0CDF80C9003AA01A920680135049408F0DB
S315000049D021F9DEE71A01486800EB0316805CE27BEA
S315000049E09042CAD00133C5E70133B8E7022B04BFB2
S315000049F06773CDF80C80E5E707490000E948000039
S31500004A00836870B5044693B1002501200626A36885
S31500004A101A79954202D30023A36070BD9A6806FBFB
S31500004A2005F320680135D15C08F013F9EFE70120A2
S31500004A30F3E7000070B50A4C0E46154623685BB9CD
S31500004A40214601F00FFD30B923683BB14FF47F4397
S31500004A506660E3812C6070BD0220FCE70320FAE764
S31500004A600000002010B5044630B1FFF7C9FF00234F
S31500004A70C4E90033E38110BD0320FCE77FB504469B
S31500004A801546002A60D000285ED0CBB2013B032B2E
S31500004A9054D8DFE803F01E02064000238373012486
S31500004AA014E04368002BFAD02A78837B9A42F6D02A
S31500004AB0FFF7A6FF2B782046A3730023E373FFF7C7
S31500004AC031FF044610B1214807F010FE204604B01D
S31500004AD070BD2B68227C197998889142DFD12E1DF2
S31500004AE0ADF808005888009605F10806ADF80A00EA
S31500004AF0287B01968DF80C005B78222B07D1636822
S31500004B006A460B2120461B6898470446DEE7104894
S31500004B1007F0ECFDC3E74368002BC0D02D88037C6B
S31500004B20B3EB152FBBD1EDB2C37BAB42B7D0FFF7CA
S31500004B3067FF2046E573FFF7F5FEE6E70A460548F8
S31500004B40054907F0D3FDAAE70324BFE730C60200F4
S31500004B504AC602007CC602008FC6020038B504466B
S31500004B6048B1057B4DB901202073206808F03EF856
S31500004B7000B1257338BD0320FCE70220FAE738B5FB
S31500004B80044648B1457B4DB901206073206808F0A2
S31500004B9033F800B1657338BD0320FCE70220FAE75D
S31500004BA02DE9F04390F8943087B004461BB90120F4
S31500004BB007B0BDE8F0834268926851799942F6D30E
S31500004BC01268002AF3D003F100530C27013B02EBD5
S31500004BD0C30612F8335000239D42E8D907FB03F2BF
S31500004BE070688118825C082A2CD10D7A00239D42B8
S31500004BF01DD80027CB7884F89530002FD7D0002613
S31500004C000120DFF88C803546DFF88890A7603B7975
S31500004C10B34219D80123E560C4F88450C4F888303B
S31500004C2084F88C5084F88F5084F89650C0E71A01A7
S31500004C30486800EB0317805C94F893209042D9D023
S31500004C400133D4E70133C7E70623B9688DF8085066
S31500004C5073430136CA1810798DF80900CB5C2068B9
S31500004C608DF806305188ADF8041001A952780494E5
S31500004C708DF80720DA0903AA15BF84F8913084F865
S31500004C809230CDF80C90CDF80C8007F0C3FFBEE74C
S31500004C90A5520000E9500000836870B5044693B140
S31500004CA0002501200626A3681A79954202D300231F
S31500004CB0A36070BD9A6806FB05F320680135D15CD8
S31500004CC007F0C7FFEFE70120F3E70000F8B5214C36
S31500004CD00F4616462568002D3AD104F19803214661
S31500004CE0A36104F1B803E36104F1C803236204F18C
S31500004CF0DC03E36304F1E403236404F1F0032365B6
S31500004D0001F0B0FB30B184F8945084F89350C4E9B4
S31500004D100055F8BD236833B9606084F8940084F8C0
S31500004D2093000320F5E7FF23702284F8940084F8AB
S31500004D309330236A606167601A700A229870DA718C
S31500004D401873587384F88D0084F88E003460E0E799
S31500004D500220DEE71400002010B5044648B1FFF734
S31500004D609BFF0023C4E9003384F8943084F8933021
S31500004D7010BD0320FCE7F0B504468FB01646002AA6
S31500004D8000F06F81002800F06C81C9B20139052955
S31500004D9000F26B81DFE811F0340106004300670082
S31500004DA08C00BC00002301AA052180F894304368DA
S31500004DB01B689847019B0546002B00F05481013B78
S31500004DC001AE4FF0010C04F1440E84F89030B36844
S31500004DD01BB373680BB3331D0EEB0C170FCB87E8B1
S31500004DE00F0094F890205FFA8CF39A4205D30CF1E9
S31500004DF0010C1036BCF1040FE9D1226A702313703E
S31500004E000A23D371002393701373537384F88D3080
S31500004E1084F88E3028460FB0F0BD0125E1E74368DF
S31500004E20002B00F0228190F8943012789A4200F01C
S31500004E3005810BB1FFF730FF3378204684F89430B4
S31500004E40002384F89330FFF7ABFE05460028E1D136
S31500004E501F23A26994F89210206807F0CDFE012363
S31500004E6084F88D30D6E74368002B00F0FE80168864
S31500004E7090F89530B3EB162F40F0F780F6B290F825
S31500004E809330B34200F0DA80FFF706FF2046FFF7C3
S31500004E9087FE054648B91F23A26994F89210206838
S31500004EA007F0AAFE012384F88D3084F89360B1E7F9
S31500004EB04368002B00F0D9808368002B00F0D58072
S31500004EC090F886307BB9117890F8912001209142B4
S31500004ED007D184F8860084F88E302068317807F090
S31500004EE0EFFE054600E0012594F88730002B91D1AE
S31500004EF0317894F8922091428CD1012284F88D3039
S31500004F00206884F88720317807F0DAFE054681E7C5
S31500004F104368002B00F0A9808368002B00F0A58071
S31500004F2090F88950012D3FF475AF90F88650012D09
S31500004F3040D1127890F891309A4209D1002380F836
S31500004F40863080F88E300068317807F0CAFE054654
S31500004F5094F88730012B0ED1327894F892309A4229
S31500004F6009D10023206884F8873084F88D303178A1
S31500004F7007F0B7FE054694F88F30023B012B29D87F
S31500004F8094F88A30012B17D1B4F88630002B7FF4C1
S31500004F9041AF94F88D202068012A94F8921084F885
S31500004FA08A3025D184F88D3007F02AFE002384F854
S31500004FB08F302FE70125CBE794F88E302068012B40
S31500004FC094F891100CD184F8963007F019FE00235E
S31500004FD084F88F3094F88A30012B7FF41BAFD3E727
S31500004FE00D23E26907F002FE012384F88E30EEE716
S31500004FF01F23A26907F000FE012384F88D30D5E750
S3150000500013681A7802F01F05012D2ED190F895002D
S31500005010197988427FF4FEAE5978FE2903D0FF291C
S315000050200ED00525F6E659880029FAD1DB88012B32
S31500005030F7D11206F5D59034C6E901450025E9E613
S3150000504059880029EDD1DB88002BEAD11306E8D474
S3150000505040F20112A4F8885084F88A50A4F88620F9
S31500005060ECE70325D6E60425D4E60125D2E630B5DD
S31500005070036985B0002504460093836902955A7B2F
S31500005080C36800EB02118DF80C20B3F5803F6A4629
S31500005090C96D28BF4FF480338B4294BF01930191B1
S315000050A0042143681B689847A36922695B7B94F8CF
S315000050B0911004EB03135B6D9A4206D22068DDE97A
S315000050C0013207F093FD05B030BD0123206884F856
S315000050D08B5084F88630022384F8855084F88F300C
S315000050E007F0EEFD2846EEE77FB54B6814460E4600
S315000050F05A1C2CD194F88530A3B163681D688DB114
S31500005100A269D37B03F07F03282B0BD10023096808
S3150000511020460291012101930093537B6A468DF844
S315000051200C30A84794F89650012D03D00125284647
S3150000513004B070BD0023E26994F8911084F89630AB
S315000051400D23206807F052FDA4F88E50EFE7E268C1
S3150000515094F88B5093429CBFD21AE260012D0CD179
S31500005160002394F89110206884F88B3084F88650D8
S3150000517084F8853007F0A4FDD9E794F88520BAB9FC
S315000051800D2BD3D10B681968264B9942CED1012538
S3150000519084F88E201F23A26994F89210206884F860
S315000051A0885007F029FD84F88D50C0E701252AE0D4
S315000051B062681568002DB9D001933368029323699C
S315000051C00093A3695A7B8DF80C20DB7B03F07F03E9
S315000051D0282B03D16A4601212046A847E368002B05
S315000051E0E4D0A36920465A7B736804EB0212926DE1
S315000051F0B3FBF2F2236913442361FFF738FFE36838
S315000052000546002B93D10023E26994F8911084F8A7
S3150000521085300123206884F88E300D2307F0E6FCE4
S3150000522085E700BF5553425330B5036985B0002565
S3150000523004460093836902955A7BC36800EB02110A
S315000052408DF80C20B3F5803F6A46096E28BF4FF4EF
S3150000525080338B4294BF01930191032143681B68FD
S315000052609847A36922695B7B94F8921004EB0313B9
S315000052705B6D9A4206D22068DDE9013207F0BCFC7C
S3150000528005B030BD0123206884F88C5084F887303F
S31500005290022384F8845084F88F3007F011FD2846E5
S315000052A0EEE700007FB514464A680E46531C2CD123
S315000052B094F88430A3B163681D688DB1A269D37B6D
S315000052C003F07F032A2B0BD10023096820460291A5
S315000052D0022101930093537B6A468DF80C30A84750
S315000052E094F88D50002D40F0AB81B4F886304BB960
S315000052F01F23A26994F89210206807F07DFC012311
S3150000530084F88D30284604B070BDE3689A429CBF8D
S315000053109B1AE360A369DB7B03F0BF03152B06D161
S3150000532063681B681BB100220B212046984794F83E
S315000053308C30012B0CD1002594F89210206884F84B
S31500005340873084F88450A4F88C5007F0B9FCD9E76C
S3150000535094F88450002D37D0736801933368029314
S3150000536023690093A3695A7B8DF80C20626815683F
S31500005370CDB1DB7B03F07F032A2B03D16A460221E2
S315000053802046A847E5688DB1A36920465A7B736815
S3150000539004EB0212926DB3FBF2F22369134423610C
S315000053A0FFF742FF0546E368002BABD1002384F8E4
S315000053B084300D23E26994F89110206807F016FCFA
S315000053C0012384F88E309DE794F88830002B00F096
S315000053D01E8173681F2B40F01A81A369994A1968C8
S315000053E0914240F014815E7B16F0F00F40F00F8181
S315000053F0997B11F0E00240F00A8194F890000130A8
S31500005400864280F0048101390F2900F20081E169AA
S315000054108D4884F88D20E260086058688A6048608C
S3150000542084F8882093F90C009E680028197B02DB1B
S31500005430321E18BF0122002884F8842008DA3EB103
S31500005440012094F8862084F8850022B1054659E7A4
S31500005450002284F88520DB7B032B04D0226A0020FF
S31500005460907010735073CA092F2B666284F8392026
S3150000547050D8112B0CD8032B00F09480042B00F08D
S315000054809D80002B00F09280204600F039FC57E00A
S31500005490123B1D2BF8D801A252F823F03B55000011
S315000054A08954000089540000CD550000895400003D
S315000054B089540000895400008954000023550000D7
S315000054C0ED55000089540000DD550000B55500007B
S315000054D08954000089540000895400008954000052
S315000054E0D555000089540000C555000089540000B8
S315000054F0895400009D550000895400003355000072
S315000055008954000089540000895400008954000021
S31500005510E55500009E2B55D007D8552B56D05A2B53
S31500005520B2D1204600F054FA0AE0A82B36D0AA2BB6
S31500005530AAD1204600F0FCF902E0204600F0AFF9BF
S31500005540236A05469B7843B1E3691A7B2AB9A269A7
S31500005550D27B032A1CBF01221A73052D0ED194F8A3
S315000055608430012B46D194F887200AB984F88C3010
S31500005570002384F88430022384F88F3094F8843032
S31500005580002B7FF4BFAE94F88530002B7FF4BAAEC3
S3150000559094F88B30002B7FF4B5AE0AE7204600F076
S315000055A0A2F9CDE7204600F059F9C9E7204600F0F8
S315000055B0E4F9C5E7204600F03CFBC1E7204600F0D1
S315000055C019FBBDE7204600F053FAB9E7204600F084
S315000055D023FAB5E7204600F093FAB1E7204600F03B
S315000055E049FBADE7204600F0E9F9A9E7204600F0BF
S315000055F062FBA5E794F88530012BBCD194F8862090
S315000056000AB984F88B30002384F88530B3E794F820
S315000056109210206807F054FB94F89110206807F068
S315000056204FFB002384F88D30012384F88F3040F23D
S315000056300113A4F886304FF48073A4F8883061E62D
S3150000564000255FE6555342435553425330B48469AF
S315000056500129647B00EB0414A56D5468126804FBF1
S3150000566005F40261C46002D130BCFFF700BD30BC56
S31500005670FFF7DABDD0E9093270B504464BB9C16906
S315000056808B6012B910460A7370BD022218460A735F
S31500005690FAE790F8391000296ED0C56942B9AB60B7
S315000056A0134694F89110E26A206807F09FFA0FE01B
S315000056B090F83A10002954D0934290F8381013D934
S315000056C09B1A0129AB60EBD100F13002FFF7BEFF58
S315000056D0E36908B918735CE001221A730322236A8E
S315000056E09A7011221A7354E04FF00002AA6010D18A
S315000056F0012907D100F13002FFF7A8FFE36940BB9B
S315000057001873C1E7C26A90F89110006807F06EFA44
S31500005710F4E7012916D18269527B00EB0212966DDD
S31500005720B3FBF6F206FB1233426300F13002AB60C4
S31500005730FFF78CFFE36960B994F83820012ADFD1BE
S3150000574002220CE0C26A90F89110006807F04EFA47
S31500005750F0E701221A730322236A9A7011221A7340
S3150000576092E7C26AAB600B4690F89110006807F0AA
S315000057703DFAE3690222B5E76AB990F8921000682B
S3150000578007F09EFA636AE26993600123137384F853
S315000057908730052078E790F83A1059B190F89210C2
S315000057A0006807F08DFAE369626A9A6002221A734A
S315000057B00123ECE79342C56990F8386019D99B1A22
S315000057C0012EAB600DD100F13002FFF73FFFE36918
S315000057D000283FF47FAF01221A730322236A9A70CE
S315000057E080E7134690F89210C26A006807F004FA40
S315000057F0EDE7A96016D1012E0DD100F13002FFF7B9
S3150000580025FFE36900283FF47BAF01221A73236A60
S3150000581003229A70A3E7C26A90F89210006807F014
S31500005820EBF9EEE7012E12D18269527B00EB0212F0
S31500005830966DB3FBF6F206FB1233426300F13002BB
S31500005840AB60FFF703FF0028E1D1E36974E7C26AA2
S3150000585090F89210006807F0CFF9F4E710B5036AE4
S3150000586086B004460493836903F10F025B7B8DF8CF
S315000058701430436801921B6813B101AA0F2198479F
S3150000588012232046A362012384F83A30236AE36296
S31500005890002384F83830FFF7EDFE06B010BD10B5D2
S315000058A0036A86B004460493836903F10F025B7BA7
S315000058B08DF814304368019200221B68CDE902225C
S315000058C013B101AA08219847029B2046A36201232F
S315000058D084F83A30039BE362002384F83830FFF7FC
S315000058E0C9FE06B010BD826910B4D37BD2F8111080
S315000058F0282B09BA15D1D38A5BBA9BB2012480F84A
S315000059003A40527B00EB0212926D80F838405A43BF
S315000059105DF8044B82620022C0E90C13C262FFF7F5
S31500005920A9BEA82B0ABFD2F8153000231BBAE5E79B
S31500005930826910B4D37B0024D2F811102A2B09BA3D
S3150000594014D1D38A5BBA9BB280F83A40527B00EB03
S315000059500212926D5A43C0E90A24012280F83820C7
S315000059605DF8044BC0E90C13FFF784BEAA2B0ABFEF
S31500005970D2F8153023461BBAE6E730B5036A87B07E
S3150000598004460493836903F10F025B7B01920122B3
S315000059908DF81430002380F83A208362C36280F8C1
S315000059A03830FFF767FE636805461B681BB101AA1E
S315000059B0072120469847284607B030BD002201211E
S315000059C0826280F83A10C26280F83820FFF752BE31
S315000059D010B5036A86B004460493836903F10F0287
S315000059E05B7B8DF814304368019200221B68CDE979
S315000059F0022213B101AA09219847029B2046A362FD
S31500005A00012384F83A30039BE362002384F838309C
S31500005A10FFF730FE06B010BD10B5036A86B0044627
S31500005A200493836903F10F025B7B8DF8143043689E
S31500005A30019200221B68CDE9022213B101AA0A21B4
S31500005A409847029B2046039AA3620023E26284F8E9
S31500005A503A3084F83830FFF70DFEA3691B7CDB076C
S31500005A6004D5236A05229A7024221A7306B010BD43
S31500005A70836930B585B05D7B002304468DF80C50F4
S31500005A80CDE9013343681B6813B101AA1021984779
S31500005A9094F89030AB423FBF236A052200259A70E6
S31500005AA0029931B1019B13B304EB0515C5E9153114
S31500005AB00821A069437BC07B0533252804EB03132B
S31500005AC05A68A16202F1FF3212BA12D1E16B0A6082
S31500005AD09B681BBA4B6001232046E16284F83A308A
S31500005AE0002384F83830FFF7C5FD05B030BD1946F0
S31500005AF0DFE7216C4A609B681BBA8B60EBE700000E
S31500005B0070B53B4B044688B01868A36900905D7B6E
S31500005B100023CDE9053363688DF81C501B681BB163
S31500005B2005AA11212046984794F89030AB423FBF12
S31500005B30236A052200259A70069B2BB1059A1AB195
S31500005B4004EB0515C5E91523A36994F84C50997D16
S31500005B50DA7D42EA0121002D48D06269002A14BF8D
S31500005B60022003205B7B002D4FEAC00503F10503ED
S31500005B708DF8035004EB03135A689E6812BA33BAC1
S31500005B800392049314BF4FF000734FF08073019299
S31500005B900C22334302EBC0021BBA8A42029328BF8F
S31500005BA00A46236D9DF8001019709DF80110236DAB
S31500005BB059709DF80210236D997001A9236DDD704F
S31500005BC0042311F8015B206DC55401330C2BF8D169
S31500005BD001232046A26284F83A30236DE362002353
S31500005BE084F83830FFF746FD08B070BD2846B9E79F
S31500005BF03CB5020070B5002501260446856280F892
S31500005C003A60C56280F83850FFF734FDE3691A7BC5
S31500005C10022A0DD0A269127C02F01F02172A1DBFAC
S31500005C2005221E73236A1D731EBF9A7024221A73DF
S31500005C3070BD30B5036A87B004460493836903F1E7
S31500005C400F025B7B019201228DF81430002380F84D
S31500005C503A208362C36280F83830FFF70BFD636831
S31500005C6005461B681BB101AA0C2120469847284609
S31500005C7007B030BD30B5036A87B004460493836924
S31500005C8003F10F025B7B019201228DF81430002391
S31500005C9080F83A208362C36280F83830FFF7EAFC66
S31500005CA0636805461B681BB101AA0D21204698476B
S31500005CB0284607B030BD30B5036A87B00446049362
S31500005CC0836903F10F025B7B019201228DF8143088
S31500005CD0002380F83A208362C36280F83830FFF7E9
S31500005CE0C9FCE36905461B7B022B06D063681B686B
S31500005CF01BB101AA0E2120469847284607B030BDA1
S31500005D0010B4C169002201248A600C730521036A5C
