:1008000000000420BD0C0000C7660100C1660100A5
:10081000490D0000490D0000490D000000000000D6
:10082000000000000000000000000000112E010088
:10083000490D000000000000E12E0100452F0100DD
:10084000610D0000650D0000690D00006D0D0000D8
:10085000710D0000750D0000790D00007D0D000088
:10086000810D0000850D0000890D00008D0D000038
:10087000910D0000950D0000990D00009D0D0000E8
:10088000A10D0000490D0000490D0000490D0000B8
:10089000ED7A0000FB7A0000097B0000177B000066
:1008A000257B0000337B0000417B00004F7B000074
:1008B000C50D0000C90D0000CD0D0000D10D0000D8
:1008C000D50D0000D90D0000DD0D0000E10D000088
:1008D000E50D0000E90D0000ED0D0000F10D000038
:1008E000F50D0000F90D0000FD0D0000010E0000E7
:1008F000050E0000090E00000D0E0000110E000094
:10090000150E0000190E0000490D0000490D0000F1
:10091000490D0000490D0000490D0000490D00007F
:100920002DBA0100490D0000490D0000490D0000DD
:10093000490D0000696F0100490D0000490D0000DC
:10094000490D0000490D0000490D0000490D00004F
:10095000490D0000490D0000490D0000490D00003F
:10096000490D0000490D0000490D00001D0E00005A
:10097000210E0000250E0000290E00002D0E0000A3
:10098000310E0000350E0000390E0000490D000048
:10099000490D0000490D0000490D0000490D0000FF
:1009A000490D0000490D0000490D0000490D0000EF
:1009B000490D00007D6F0100490D0000490D000048
:1009C000490D00003D0E0000490D0000490D0000DA
:1009D000490D0000490D0000296F01003D6F010025
:1009E000490D0000416F0100556F0100490D0000E5
:1009F000490D0000490D0000410E0000450E0000A9
:100A0000490D0000490D0000490D0000490D00008E
:100A1000490D0000490D0000E56601004D8301000D
:100A2000D1430000490D0000490D0000490D0000B0
:100A3000490D0000490D0000490D0000490D00005E
:100A4000490D0000490D0000490E00004D0E000048
:100A5000490D0000510E0000550E0000F901020082
:100A600005AD0100590E00005D0E0000610E000092
:100A7000650E0000690E00006D0E0000490D0000BB
:100A8000490D0000490D0000490D0000490D00000E
:100A9000490D0000490D0000490D0000490D0000FE
:100AA000490D0000490D0000490D0000490D0000EE
:100AB000490D0000490D0000490D0000490D0000DE
:100AC000490D0000490D0000490D0000490D0000CE
:100AD000490D0000490D0000490D0000490D0000BE
:100AE000490D0000490D0000490D0000490D0000AE
:100AF000490D0000490D0000490D0000490D00009E
:100B0000490D0000490D0000490D0000490D00008D
:100B1000490D0000490D0000490D0000490D00007D
:100B2000490D0000490D0000490D0000490D00006D
:100B3000490D0000490D0000490D0000490D00005D
:100B4000490D0000490D0000490D0000490D00004D
:100B5000490D0000490D0000490D0000490D00003D
:100B6000710E0000750E0000790E00007D0E000071
:100B7000490D0000490D0000490D0000490D00001D
:100B8000490D0000490D0000810E0000850E000097
:100B9000890E00008D0E0000490D0000490D000077
:100BA000910E0000950E0000B1660100B1660100D3
:100BB000B1660100B1660100B1660100B1660100D5
:100BC000B1660100B1660100B1660100B1660100C5
:100BD000B1660100B1660100B1660100B1660100B5
:100BE000B1660100B1660100B1660100B1660100A5
:100BF000B1660100B1660100B1660100FFFFFFFFB1
:100C000010B5054C237833B9044B13B10448AFF346
:100C100000800123237010BDC0AE00200000000042
:100C20002076030008B5034B1BB103490348AFF31B
:100C3000008008BD00000000C4AE00202076030044
:100C4000A3F5803A704700BF174B002B08BF134B2A
:100C50009D46FFF7F5FF00218B460F461348144AC7
:100C6000121A26F07BF90E4B002B00D098470D4B43
:100C7000002B00D098470020002104000D000D48F3
:100C8000002802D00C48AFF3008026F0F9F82000CD
:100C9000290016F031FE25F0B1FD00BF000008006C
:100CA000000000000000000000000420C0AC002094
:100CB0008C8C0220000000000000000072B6164874
:100CC000164901600A6882F308881548804715496B
:100CD000154A164B9A42BEBF51F8040B42F8040B5A
:100CE000F8E7134A134B9A42BEBF51F8040B42F87F
:100CF000040BF8E7104B00209A42BCBF42F8040BEB
:100D0000FAE70E490E4A00209142BCBF41F8040B9D
:100D1000FAE762B60B48804708ED00E000080000E3
:100D20006D450000E877030000800020ACAC002097
:100D30000000002000000020FC400020C0AC00208B
:100D40008C8C0220490C000015F0B2BC52480047C0
:100D5000524800475248004752480047524800470F
:100D600052480047524800475248004752480047FF
:100D700052480047524800475248004752480047EF
:100D800052480047524800475248004752480047DF
:100D900052480047524800475248004752480047CF
:100DA00052480047524800475248004752480047BF
:100DB00052480047524800475248004752480047AF
:100DC000524800475248004752480047524800479F
:100DD000524800475248004752480047524800478F
:100DE000524800475248004752480047524800477F
:100DF000524800475248004752480047524800476F
:100E0000524800475248004752480047524800475E
:100E1000524800475248004752480047524800474E
:100E2000524800475248004752480047524800473E
:100E3000524800475248004752480047524800472E
:100E4000524800475248004752480047524800471E
:100E5000524800475248004752480047524800470E
:100E600052480047524800475248004752480047FE
:100E700052480047524800475248004752480047EE
:100E800052480047524800475248004752480047DE
:100E90005248004752480047C7660100C16601003A
:100EA000112E0100E12E0100452F0100E197000005
:100EB000199800005198000089980000C19800001E
:100EC000F99800003199000069990000A19900008B
:100ED000D9990000119A0000499A0000819A0000F7
:100EE000B99A0000F19A0000299B0000490D00000A
:100EF000E9B3000009B4000029B4000049B40000BF
:100F000069B4000089B40000A9B40000C9B40000AD
:100F1000E9B4000009B5000029B5000049B500009A
:100F2000D5AE0000E1AE0000EDAE0000F9AE00006D
:100F300005AF000011AF00003DAF000071AF000031
:100F4000A5AF0000D9AF00000DB0000041B0000017
:100F5000490D0000490D0000490D0000490D000039
:100F6000490D0000490D0000490D0000490D000029
:100F7000490D0000490D0000490D0000490D000019
:100F8000490D0000490D0000490D0000490D000009
:100F9000490D0000E9A30000490D0000895202003C
:100FA000A9520200BD9C0000D19C0000F99C0000E9
:100FB0000D9D0000E59C0000219D0000490D0000F2
:100FC000490D0000FDB50000490D0000490D00006D
:100FD000490D0000490D0000490D0000490D0000B9
:100FE000490D000081F0004102E000BF83F00043A2
:100FF00030B54FEA41044FEA430594EA050F08BFB4
:1010000090EA020F1FBF54EA000C55EA020C7FEA77
:10101000645C7FEA655C00F0E2804FEA5454D4EBF4
:101020005555B8BF6D420CDD2C4480EA020281EABE
:10103000030382EA000083EA010180EA020281EAF6
:101040000303362D88BF30BD11F0004F4FEA013148
:101050004FF4801C4CEA113102D0404261EB410157
:1010600013F0004F4FEA03334CEA133302D05242DD
:1010700063EB430394EA050F00F0A780A4F1010499
:10108000D5F1200E0DDB02FA0EFC22FA05F28018D3
:1010900041F1000103FA0EF2801843FA05F35941B9
:1010A0000EE0A5F120050EF1200E012A03FA0EFC38
:1010B00028BF4CF0020C43FA05F3C01851EBE37162
:1010C00001F0004507D54FF0000EDCF1000C7EEB7F
:1010D00000006EEB0101B1F5801F1BD3B1F5001FBD
:1010E0000CD349085FEA30004FEA3C0C04F10104DC
:1010F0004FEA445212F5800F80F09A80BCF1004F05
:1011000008BF5FEA500C50F1000041EB045141EA86
:10111000050130BD5FEA4C0C404141EB0101013C4F
:1011200028BFB1F5801FE9D291F0000F04BF01463E
:101130000020B1FA81F308BF2033A3F10B03B3F110
:1011400020020CDA0C3208DD02F1140CC2F10C02A0
:1011500001FA0CF021FA02F10CE002F11402D8BFFE
:10116000C2F1200C01FA02F120FA0CFCDCBF41EACA
:101170000C019040E41AA2BF01EB0451294330BD99
:101180006FEA04041F3C1CDA0C340EDC04F1140476
:10119000C4F1200220FA04F001FA02F340EA03004D
:1011A00021FA04F345EA030130BDC4F10C04C4F193
:1011B000200220FA02F001FA04F340EA0300294673
:1011C00030BD21FA04F0294630BD94F0000F83F4BD
:1011D000801306BF81F480110134013D4EE77FEAA0
:1011E000645C18BF7FEA655C29D094EA050F08BFEC
:1011F00090EA020F05D054EA000C04BF19461046CD
:1012000030BD91EA030F1EBF0021002030BD5FEA10
:10121000545C05D14000494128BF41F0004130BD38
:1012200014F580043CBF01F5801130BD01F000458C
:1012300045F0FE4141F470014FF0000030BD7FEAFF
:10124000645C1ABF194610467FEA655C1CBF0B46FA
:10125000024650EA013406BF52EA033591EA030F11
:1012600041F4002130BD00BF90F0000F04BF002109
:10127000704730B54FF4806404F132044FF000053C
:101280004FF0000150E700BF90F0000F04BF0021B5
:10129000704730B54FF4806404F1320410F000451B
:1012A00048BF40424FF000013EE700BF42004FEA16
:1012B000E2014FEA31014FEA02701FBF12F07F4393
:1012C00093F07F4F81F06051704732F07F4208BF4A
:1012D000704793F07F4F04BF41F40021704730B551
:1012E0004FF4607401F0004521F000411CE700BF9D
:1012F00050EA010208BF704730B54FF000050AE020
:1013000050EA010208BF704730B511F0004502D520
:10131000404261EB41014FF4806404F132045FEA22
:10132000915C3FF4D8AE4FF003025FEADC0C18BFCB
:1013300003325FEADC0C18BF033202EBDC02C2F1BD
:10134000200300FA03FC20FA02F001FA03FE40EA4F
:101350000E0021FA02F11444BDE600BF7BB972B958
:101360000029BEBF00204FF0004106E008BF002862
:101370001CBF6FF000414FF0FF3000F007BAADF135
:10138000080C6DE904CE002909DB002B1ADB00F004
:101390009BF8DDF804E0DDE9022304B07047404229
:1013A00061EB4101002B1BDB00F08EF8DDF804E05F
:1013B000DDE9022304B0404261EB4101524263EB9C
:1013C00043037047524263EB430300F07DF8DDF8BE
:1013D00004E0DDE9022304B0404261EB41017047C3
:1013E000524263EB430300F06FF8DDF804E0DDE9FF
:1013F000022304B0524263EB4303704753B94AB926
:10140000002908BF00281CBF4FF0FF314FF0FF300C
:1014100000F0BCB9ADF1080C6DE904CE00F054F851
:10142000DDF804E0DDE9022304B07047430803F06F
:101430005533C01A830803F0333300F033301844B7
:1014400000EB101000F00F3000EB002000EB00402C
:10145000000E704708B502460B4643EC172BB5EE5D
:10146000C07BF1EE10FA03D4BDE8084000F00CB8E0
:10147000B1EE477B51EC170B00F006F8404261EBF0
:10148000410108BD000000009FED0B6B41EC170B04
:101490009FED0B5B27EE066BBCEEC66BB8EE464BC2
:1014A000A4EE457BFCEEC77B16EE101A17EE900AF1
:1014B000704700BFAFF30080000000000000F03D67
:1014C000000000000000F0412DE9F047089D0446AF
:1014D0008C46002B40F083808A42174647D9B2FAE7
:1014E00082F242B1C2F1200024FA00F0914097400C
:1014F00040EA010C94404FEA1748230CBCFBF8F675
:101500001FFA87FE08FB16C143EA014306FB0EF1F2
:10151000994209D9FB1806F1FF3080F019819942F0
:1015200040F21681023E3B445B1AA4B2B3FBF8F0D2
:1015300008FB103344EA034400FB0EFEA64509D91C
:101540003C1900F1FF3380F00581A64540F202818D
:1015500002383C4440EA0640A4EB0E0400261DB1CC
:10156000D4400023C5E900433146BDE8F08702B905
:10157000FFDEB2FA82F2002A50D1CB1B4FEA174E9F
:101580001FFA87F80126B3FBFEFC210C0EFB1C336F
:1015900041EA034108FB0CF38B4207D979180CF19F
:1015A000FF3002D28B4200F2E9808446C91AA3B20E
:1015B000B1FBFEF00EFB101143EA014408FB00F8FA
:1015C000A04507D93C1900F1FF3302D2A04500F233
:1015D000D9801846A4EB080440EA0C40BFE78B42D0
:1015E00009D9002D00F0B1800026C5E90001304680
:1015F0003146BDE8F087B3FA83F6002E4AD18B421C
:1016000002D3824200F2B880841A61EB0301012008
:101610008C46002DA8D0C5E9004CA5E7C2F12003F7
:1016200020FA03F6974001FA02F04FEA174ED9402C
:101630003043030CB1FBFEF61FFA87F80EFB1611C0
:1016400043EA014306FB08F1994204FA02F409D97E
:10165000FB1806F1FF3C80F08D80994240F28A80B1
:10166000023E3B445B1A81B2B3FBFEF00EFB10332B
:1016700041EA034100FB08F38B4207D9791800F1D6
:10168000FF3C73D28B4271D902383944CB1A40EAFD
:10169000064678E7C6F1200C03FA06F422FA0CF3AA
:1016A0001C4320FA0CF701FA06F34FEA144E21FA14
:1016B0000CF11F433B0CB1FBFEF91FFA84F80EFB43
:1016C000191143EA014109FB08FA8A4502FA06F2B8
:1016D00000FA06F308D9611809F1FF3048D28A45AB
:1016E00046D9A9F102092144A1EB0A01BFB2B1FB1D
:1016F000FEF00EFB101147EA014700FB08F8B84561
:1017000007D9E71900F1FF312ED2B8452CD902389C
:10171000274440EA0940A7EB0807A0FB02894F4590
:10172000C64649461AD317D05DB1B3EB0E0267EB3C
:10173000010707FA0CFCF2404CEA0202F740C5E947
:10174000002700263146BDE8F0872E4628460BE7E5
:101750000646E9E61846FDE64345E5D2B8EB020E3B
:1017600069EB04010138DFE70846D2E760468DE700
:101770008146B9E7664675E730464AE7ACF1020CA8
:10178000394413E702383C4424E700BF704700BFE8
:1017900001F0FF01102A2BDB10F0070F08D010F822
:1017A000013B013A8B422DD010F0070F42B3F6D126
:1017B000F0B441EA012141EA014122F007047FF03F
:1017C00000070023F0E80256083C85EA010586EA96
:1017D000010685FA47F5A3FA87F586FA47F6A5FAD2
:1017E00087F68EB9EED1F0BC01F0FF0102F00702DE
:1017F00032B110F8013B013A83EA010313B1F8D189
:101800000020704701387047002D06BF3546033869
:10181000073815F0010F07D1013015F4807F02BFA2
:10182000013015F4C03F0130F0BC0138704700BFF3
:1018300010F8012B11F8013B012A28BF9A42F7D07A
:10184000D01A7047034613F8012B002AFBD1181A4F
:1018500001387047014B01221A70704778BE002092
:1018600010B504460B6811689847204610BD012A40
:1018700003D0022A03D0002070470160FBE70B6809
:101880000360F8E77047836810B5044613B103227C
:1018900001469847204610BD70B5094B0446D0E973
:1018A00001560360AE4204D028461035FFF7EBFF27
:1018B000F8E7606808B123F0FEFF204670BD00BF66
:1018C000E814030070B50D4E3378BFF35B8F13F04F
:1018D000010410D1304623F0F4FF60B1084D3046CA
:1018E000084B85F8544F2B6023F0F7FF064A284633
:1018F000064923F0DBFF024870BD00BFDCAE0020CC
:10190000E0AE0020541E0300008000208518000077
:1019100000F1080373B504460D460360E1B10846C3
:10192000FFF790FF0F2805EB0006019007D9002272
:1019300001A9204624F066F9019B2060A36032468D
:101940002946206824F0D9F9019B2268002120460D
:101950006360D15402B070BD014824F08CF800BF20
:10196000E0C1020013B50B4602466C46D0E9000107
:1019700084E8030093E8030082E8030094E803008E
:1019800083E8030002B010BD2DE9F84307468846FE
:101990001646154604464FF0000944451AD029461C
:1019A0002046C5F808901035FFF7DCFFA36855F80E
:1019B000082C2046103444F8082C45F8083C55F80B
:1019C000042C54F8043C44F8042C45F8043CFFF77C
:1019D0005AFFE2E7E01B3044BDE8F8832DE9F84FF9
:1019E000D0E900A993466FF07843A9EB0A020746B5
:1019F0008846B3EB221F4FEA221402D1214824F07B
:101A00003DF8012C2246A1EB0A0638BF0122A4189A
:101A100035D23CB19C4228BF1C46200123F060FF18
:101A2000054600E025462E44002358463146B36063
:101A3000FFF798FFB368DBF808204146CBF8083081
:101A40005046F368B260DBF80C20CBF80C30F26043
:101A50002A46FFF799FF494600F110024046FFF77A
:101A600093FF0646BAF1000F02D0504623F023FF41
:101A700005EB0414C7E90056BC60BDE8F88F1C46AE
:101A8000CBE700BF0AC20200534B002230B51A70E8
:101A900091B0524B1B6813B9514826F061F9514B74
:101AA0001B6813B9504826F05BF91C22002102A8DC
:101AB000002425F053FA0125FFF704FF02A91AF0CC
:101AC00071FA4A4B0293FFF7FDFE01211AF0DCFE8A
:101AD000FFF7F8FE02A91AF0EDFEFFF7F3FE012171
:101AE0001AF0BAFE424826F03BF9022340F68C2257
:101AF00040494148CDE90034234612F009FF23460E
:101B000040F68C223D4901943D48009512F000FFBB
:101B1000284617F095FC044628B93A4826F020F9E3
:101B2000204613F0BBFB384817F078FC374817F015
:101B300081FC0A2017F0DEFC044628B9344826F060
:101B40000FF9204613F0AAFB09A817F039FD9DF8FC
:101B50003C40002C33D009992E4826F001F99DF81D
:101B60003C302BB1002309A88DF83C3024F06CF8F0
:101B7000294B2A4D09932A4B0C932A4B0B93D5E9F9
:101B800002439C4222D00023214609A8A360FFF70C
:101B9000E9FEA2680B9B0B92A360E2680C9B0C927F
:101BA000E360AB681033AB6009A8FFF76CFE1B481D
:101BB00017F050FA002013F071FB11B030BD1A4835
:101BC00026F0CEF8204613F069FBC8E709AA2146A3
:101BD000281DFFF703FFE7E778BE00207CBE00204A
:101BE00024C2020074BE002041C202005518000049
:101BF0005DC2020077C20200D92D000085C202003A
:101C0000D93A000090C202005CBE002044BE002011
:101C1000ADC20200CCC20200ED1C000080BE00205C
:101C2000611800006F180000DDC2020008B5012134
:101C30000D2015F02FF900210D2015F0E3F8BDE877
:101C40000840FFF721BF091A431E104630B555184A
:101C50002C1A002C04DD13F8014F00F8014BF7E7B4
:101C60000029ACBF5018101C30BD00002DE9F04118
:101C70008368A2EB01081746026804460E469B1AC9
:101C8000984518D9B8F1000F02DA174823F0F6FE8C
:101C9000404623F025FE3946024605463046FFF70A
:101CA000D2FF206808B123F006FE25604544C4E950
:101CB0000155BDE8F0814568AD1AA84508D83946F8
:101CC0003046FFF7C0FF63688342F2D06060F0E700
:101CD0000D4430462946FFF7B6FF6268394628466C
:101CE000FFF7B1FFF2E700BFF5C202002DE9F047B0
:101CF00090B00546884602AF3A4607F10800FFF764
:101D000007FEF86807F120060A282CD83A1D41463C
:101D10003046FFF7FDFD786A16282ED93B6A173842
:101D200061491844FFF784FDB0FA80F46409304635
:101D300023F08AFF07F1080023F086FF07F108026D
:101D4000ECB15A493046FFF7E3FD3146284624F00E
:101D500015F8012330462B7623F076FF28463837D6
:101D6000BD46BDE8F0870B38BB6851491844FFF702
:101D70005FFD0028CAD10124DCE70024D7E74146F3
:101D80003046FFF7C5FD786A0D2808D93B6A0E3842
:101D900048491844FFF74CFDB0FA80F46409304616
:101DA00023F052FF44B3DFF8288100244FF0FF31C5
:101DB000D8F80000BC62C7E9084411F0ABFE012866
:101DC00011D13D4B3D4A18681E233D4900961268CB
:101DD0000968006817F0B8FA234622462146D8F869
:101DE000000011F087FB3B6A2B607B6A6B60BB6A6B
:101DF000AB6002232B76B1E707F10802414630467B
:101E0000FFF786FD786A062808D93B6A07382D490E
:101E10001844FFF70DFDB0FA80F46409304623F052
:101E200013FF002C38D0284B0024DFF8A8A0E84688
:101E30001B684FF0FF31DAF800000733BC6223F073
:101E40000703ADEB030DC7E9084411F063FE012859
:101E50000DF1080916D11D4B4846196826F018F9EE
:101E60004846FFF7EFFC4FF0000309EB000249463C
:101E70003046FFF7FBFE234622462146DAF80000F3
:101E800011F038FB3B6A2B607B6A6B60BB6AAB600E
:101E900002232B76C54661E71C222146284625F001
:101EA0005DF82C765AE700BF32C3020058C3020027
:101EB00026C302006CC3020008BF002038BE002009
:101EC00040BE002064C30200048000203CBE00200D
:101ED0007CBE002074BE002010B50446FFF7DCFC79
:101EE0001021204623F0E9FC204610BD10B5044621
:101EF00040F6587123F0E1FC204610BD73B51A4D31
:101F000001AA1A4C1A4E28461A49FFF701FD284625
:101F1000194D2246314623F0C9FC01AA174928462B
:101F2000FFF7F6FC22463146284623F0BFFC144B4F
:101F3000186824F0CDFF134B1860012011F0F6FB58
:101F4000114B1860012011F0F1FB104B2246104993
:101F500018601048104B03600023C0E90133C360D0
:101F600023F0A4FC02B070BD5CBE00200080002005
:101F7000B15D02004AC3020044BE00204FC302000C
:101F8000048000203CBE00207CBE002074BE0020E7
:101F90009918000080BE0020E81403000022C0E968
:101FA0000022826070470022C0E9002282607047F0
:101FB0000022C0E900228260704701207047036858
:101FC0001B6A184703685B6A18472029F0B510D0D0
:101FD000046F0023242500F118069C4209D005FB5C
:101FE00003F2B7588F4202D104321044F0BD0133DE
:101FF000F3E70020FAE7704710B504468C2123F080
:102000005CFC204610BDD0F88420032A38B50CD8DB
:1020100000F1740400239A420BD014F8015B8D4246
:1020200005D11E3350F8230038BD24F07DFB013369
:10203000F1E70020F8E7F8B505460F46064600240C
:102040002B6FA34210D9B369202B02D00134243660
:10205000F6E73946F069FFF7EBFB0028F6D12420BC
:1020600000FB04500430F8BD0020FCE790ED033A7B
:1020700091ED034AD0ED023AB4EEC43AD1ED024AF2
:10208000D1ED057A90ED056AF1EE10FAD1ED045A22
:10209000F4EEE43AD0ED046A54BFB0EE432AB0EE59
:1020A000442AF1EE10FAF4EEC67A54BFF0EE632A39
:1020B000F0EE642AF1EE10FAF4EEE65A54BFB0EEF8
:1020C000467AB0EE677AF1EE10FA77EEC47A37EE20
:1020D000427A54BFB0EE665AB0EE655A75EEE45AD5
:1020E000B5EEC07A35EE625A36EE436AF1EE10FA7A
:1020F000B5EEC05A76EEE36A67EEA57AD8BF9FEDDB
:102100000B7AF1EE10FAE6EE267AD8BF9FED075A69
:1021100027EE057A77EEC77AF5EEC07AF1EE10FA7F
:10212000CCBF87EE270A9FED010A70470000000030
:1021300008B4F0B50E461146044682B0C81D00AF83
:1021400020F0070007F11C03ADEB000D53F8042B42
:102150006D463B602846B04704F108030F2805EBA5
:1021600000062360786007D90022391D204623F03D
:1021700049FD7B682060A36032462946206823F031
:10218000B7FD7B6822680021204608376360D15480
:10219000BD46BDE8F04001B070470000B7EEC00A90
:1021A000054B3A2213B5044604498DED000BFFF7A9
:1021B000BFFF204602B010BD7BC30200ED950200B8
:1021C000134613B5044601AA40F8041B1946FFF74D
:1021D0009FFB204602B010BD10B50446006808B150
:1021E00023F069FB204610BD70B50D1E044602DACF
:1021F0000B4823F043FC4FF00003C0E90033836039
:10220000284601D023F06CFB46192060A6601DB162
:102210002A46002124F0A2FE2046666070BD00BF61
:10222000F5C20200F0B58BB0054601A835F038FACA
:102230002B68062128461B6A9847074640B1D5F807
:10224000880018B106221B4935F036FA01202FE02C
:10225000D5F870C0BCF1020F09D9D5F88800002864
:10226000F4D003230622144935F026FAEEE74FF0A6
:10227000240E01AC0EFB0C5E0FCC0EF104060FC653
:102280000FCC0FC623680622384633600CF10103D9
:10229000CEF818202B67D5F88430E91881F874201F
:1022A00003F11E020549013345F82210C5F88430B8
:1022B0000BB0F0BD7EC30200CDC3020041602520FB
:1022C000036F022B2DE9F0410546884614460BD9D1
:1022D000D0F8880010B90120BDE8F0810A46032338
:1022E000114935F0E9F9F6E703685B6A9847064655
:1022F00040B1D5F888000028EDD042460B4935F0B2
:10230000DBF9E8E72F6F24207B1C00FB07572B67C6
:102310003D1D0FCC0FC50FCC0FC5236830462B6079
:102320002023C7E90638D7E710C4020052C40200D0
:1023300070B505460C464CB1E1682846FFF7F8FF3A
:10234000A668204623F0B7FA3446F4E770BD10B50E
:102350000446806B30B18368013B836013B9036826
:10236000DB68984704F108002169FFF7E1FF204688
:1023700010BD70B505460C466CB1E1682846FFF704
:10238000F8FF04F11400A66823F05EFC204623F059
:1023900092FA3446F0E770BD70B58B681646044675
:1023A0000D1D012253B130681D461A699042B9BF14
:1023B00098680122D86800220346F3E792B1CA6800
:1023C000AA4203D1C4E90035204670BD284623F057
:1023D000F1FA336802699A424FF00003F2DBC4E974
:1023E0000003F1E72846F4E72DE9F0411F460B1DF5
:1023F00004460E469A4215460AD14B69002B32D04C
:102400000B693A68196991422DDA0022226008E0CE
:10241000D7F800801369984515DACB68934202D14A
:10242000036063600CE0104623F0C4FA036998452A
:1024300019DDC36813B92360606001E02560656041
:102440002046BDE8F08114DD0B699342DDD01046D3
:1024500023F09DFA0369984505DAEB680BB9236010
:10246000EDE72060E8E73A4631462046FFF794FF63
:10247000E6E700232260D4E72DE9F047ADF5206DB3
:102480000446C84A00210DF10C0A261D5046554647
:10249000FFF796FEC44A01210AA8FFF791FEC34A3E
:1024A000022111A8FFF78CFEC14A032118A8FFF7EB
:1024B00087FEC04A04211FA8FFF782FEBE4A0521FD
:1024C00026A8FFF77DFEBD4A06212DA8FFF778FE5E
:1024D000BB4A072134A8FFF773FEBA4A08213BA87C
:1024E000FFF76EFEB84A092142A8FFF769FEB74A16
:1024F0000A2149A8FFF764FEB54A0B2150A8FFF74F
:102500005FFEB44A0C2157A8FFF75AFEB24A0D21CC
:102510005EA8FFF755FEB14A0E2165A8FFF750FEF1
:10252000AF4A0F216CA8FFF74BFEAE4A102173A8EB
:10253000FFF746FEAC4A11217AA8FFF741FEAB4AED
:10254000122181A8FFF73CFEA94A132188A8FFF7B2
:1025500037FEA84A14218FA8FFF732FEA64A15219C
:1025600096A8FFF72DFEA54A16219DA8FFF728FE85
:10257000A34A1721A4A8FFF723FEA24A1821ABA85B
:10258000FFF71EFEA04A1921B2A8FFF719FE914AD3
:102590001A21B9A8FFF714FE9C4A1B21C0A8FFF717
:1025A0000FFE9B4A1C21C7A8FFF70AFE894A1D217E
:1025B000CEA8FFF705FE874A1E21D5A8FFF700FE2B
:1025C000944A1F21DCA8FFF7FBFD934A2021E3A8D2
:1025D000FFF7F6FD914A2121EAA8FFF7F1FD904AA5
:1025E0002221F1A8FFF7ECFD8E4A2321F8A8FFF77E
:1025F000E7FD8D4A2421FFA8FFF7E2FD8B4A252144
:102600000DF58360FFF7DCFD894A26210DF2344089
:10261000FFF7D6FD874A27210DF58A60FFF7D0FD29
:10262000854A28210DF26C40FFF7CAFD834A292113
:102630000DF59160FFF7C4FD814A2A210DF2A440F7
:10264000FFF7BEFD7F4A2B210DF59860FFF7B8FD1F
:102650007D4A2C210DF2DC40FFF7B2FD5D4A2D21B1
:102660000DF59F60FFF7ACFD784A2E210DF2145056
:10267000FFF7A6FD764A2F210DF5A660FFF7A0FD16
:10268000744A30210DF24C50FFF79AFD724A312105
:102690000DF5AD60FFF794FD704A32210DF28450C4
:1026A000FFF78EFD6E4A33210DF5B460FFF788FD0C
:1026B0006C4A34210DF2BC50FFF782FD6A4A352185
:1026C0000DF5BB60FFF77CFD684A36210DF2F45032
:1026D000FFF776FD664A37210DF5C260FFF770FD02
:1026E000644A38210DF22C60FFF76AFD624A3921F5
:1026F0000DF5C960FFF764FD604A3A210DF2646090
:10270000FFF75EFD5E4A3B210DF5D060FFF758FDF7
:102710005C4A3C210DF29C60FFF752FD5A4A3D2174
:102720000DF5D760FFF74CFD584A3E210DF2D460FD
:10273000FFF746FD564A3F210DF5DE60FFF740FDED
:10274000544A40210DF20C70FFF73AFD524A4121E4
:102750000DF5E560FFF734FD1E4A42210DF244708D
:10276000FFF72EFD4D4A43210DF5EC60FFF728FDE4
:10277000184A44210DF27C70FFF722FD154A4521CD
:102780000DF5F360FFF71CFD454A46210DF2B470CC
:10279000FFF716FD0F4A47210DF5FA60FFF710FD10
:1027A00080E000BF9EC40200ADC40200B4C40200B9
:1027B000BCC40200C0C40200CBC40200D4C40200E6
:1027C000D8C40200DEC40200E4C40200E9C402006E
:1027D000F7C4020004C5020008C5020012C50200C9
:1027E00020C5020026C502002BC5020041C602001A
:1027F0002FC5020035C502003BC502003FC50200DF
:10280000FAC6020048C502004EC5020056C50200C5
:102810005FC5020068C5020070C5020074C50200F1
:102820007DC5020085C502008AC5020094C502006C
:10283000A0C50200A5C50200B2C50200C1C50200C4
:10284000CCC50200D6C50200E4C50200EBC50200FB
:10285000F6C50200FAC50200FFC5020005C6020067
:102860000BC6020010C6020017C602001DC60200F9
:1028700026C602002DC6020036C602003DC6020072
:1028800045C602004BC6020051C6020056C60200F1
:102890005CC6020062C602006FC6020073C6020078
:1028A00080C602005A4A48210DF2EC70FFF788FCFE
:1028B000584A49210DF60800FFF782FC564A4A2182
:1028C0000DF62400FFF77CFC544A4B210DF5046003
:1028D000FFF776FC524A4C210DF65C00FFF770FCC6
:1028E000504A4D210DF67800FFF76AFC4E4A4E2102
:1028F0000DF69400FFF764FC4C4A4F210DF50B6078
:10290000FFF75EFC4A4A50210DF6CC00FFF758FC59
:10291000484A51210DF6E800FFF752FC464A522181
:102920000DF60410FFF74CFC444A53210DF51260DC
:10293000FFF746FC424A54210DF63C10FFF740FCDD
:10294000404A55210DF65810FFF73AFC3E4A5621F1
:102950000DF67410FFF734FC3C4A57210DF5196051
:10296000FFF72EFC3A4A58210DF6AC10FFF728FC71
:10297000384A59210DF6C810FFF722FC364A5A2171
:102980000DF6E410FFF71CFC00232371C4E90236A6
:10299000C4E904632B463246214601A8FFF724FD13
:1029A000DDF80890B9F1000F1FD0019B73BB4E45B5
:1029B0002CD02F68D9F810309F42ACBF00270127D8
:1029C0002C2022F08DFF29468046143051F8043B1C
:1029D00040F8043C23F0A6FB33464A4641463846BD
:1029E00022F0EAFF6369013363611C350DF5206352
:1029F0009D42CFD11D461C3D281D23F025F955458C
:102A0000F9D120460DF5206DBDE8F0870127D7E705
:102A100087C602008AC6020091C6020097C602005D
:102A20009EC60200A7C60200B2C60200BCC60200D3
:102A3000C1C60200C9C60200CEC6020004C502001B
:102A4000DBC60200E0C60200E6C60200EBC60200DA
:102A5000F4C60200FFC602000AC702000A6800238B
:102A600002604A680B6042608A68C1E90133826093
:102A7000704730B50D688368D0E9004205604D6845
:102A800045608D6885608B60C1E9004230BD1FB52F
:102A900000230C46CDE901330393FFF7EAFF2146FB
:102AA00001A8FFF7E6FF01A8FFF796FB04B010BDF1
:102AB0002DE9F04F9946531E4FF00C0B85B003EBF8
:102AC000D3730546884616464FEA630A0C465B46B2
:102AD000A2451BDD671C7F007A1E0BFB07F16858BF
:102AE0000BFB02F1695890ED017A03FB0450D1ED24
:102AF000017AB4EE677AF1EE10FAC8BF174603FB0D
:102B000007513C46FFF7C3FF0C23E1E7F30710D45E
:102B1000023E06EBD676B4EB660F0AD161000C20BC
:102B20004E1C01FB000100FB045034462944FFF712
:102B3000AEFF661E0C27494601A806EBD676FFF7C6
:102B40008DFF7610A04507FB045015DA07FB06F34E
:102B5000E918EB5893ED017A019BD3ED017AB4EEBD
:102B6000E77AF1EE10FA07DDFFF791FF731E3446A6
:102B700003EBD3735E10E5E701A9FFF788FF01A817
:102B8000FFF72AFB05B0BDE8F08F000070B50546E1
:102B900088B00C461646114602A8641BFFF75EFF7C
:102BA00029463046FFF773FF0A4AA41002A905A878
:102BB00062430192FFF752FF05AB019A00212846BC
:102BC000FFF776FF05A8FFF707FB02A8FFF704FB56
:102BD00008B070BDABAAAAAA1FB50446014601A859
:102BE000FFF73CFF2046019A0C3C50F80C3C92ED5C
:102BF000017AD3ED017AB4EEE77AF1EE10FA03DD53
:102C00002146FFF744FFEDE701A9FFF740FF01A8C8
:102C1000FFF7E2FA04B010BD88422DE9F043054603
:102C200085B00F4633D000F10C04DFF86880A7426E
:102C30002DD026462B6856F80C2BD3ED017A92ED59
:102C4000017AB4EEE77AF1EE10FA1CDD2146641B3E
:102C5000B14601A8A410FFF701FF08FB04F4002C03
:102C600008DDA9F11801A9F10C09013C4846FFF75C
:102C70000EFFF4E7284601A9FFF709FF01A8FFF7B7
:102C8000ABFA3446D3E72046FFF7A6FFF9E705B0D5
:102C9000BDE8F083ABAAAAAA2DE9F04F4FF00C0BC8
:102CA00089B00446174698460D46DFF824A100EB8C
:102CB0000B092E1BC02E40F38880B6100AFB06F6C7
:102CC00047BBB71E4FF00C087F1008FB074102A856
:102CD000FFF7C4FE02A905A8FFF7C0FE204605AB1A
:102CE00032463946FFF7E4FE05A8FFF775FA67B9E3
:102CF00002A8FFF771FA2B1B0C3D0C2B65DD2A4651
:102D000029462046FFF742FFF5E702A8013FFFF7FB
:102D100063FADAE77610E368013F0BFB06F6D3EDC2
:102D2000016AA359A11993ED017A55F80C3CF4EE10
:102D3000C76AD3ED017AF1EE10FA32DDB4EEE77A2C
:102D4000F1EE10FA25DD20464E46FFF792FE2946A9
:102D50002368D3ED017A336893ED017AB4EEE77A14
:102D6000F1EE10FA2FDCA1F10C0319460C3B0A68B6
:102D700092ED017AF4EEC77AF1EE10FAF5DC8E42AC
:102D80001CD3294643463A4630463546FFF784FF72
:102D90008FE7F4EEE76AF1EE10FA07DDA5F10C011A
:102DA000D1E7F4EEE76AF1EE10FA01DD4946CAE731
:102DB000B4EEE77AF1EE10FAC5DDEFE730460191A7
:102DC000FFF757FE01990C36C2E709B0BDE8F08F56
:102DD000ABAAAAAA000000002DE98048ADF5097D44
:102DE00011F0CCFD0023089010A970481293CDE992
:102DF000103313F02BFE044630B96C496C4824F0B4
:102E0000AFFF204612F04AFA6A4C2378BFF35B8F7B
:102E1000DB070ED4204622F054FD50B1664819F06D
:102E200079FF204622F059FD644A6549624822F044
:102E30003DFD012260490CA81AF098FF0C9C2CB9AA
:102E4000604824F08DFF204612F028FA0BAD5E4B4F
:102E5000002438A82B605D4B54943893CDE9594435
:102E6000FFF7E0F934F0F8FB5949024638A8FFF7BC
:102E700027FA1BF035FA5749024638A8FFF720FA1F
:102E800010994FF4000338AA086800930144524B8C
:102E90005BA80195CDE9024434F03EFC5BA834F018
:102EA0008BFC28B14D4824F05BFF204612F0F6F968
:102EB0005B9B1A689A1A1188082940F2EE841289DD
:102EC0009918002A00F0E9849A588B188A5832B968
:102ED000434B40F20111434A434823F02DFC191D96
:102EE0005B68CA18CB58D31A1988062940F2D584D2
:102EF000DB88D118002B00F0D084D358CB58012B9D
:102F000005D03A4824F02CFF002012F0C7F9002128
:102F1000022014F083FA00215BA8DFF8EC8034F083
:102F2000A7FB8368324FD9689C68069000203960FF
:102F3000C8F800404C4318F07FFD06460C2022F0F4
:102F4000CFFC30AA06FB04F105462A4CFFF74CF9EA
:102F5000D8F8002039682848256024F001FF23684C
:102F60000C20264ED3E90031C91A079122F0B8FC93
:102F700030AA07990446FFF737F9214B00215BA8D7
:102F80001C60002434F094FB002105461D4824F009
:102F9000E7FEAB681A68A24238DD03EB84033046D3
:102FA0000134596824F0DCFEF3E700BFA6CA020032
:102FB00015C7020090BE002098BE002000800020AF
:102FC0004F23000030C7020024AD252068CA02004C
:102FD00057C7020094CA02000000008174C70200B3
:102FE00096C70200A1C702009BC80200E1C8020008
:102FF00040BE00200CBF002010C9020038C90200EA
:1030000008BF002027C9020038BE0020BC484FF08E
:10301000000824F0A5FE069BBA4E0021DB685BA8E1
:10302000B94C3360069BB94D1B69236034F040FBFB
:10303000C36800215BA82B6034F03AFBB44A0369F3
:10304000D6ED006A1360049395ED007AB148B7EEAF
:10305000C77A9FEDA99B8DED027BB7EEE67A2368D8
:10306000009353EC172B24F07BFEAB4824F078FE42
:1030700011F084FC00210990022014F0CFF9A74B35
:103080004FF0FF31186810F045FD012840F0A58190
:103090002022002128A8A24E23F060FFA14BDFF8D8
:1030A000BCA21F68A04B1D6833681C689AF80030EA
:1030B000BFF35B8F13F0010B12D1504622F001FCDD
:1030C00070B1DFF874925046984B89F854BFC9F834
:1030D000003022F002FC964A9649484622F0E6FB70
:1030E00003232E9428AC2C9530ADCDE92A3701234B
:1030F00030AF8DF8BC300FCC0FC594E80F0085E8D9
:103100000F0000232020CDE92233249322F0E8FB96
:1031100000F1200C04462290CDF890C0CDF88CC070
:103120000FCF0FC495E80F0084E80F0022A9824852
:1031300019F02EF90446229808B122F0BCFB2CB9F4
:103140007E4824F00DFE099B089391E70121084673
:1031500014F064F93368D3E90012069B521A5868D8
:1031600023F0D4FE0021012014F058F95BA834F0BC
:103170007BFA10B1724824F0F3FD7248002424F069
:10318000EFFD00215BA834F093FA0F229FED6E0A49
:103190005BA930A81E94CDE91344CDE91544CDE9CF
:1031A0001744CDE91C4434F0AFFA3294DDE93073B2
:1031B000CDE930440793B8F1000F02D0404622F029
:1031C0007AFB309808B122F076FB0021022014F03F
:1031D00025F9079B9F4200F0FD804FF0000BB84699
:1031E0005C465D46D8ED007A0DF1D80AD8F8143067
:1031F000D8F80800F8EEE77AD8F81020D8F80C10C4
:10320000D8F804C0359300233290182034922493C8
:10321000CDED307ACDF8C4C03391CDE9223322F020
:103220005FFB30AB00F118060246229024969C46C4
:103230000832BCE80300D44542F8080C42F8041CEC
:103240006346F4D1A34523964AD020460C3422A9E4
:10325000FFF704FC22A808F11808FEF7BDFF079B42
:103260009845BFD12E4BB8461B68D3E90012374BA7
:10327000521A1B68186823F049FE002327481A4693
:103280001946006810F036F91CA8FEF7A5FF16A82D
:10329000FEF7A2FF13A8FEF79FFFA54200F0A4804F
:1032A000661B2B4A21462846B3105A434FF00003B1
:1032B000B2FA82F2C2F11F025200FFF7EDFCC02EFB
:1032C00040F38E8005F1C00628463146FFF7A4FC86
:1032D000A64200F0898030460C36FFF77DFCF7E708
:1032E000ABEB050B1A4E4FEAAB035E43194B9E4204
:1032F00036D1194822F0C2FB9A9999999999C93FF8
:10330000D71A0300F8BE002000BF0020FCBE00203A
:1033100004BF00203CC902005BC902007CBE002043
:103320000CBF002038BE002040BE0020541E030009
:103330000080002085180000E0AE002070C9020067
:103340009DC90200B7C902009A99193F08BF002021
:10335000ABAAAAAAAAAAAA0A0AC20200DCAE002044
:10336000012E324638BF0122B61880F0948246B151
:103370009E4228BF1E460C20704322F0B1FA8246BE
:1033800000E0B2460AEB0B00A946D34622A9FFF79C
:1033900065FBA1450BD049465846FFF75FFB484601
:1033A0000BF10C0B09F10C09FEF716FFF1E7641B9A
:1033B000764BA4085C430C2324F040449B4604FB5A
:1033C0000334544415B1284622F075FA0BFB06ABC2
:1033D00055463FE70024254644E7002425465CE7A0
:1033E00021462846FFF718FC0023DFF8CC91621B2A
:1033F000921009FB02F29A42079255D903F1010A91
:103400000C27D3465F43621B921009FB02F29345DF
:103410003CD2EA59116828915168299191682A9102
:10342000D1682B9111692C910C21526901FB0BF190
:103430002D926A18695808683090486831908868F9
:103440003290C86833900869349028A8496935914A
:1034500030A9FEF70BFEB7EEC00AB4EEC90BF1EED1
:1034600010FA1EDD02F10C06A64211D0A61BB61002
:1034700009FB06F6002E02F10C0109DD104607914A
:10348000FFF705FB0799013E0A46F3E75346AEE70F
:103490000C3C0BF1FF3B2046FEF79EFE3C4824F01F
:1034A0005FFC0BF1010BAEE7DDE9082339492F463C
:1034B000981A394B10224FF00009009022A8FEF70D
:1034C00037FE364A002122A822F0B2FD014628A884
:1034D0000DF15C0A22F052FC314928A822F0E4FDEB
:1034E000014630A822F04AFC30A92E4822F066FCA2
:1034F00030A822F0A9FB28A822F0A6FB22A822F0DF
:10350000A3FB294B102223491B7822A80093274BA9
:10351000FEF70EFE264A002122A822F089FD014670
:1035200028A822F02BFC1E4928A822F0BDFD014648
:1035300030A822F023FC30A91A4822F0B1FD30A8AF
:1035400022F082FB28A822F07FFB22A822F07CFB3D
:103550001849144822F0BEFD16A8FEF78DFF079B00
:10356000994500F051813B68564693ED008ABDEEC7
:10357000C88A18EE103A03F1010B189BF3B11A69CF
:103580009345D6BF1E46DB689B68F7E7ABAAAA2A1D
:10359000C7C90200ED950200CEC90200D2C90200DF
:1035A00006CA0200E0BE002078BE002024C9020046
:1035B000DDC90200F2C90200ABAAAAAA564502D090
:1035C00033699B452DDA2C20089622F089F900F109
:1035D0001C03C0F810B0064643610023089A00F1AE
:1035E000140B836116A9037700F110030EA8FEF7F0
:1035F000FBFEDDE90E32002A00F0FC80002B40F0DB
:10360000F780524500F0F480306913699842ACBFEE
:10361000002001205346314622F0CEF91B9B013396
:103620001B9306F114011CA822F07CFD9C4B102278
:103630009C4928A88DED008AFEF77AFD9A4A002160
:1036400028A822F0F5FC014630A822F097FB30A90B
:10365000964822F025FD30A822F0F6FA28A822F09C
:10366000F3FA9349914822F035FD3B6822A893ED87
:10367000010AFEF793FD8F4A002122A822F0D8FC10
:10368000014628A822F07AFB8B4928A822F00CFDDD
:10369000014630A822F072FB30A9844822F000FDD8
:1036A00030A822F0D1FA28A822F0CEFA22A822F0DF
:1036B000CBFA3B6822A893ED030AFEF76FFD7F4A21
:1036C000002122A822F0B4FC014628A822F056FBD3
:1036D000794928A822F0E8FC014630A822F04EFBE8
:1036E00030A9724822F0DCFC30A822F0ADFA28A8FC
:1036F00022F0AAFA22A822F0A7FA3B6822A893EDAA
:10370000020AFEF74BFD6E4A002122A822F090FC2F
:10371000014628A822F032FB674928A822F0C4FC01
:10372000014630A822F02AFB30A9604822F0B8FCFC
:1037300030A822F089FA28A822F086FA22A822F0DE
:1037400083FA3B6822A893ED050AFEF727FD5D4A40
:10375000002122A822F06CFC014628A822F00EFBD2
:10376000554928A822F0A0FC014630A822F006FB0B
:1037700030A94E4822F094FC30A822F065FA28A81F
:1037800022F062FA22A822F05FFA3B6822A893EDA9
:10379000040AFEF703FD4C4A002122A822F048FC4F
:1037A000014628A822F0EAFA484928A822F07CFC21
:1037B000014630A822F0E2FA30A93C4822F070FC21
:1037C00030A822F041FA28A822F03EFA22A822F0DE
:1037D0003BFA079B013B4B4503D03749334822F066
:1037E00079FC1CA809F101090C3722F02DFAB6E684
:1037F00001200FE75846089322F026FA304622F0BF
:103800005AF8089B1E460CE7284E4FF00009304935
:10381000304622F05FFC2F4B83F800902E4B1A6845
:1038200073689A420ED22D482E4624F099FA1899C0
:1038300016A8FEF79EFDA64226D030460C36FEF7AF
:10384000CBFCF8E7264F4FF0FF31386810F062F9F3
:1038500001280AD1234B3168186824F019FC4B4623
:103860004A46494638680FF045FE01202E4611F0C1
:10387000A5F9189916A8FEF77CFDA64204D030469B
:103880000C36FEF7A9FCF8E7002D3FF45CAC2846A7
:1038900022F011F857E41E466DE500231B68FFDE99
:1038A00024C90200ED950200FDC90200E0BE00201F
:1038B00005CA020008CA020006CA020011CA0200B4
:1038C00019CA020021CA020029CA020032CA020033
:1038D00031CA020078BE00200480002034CA0200F1
:1038E00074BE00203CBE002013B5064C01AA064958
:1038F0002046FEF70DF8054A0549204621F0D6FF7F
:1039000002B010BDE0BE0020D91A030000800020E4
:10391000B15D020008B121F0CEBF704703681944C1
:1039200001607047531A0F2B73B504460D461646B7
:10393000019306D9002201A922F064F9019B2060BD
:10394000A36032462946206822F0D7F9019B2268FD
:1039500000216360D15402B070BD10B5044610461A
:10396000D4E900236FF000449B1AE21A8A4201D284
:1039700022F084F8994238BF1946C91805D20029A7
:10398000ACBF08466FF0004010BD2046FCE7091AA6
:1039900008B5531A29B10A460146184623F0C4FA5D
:1039A0000346184608BD10B50C1A134605D001464B
:1039B0002246184623F0B8FA0346181910BD000035
:1039C0002DE9F743154607460C461A46AB427DD013
:1039D0005E1BD0E90183A3EB0803B34246D3A8EBF7
:1039E00001094E4518D2A8EB060942464146013D61
:1039F0004846FFF7D8FF7B68424649463344264491
:103A000020467B60FFF7C3FF331B002B5EDD15F8FC
:103A1000013F04F8013BF7E7494601A80195FFF78C
:103A20007DFF019B7968D21A013B0A44501A002895
:103A300004DD13F8010F01F8010BF7E77A68A6EB34
:103A400009064146204632447A60FFF7ACFF7B68A6
:103A50004B447B60019B5B1B013D23441A1B002AE6
:103A600034DD15F8012F04F8012BF7E7194A314628
:103A7000FFF773FFB0F1000915D001DA21F0F8FF6C
:103A800021F02EFF8046214642463868013DFFF76F
:103A90008AFF03468119CA1A002A06DD15F8012F8C
:103AA00003F8012BF7E7C846EDE7002EACBF8219FB
:103AB000021C79682046FFF776FF04463868FFF756
:103AC00029FF08EB0900C7E90084B86003B0BDE82E
:103AD000F08300BFDDCA02002DE980480622AFB0A6
:103AE0000121022033F064FE00241025022200236D
:103AF0002146009507460B940A94CDE9082308ABAC
:103B000041F2060233F03CFE2A4621460CA823F07F
:103B100025FA02232A460CA98DF8313046F67A138D
:103B20003846ADF8323033F0AFFD0121384633F07E
:103B30002BFE00223846A24D114633F0CDFD28AAB7
:103B4000A049824610A80794CDE90544FDF7E0FEA0
:103B500028AA9D4916A8FDF7DBFE28AA9B491CA8A8
:103B6000FDF7D6FE4FF0FF3128680FF0D3FF012894
:103B700040F07A81964B974A186805AB96490093B6
:103B80001E2312680968006815F0DEFB0023286810
:103B90001A461946914D0FF0ADFC24AB4FF0FF31A2
:103BA00028688DF89040CDE922340FF0B3FF01284A
:103BB0000AD18B4B22A8196822F013FA0023286837
:103BC0001A4619460FF096FCDDE905329A4200F0DC
:103BD000488110992AAD119A4FF0000328A8289522
:103BE0000A44FFF79FFE28997E4824F0B9F828A8D8
:103BF00022F02AF822997C4824F0B2F81C991D9AE8
:103C00004FF0000328A828950A44FFF78BFE289957
:103C1000764824F0A5F828A822F016F8119B179DE5
:103C20002A941D44239B1D441D9B1D44DDE905234F
:103C3000CDE928449B1A1D44002D02DA6C4821F07E
:103C40001DFF13D0284621F04BFE0646DDE9281261
:103C5000521A002A03DD039123F066F903993544D3
:103C60000846FFF757FE2A95CDE928664FF0000376
:103C7000169A299928A88DF80030179B1344FFF74E
:103C80009FFEDDF8A490DDE905B55D4512D02A9BC5
:103C9000A5EB0B05A3EB09039D4235D82A465946EF
:103CA000484623F041F9299A494648462A44299230
:103CB000FFF779FE4FF00003109A299928A88DF894
:103CC0000030119B1344FFF77BFE299EDDE922584B
:103CD00005EB0809A94500F0A2802A9B9B1B98458B
:103CE0004ED8002104A80495FFF718FE049A2999DC
:103CF000A9EB0203013A0B44581A00282DDD12F8F3
:103D0000010F01F8010BF7E73A4A294628A8FFF707
:103D100024FEB0F100081ED001DA21F0A9FE21F046
:103D2000DFFD0646324649462898FFF73CFE2A4604
:103D30005946039023F0F8F8039B299948465A19ED
:103D4000FFF731FE05462898FFF7E4FDCDE9286529
:103D500046442A96AEE74646E4E7299A314630467D
:103D600042442992FFF71FFE049B5B1B013D334435
:103D70009A1B002A53DD15F8012F06F8012BF7E7EF
:103D80001C4A414628A8FFF7E8FDB0F1000914D00D
:103D9000C3DB21F0A5FD834631465A462898013DF4
:103DA000FFF701FE034600EB0801CA1A002A23DDD3
:103DB00015F8012F03F8012BF7E7CB46ECE700BF1E
:103DC0007CBE0020F5CA020004CB020017CB020023
:103DD00008BF002038BE002040BE002074BE002076
:103DE0003CBE002028CB020038CB02004ACB0200A8
:103DF00054CB0200DDCA0200B8F1000FACBF00EBEB
:103E00000802021C29993046FFF7CDFD0546289887
:103E1000FFF780FD0BEB0900CDE928B52A904FF0A4
:103E200000031C9A299928A88DF800301D9B134483
:103E3000FFF7C6FD2899299A00235046521A33F0FD
:103E400053FC054601461248DDE92832D21A23F018
:103E500087FF002D02DA0F4823F07AFF2898FFF73A
:103E600059FD22A821F0F0FE504633F011FC01204C
:103E700010F0A4FE1CA821F0E7FE16A821F0E4FE35
:103E800010A821F0E1FE0598FFF744FD4DE600BFC4
:103E900064CB02007DCB020013B5019012F01AFB37
:103EA000044618B1019A002123F058F8204602B0C8
:103EB00010BD12F011BBEFF305835BB1EFF311837B
:103EC0004FF0200282F31188BFF36F8FBFF34F8F43
:103ED000036070470EF0AEBFEFF3058313B180F3BC
:103EE000118870470EF0D4BF4FF47A73584300F234
:103EF000E730B0FBF3F010F061BE000010B50446EF
:103F000030B9084B4FF4B871074A084822F014FC46
:103F1000FF200FF0BBFA10B12060002010BD43F26B
:103F2000DD70FBE7F1CB020055CC02009CCB020018
:103F300008B530B90B4B40F2A1110B4A0B4822F0E7
:103F4000FBFB4B1C00681EBF4FF47A735943B1FB57
:103F5000F3F10FF0DFFD002843F2DE7018BF002000
:103F600008BD00BFF1CB020069CC02009CCB02006F
:103F700013B530B9154B40F2C311154A154822F05C
:103F8000DBFB0068EFF30583B3B1002401A90194C2
:103F90000FF076FC01280CD1019840B10E4B4FF088
:103FA00080521A60BFF34F8FBFF36F8F204602B06D
:103FB00010BD43F2DD70FAE71A4619460FF09AFA7F
:103FC000012843F2DD7008BF0020F0E7F1CB0200CA
:103FD0007BCC02009CCB020004ED00E010B504464F
:103FE00030B9084B40F2ED11074A084822F0A4FB13
:103FF00004200FF09BFB10B12060002010BD43F2A5
:10400000DD70FBE709CC02008DCC02009CCB0200E6
:1040100008B530B90B4B40F20A210B4A0B4822F08D
:104020008BFB4B1C00681EBF4FF47A735943B1FBE6
:10403000F3F10FF05DFE002843F2DE7018BF0020A0
:1040400008BD00BF09CC02009DCC02009CCB020041
:1040500008B530B9074B40F22A21074A074822F039
:104060006BFB00680FF038FB002843F2DD7018BFCF
:10407000002008BD09CC0200ABCC02009CCB0200A2
:1040800008B530B9054B4FF41071054A054822F0C8
:1040900053FB00680FF01EFF002008BD09CC020092
:1040A000BBCC02009CCB020038B50D46044630B9AB
:1040B000084B4FF41471084A084822F03DFB0EF0FB
:1040C000B5FC206010B10020257138BD43F2DD70D1
:1040D000FBE700BF1DCC0200CCCC02009CCB020051
:1040E00037B50025019530B9144B40F26A21144AC6
:1040F000144822F021FB0068E8B1EFF30584B4B165
:1041000001AA0EF0DDFD012804D00F4B4FF41E7103
:104110000B4AEDE7019840B10C4B4FF080521A600A
:10412000BFF34F8FBFF36F8F284603B030BD0EF043
:104130003DFD2046F9E743F2DD70F6E71DCC0200B5
:10414000DCCC02009CCB020031CC020004ED00E08C
:1041500073B5069D30B9114B40F2E121104A114868
:1041600022F0EAFA066821F07F449EB101793046D8
:10417000009313460A1E214618BF01220EF064FC6C
:10418000204005B12860002843F2DE7018BF0020EF
:1041900002B070BD43F2DD70FAE700BF1DCC020033
:1041A000E9CC02009CCB020008B530B9074B40F2C5
:1041B0001731074A074822F0BFFA006818B10EF01D
:1041C00051FD002008BD43F2DD70FBE71DCC02006D
:1041D000F7CC02009CCB020010B5044608461146FD
:1041E00034B9084B40F22D31074A084822F0A4FAAE
:1041F00000220FF0FFF810B12060002010BD43F244
:10420000DD70FBE742CC020008CD02009CCB02002F
:1042100013B530B9144B40F24931144A144822F016
:104220008BFA002400680194EFF305839BB12346C9
:1042300001AA0FF08DFA012812D1019B13B90020B9
:1042400002B010BD0B4B4FF080521A60BFF34F8F7E
:10425000BFF36F8FF3E71A460FF04CF90128EED049
:1042600043F2DD70ECE700BF42CC020017CD020044
:104270009CCB020004ED00E008B530B90B4B40F2D6
:1042800071310B4A0B4822F057FA531C00681EBFCD
:104290004FF47A735A43B2FBF3F20FF07BFB012821
:1042A00043F2DE7008BF002008BD00BF42CC020010
:1042B00023CD02009CCB020008B530B9054B40F27B
:1042C000A131054A054822F037FA00680FF002FED6
:1042D000002008BD42CC02002FCD02009CCB020082
:1042E00007B5186C01A99A630FF0CAFA019B3BB19C
:1042F000054B4FF080521A60BFF34F8FBFF36F8FA3
:1043000003B05DF804FB00BF04ED00E02DE9F041CF
:104310000D4616461F46044630B329B344220021F9
:1043200022F01CFE04200FF001FAE06348B10322E2
:10433000002101200FF05EF8206420B9E06B0FF03F
:10434000C9FD01200EE0A0463A463146284648F80D
:10435000045B06F047FB28462346044A414606F024
:10436000C7FB0020BDE8F0810420FBE7E14200002C
:104370004FF0FF31C06B0FF0BBBCC06B0FF0ACB99E
:1043800037B504460191FFF7F3FF012813D1019AD5
:10439000211D206806F0E8FB054628B12046FFF7FE
:1043A000ECFF284603B030BD4FF0FF31206C0FF01A
:1043B000B1FBA56BF2E74FF46175F2E70123024A06
:1043C0001370024A9360704714BF002000000F4032
:1043D000FFF7F4BF2DE9F8432C4B1C68844228BF3B
:1043E000044604B32A4E2B4D3368DFF8B49023F013
:1043F0000103D9F8008033602B6823F001032B60A0
:1044000072B6BFF34F8FBFF36F8F11F0A3F9224F36
:1044100058B9AB686B602B6843F001032B603B68B5
:10442000013B6B6062B6BDE8F883013C08FB04F316
:104430003361336843F001033360BFF34F8F30BF04
:10444000BFF36F8F154B00221A7062B600BF197848
:10445000B1B11A700E4A0F4D136823F001031360B7
:104460000EF0E8FC2B68204643F001032B6010F0AF
:10447000D9FD3B68013B6B60BDE8F8430EF008BD19
:10448000746AD9F80000B4FBF0F4E3E71CBF002025
:1044900000000F4010E000E018BF002014BF002013
:1044A00010BF00200C4B64221A6002220B4B1A60D2
:1044B0006FF000420A4B1A600A4B4FF08072DA60CC
:1044C000002243F8F02C43F8E82C632243F8EC2C4C
:1044D000032243F8F02C704718BF002010BF0020C3
:1044E0001CBF002000E100E00B1E10DD00F01F01EA
:1044F0001944BFF34F8F064A0144C2F85C022030D2
:104500000B1A002BF9DCBFF34F8FBFF36F8F70478F
:1045100000ED00E00B1E10DD00F01F011944BFF399
:104520004F8F064A0144C2F8680220300B1A002B54
:10453000F9DCBFF34F8FBFF36F8F704700ED00E0E2
:104540000B1E10DD00F01F011944BFF34F8F064A08
:104550000144C2F8700220300B1A002BF9DCBFF3C3
:104560004F8FBFF36F8F704700ED00E03C4A08B5F6
:10457000D2F8883043F47003C2F88830394A13887F
:10458000580705D5138823F004031B041B0C138064
:10459000354A1388590705D5138823F004031B04F3
:1045A0001B0C1380314B1A6892044CD5304A5A6068
:1045B0004FF6FF729A601A6822F0A00242F02002C1
:1045C0001A602C4B1A68900443D5294A5A604FF65A
:1045D000FF729A601A6822F0A00242F020021A606C
:1045E000254B1A68D10703D51A6822F001021A6018
:1045F0001B4B5A69920315D45A6912F4003211D137
:10460000BFF34F8FBFF36F8FC3F85022BFF34F8FAD
:10461000BFF36F8F5A6942F400325A61BFF34F8F74
:10462000BFF36F8F154A136F23F4005313670C4ABF
:10463000536943F010035361BFF34F8FBFF36F8F84
:1046400000F04AF808BD4CF220525A604DF628128C
:10465000ADE74CF220525A604DF62812B6E700BF83
:1046600000ED00E0000003400040034000800340F4
:1046700020C528D90000C14010E000E000400E40F5
:1046800010B5C4010E4A04F1814402EBC00004F5E8
:1046900098042368C3F30223C05C04F0BDFB2368C5
:1046A0000246DBB201339A42B0FBF3F006D2054B6F
:1046B00040F6C501044A054822F03EF810BD00BF8F
:1046C000C7CD02003FCD0200B0CD020044CD0200B4
:1046D00000487047E0BF002008B511F05FFF08BD3B
:1046E00010B592B00420FFF7CBFF1422044600213E
:1046F00001A822F033FC3022002106A822F02EFC73
:1047000001A807F047FB012301A919488DF80430DF
:1047100007F068FB04234FF0004216498DF818306B
:104720004FF480331248CDE9072303F10133124AD5
:1047300003F102230993114BB2FBF4F2CDE90A1302
:104740001E2300218DF83030A023534306AA0D9379
:1047500041F68463CDE90F3340F20123ADF84430D4
:10476000234607F0FDFBB0FA80F0400912B010BDFF
:1047700000400D401212780F00CA9A3B2A2A463C8C
:104780007FB5684603F086FC074B694607480093EF
:10479000074B0193074B0293074B039303F0C0FDB4
:1047A00007B05DF804FB00BF20BF002000004440BC
:1047B00050BF002080BF0020B0BF002010B5E4B083
:1047C0004FF49E72002115AC204622F0C7FB142046
:1047D000FFF756FF4FF4003330212060A36002231F
:1047E000009402A8E38140F2033323820C23E37494
:1047F0004FF40063C4E909334023E3622023C4E992
:104800000D13074C019405F0BFFB02A9204605F0EB
:1048100001FB0449684602F06FFA64B010BD00BFA6
:1048200000C00C40E0BF002038B5044611F0C6FEC1
:1048300002F0DEF800F056FB01F0A8FD0CB101F02B
:1048400099FDFFF74DFF10B90B4823F089FA0B4D86
:104850000B4C0C480C4A641B0C49121A22F056FBF4
:1048600022460021284622F079FBFFF789FFBDE8A8
:104870003840FFF7A3BF00BF92CD020000000081C7
:1048800040688681000000810000008194A403003C
:104890004B78C0018A781B02013A03F4E063D2B27C
:1048A00013430A78002A0CBF00224FF08072134392
:1048B000034A1350BFF34F8FBFF36F8F704700BF92
:1048C0000000CC402DE9F743EC4C00232046ADF826
:1048D00004308DF8063004F0DBFEE94BE94AD3F8EA
:1048E00000199142224640F0D882D3F81039DBB249
:1048F0000B2B40F0D282636923F00053636163683D
:1049000023F4F85343F4B0536360A368002BFCDA3C
:10491000DB4BDD4ED3F87038DB48DA06C3F3001109
:104920004ABF00220122114606F024FF0121304631
:1049300006F09EFE0121304606F0E0FE022004F063
:1049400011FAD6F8C03043F00203C6F8C03004F0C4
:10495000EDFA336D43F002033365336943F002032C
:104960003361336943F080733361336A43F010037A
:104970003362336A5B00FCD50024012501A90227BC
:1049800020468DF805408DF80650FFF781FF01A9FC
:1049900008208DF805404FF006088DF80650FFF707
:1049A00077FFBA484FF0180903F0B8FEB84804F092
:1049B0007FF9B84803F028FF21461B22022003F0AC
:1049C000B5FF13222946022003F0B0FF022118226E
:1049D000084603F0ABFF20220321022003F0A6FFCC
:1049E00004F050F821460D22032003F09FFF11220E
:1049F0002946032003F09AFF20220221032003F01E
:104A000095FF03211622084603F090FFD6F81032D6
:104A1000A14823F00803C6F81032042604F0C6F8B3
:104A20002946052004F07EF804F01CF920460DEB21
:104A300006018DF805608DF80650FFF729FF0DEB94
:104A4000060138468DF805608DF80670FFF720FFE7
:104A500003230DEB060130468DF805808DF80630F6
:104A6000FFF716FF0DEB060105208DF805408DF8C8
:104A70000650FFF70DFF07230DEB060140468DF8AA
:104A800006608DF80530FFF703FFF0230DEB0601FC
:104A900008208DF805408DF80630FFF7F9FE0DEB84
:104AA00006010E208DF805408DF80650FFF7F0FE48
:104AB0000DEB06010F208DF805408DF80690FFF7ED
:104AC000E7FE0DEB060110208DF805408DF80690ED
:104AD000FFF7DEFE0DEB060111208DF805408DF885
:104AE0000650FFF7D5FE0DEB060112208DF80540AC
:104AF0008DF80650FFF7CCFE0DEB060113208DF864
:104B000005408DF80650FFF7C3FE0DEB0601192096
:104B10008DF805408DF80650FFF7BAFE0DEB060143
:104B20001A208DF805408DF80650FFF7B1FE0DEB09
:104B300006011B208DF805408DF80650FFF7A8FEF2
:104B40000DEB06011C208DF805408DF80650FFF78F
:104B50009FFE0DEB06011D208DF805408DF80650D7
:104B6000FFF796FE0DEB06011E208DF805408DF82F
:104B70000650FFF78DFE0DEB06011F208DF8054056
:104B80008DF80650FFF784FE0DEB060120208DF80E
:104B900005408DF80650FFF77BFE0DEB0601212046
:104BA0008DF805408DF80650FFF772FE0DEB0601FB
:104BB00022208DF805408DF80650FFF769FE0DEBB9
:104BC000060123208DF805408DF80650FFF760FEA2
:104BD0000DEB060124208DF805408DF80650FFF7F7
:104BE00057FE0DEB060125208DF805408DF8065087
:104BF000FFF74EFE0DEB060126208DF805408DF8DF
:104C00000650FFF745FE0DEB060127208DF8054005
:104C10008DF80650FFF73CFE0DEB060128208DF8BD
:104C200005408DF80650FFF733FE0DEB06012920F5
:104C30008DF805408DF80650FFF72AFE0DEB0601B2
:104C40002A208DF805408DF80650FFF721FE0DEB68
:104C500006012B208DF805408DF80650FFF718FE51
:104C60000DEB06012C208DF805408DF80650FFF75E
:104C70000FFE0DEB06012D2010E000BF0080CA40A2
:104C800000C0CA406959AC570040C84058D0020023
:104C9000ECD20200F8D2020060D002008DF805408C
:104CA0008DF80650FFF7F4FD0DEB06012E208DF870
:104CB00005408DF80650FFF7EBFD0DEB06012F20A8
:104CC0008DF805408DF80650FFF7E2FD0DEB06016B
:104CD00030208DF805408DF80650FFF7D9FD0DEB1B
:104CE000060134208DF805608DF80660FFF7D0FDD1
:104CF0000DEB060135208DF805408DF80650FFF7C5
:104D0000C7FD0DEB060136208DF805408DF80650E5
:104D1000FFF7BEFD0DEB060137208DF805408DF83D
:104D20000650FFF7B5FD0DEB060138208DF8054064
:104D30008DF80650FFF7ACFD0DEB060139208DF81C
:104D400005408DF80650FFF7A3FD0DEB06013A2054
:104D50008DF805408DF80650FFF79AFD0DEB060122
:104D60003D208DF805408DF80650FFF791FD0DEBC5
:104D700006013E208DF805808DF80670FFF788FD4E
:104D80000DEB060140208DF805408DF80650FFF729
:104D90007FFD0DEB060141208DF805408DF8065092
:104DA000FFF776FD0DEB060142208DF805408DF8EA
:104DB0000650FFF76DFD0DEB060143208DF8054011
:104DC0008DF80650FFF764FD0DEB06014C208DF8C1
:104DD00005408DF80650FFF75BFD3A4B3A4C1A68D8
:104DE00022F007021A601A6822F0380242EA090229
:104DF0001A601A6822F0C0021A605A6822F0030290
:104E00005A609A6822F003029A60DA6822F49F627C
:104E100022F00702DA601A6922F002021A615A6966
:104E200022F0050232435A615A6922F002025A61A5
:104E30009A6922F002029A619A6922F001029A614B
:104E40009A6D22F001029A65DA6D22F00102DA65AC
:104E50001A6E22F001021A665A6E22F001025A6698
:104E60009A6E22F001029A66DA6E22F00102DA6688
:104E70002368164AC3F30223D05C03F0CDFF2368F6
:104E8000DBB22B449842B0FBF3F215D2104B40F644
:104E9000C501104A104821F04FFC536923F000531C
:104EA0005361536823F4F85343F4A85353600B4AF7
:104EB0009368002BFCDA2BE5094B1A6003B0BDE8C0
:104EC000F08300BF00400E400000CC4074D00200D0
:104ED0003FCD02003FD0020044CD02000080CA4016
:104EE00008800020FFF7EEBC104642B10023137388
:104EF000536833B11B6823B10A46022118470320C7
:104F0000704701207047104642B100235373536825
:104F100033B11B6823B10A460121184703207047AB
:104F2000012070472DE9F043044687B018B90120ED
:104F300007B0BDE8F083837B002BF8D0426892680D
:104F400051799942F3D303F1005312680C2740F6CC
:104F5000024C013B02EBC30612F8335000239D4282
:104F6000E5D907FB03F270688118825A62453BD18C
:104F70000D7A00239D422DD80026CB782374002E75
:104F8000D5D000250120DFF870802F46DFF86C9027
:104F9000A6603379AB42CBD90623B2688DF808708E
:104FA0006B43D118D25C8DF80620D2094B88ADF83E
:104FB00004304B788DF8073018D0022B02D12773BC
:104FC000CDF80C9003AA01A920680135049408F0DB
:104FD00021F9DEE71A01486800EB0316805CE27BEA
:104FE0009042CAD00133C5E70133B8E7022B04BFB2
:104FF0006773CDF80C80E5E7074F0000E94E00002D
:10500000836870B5044693B1002501200626A36885
:105010001A79954202D30023A36070BD9A6806FBFB
:1050200005F320680135D15C08F013F9EFE70120A2
:10503000F3E7000070B50A4C0E46154623685BB9CD
:10504000214601F00FFD30B923683BB14FF47F4397
:105050006660E3812C6070BD0220FCE70320FAE764
:105060000000002010B5044630B1FFF7C9FF00234F
:10507000C4E90033E38110BD0320FCE77FB504469B
:105080001546002A60D000285ED0CBB2013B032B2E
:1050900054D8DFE803F01E02064000238373012486
:1050A00014E04368002BFAD02A78837B9A42F6D02A
:1050B000FFF7A6FF2B782046A3730023E373FFF7C7
:1050C00031FF044610B1214807F010FE204604B01D
:1050D00070BD2B68227C197998889142DFD12E1DF2
:1050E000ADF808005888009605F10806ADF80A00EA
:1050F000287B01968DF80C005B78222B07D1636822
:105100006A460B2120461B6898470446DEE7104894
:1051100007F0ECFDC3E74368002BC0D02D88037C6B
:10512000B3EB152FBBD1EDB2C37BAB42B7D0FFF7CA
:1051300067FF2046E573FFF7F5FEE6E70A460548F8
:10514000054907F0D3FDAAE70324BFE704D3020013
:105150001ED3020050D3020063D3020038B50446C8
:1051600048B1057B4DB901202073206808F03EF856
:1051700000B1257338BD0320FCE70220FAE738B5FB
:10518000044648B1457B4DB901206073206808F0A2
:1051900033F800B1657338BD0320FCE70220FAE75D
:1051A0002DE9F04390F8943087B004461BB90120F4
:1051B00007B0BDE8F0834268926851799942F6D30E
:1051C0001268002AF3D003F100530C27013B02EBD5
:1051D000C30612F8335000239D42E8D907FB03F2BF
:1051E00070688118825C082A2CD10D7A00239D42B8
:1051F0001DD80027CB7884F89530002FD7D0002613
:105200000120DFF88C803546DFF88890A7603B7975
:10521000B34219D80123E560C4F88450C4F888303B
:1052200084F88C5084F88F5084F89650C0E71A01A7
:10523000486800EB0317805C94F893209042D9D023
:105240000133D4E70133C7E70623B9688DF8085066
:1052500073430136CA1810798DF80900CB5C2068B9
:105260008DF806305188ADF8041001A952780494E5
:105270008DF80720DA0903AA15BF84F8913084F865
:105280009230CDF80C90CDF80C8007F0C3FFBEE74C
:10529000A5580000E9560000836870B5044693B134
:1052A000002501200626A3681A79954202D300231F
:1052B000A36070BD9A6806FB05F320680135D15CD8
:1052C00007F0C7FFEFE70120F3E70000F8B5214C36
:1052D0000F4616462568002D3AD104F19803214661
:1052E000A36104F1B803E36104F1C803236204F18C
:1052F000DC03E36304F1E403236404F1F0032365B6
:1053000001F0B0FB30B184F8945084F89350C4E9B4
:105310000055F8BD236833B9606084F8940084F8C0
:1053200093000320F5E7FF23702284F8940084F8AB
:105330009330236A606167601A700A229870DA718C
:105340001873587384F88D0084F88E003460E0E799
:105350000220DEE71400002010B5044648B1FFF734
:105360009BFF0023C4E9003384F8943084F8933021
:1053700010BD0320FCE7F0B504468FB01646002AA6
:1053800000F06F81002800F06C81C9B20139052955
:1053900000F26B81DFE811F0340106004300670082
:1053A0008C00BC00002301AA052180F894304368DA
:1053B0001B689847019B0546002B00F05481013B78
:1053C00001AE4FF0010C04F1440E84F89030B36844
:1053D0001BB373680BB3331D0EEB0C170FCB87E8B1
:1053E0000F0094F890205FFA8CF39A4205D30CF1E9
:1053F000010C1036BCF1040FE9D1226A702313703E
:105400000A23D371002393701373537384F88D3080
:1054100084F88E3028460FB0F0BD0125E1E74368DF
:10542000002B00F0228190F8943012789A4200F01C
:1054300005810BB1FFF730FF3378204684F89430B4
:10544000002384F89330FFF7ABFE05460028E1D136
:105450001F23A26994F89210206807F0CDFE012363
:1054600084F88D30D6E74368002B00F0FE80168864
:1054700090F89530B3EB162F40F0F780F6B290F825
:105480009330B34200F0DA80FFF706FF2046FFF7C3
:1054900087FE054648B91F23A26994F89210206838
:1054A00007F0AAFE012384F88D3084F89360B1E7F9
:1054B0004368002B00F0D9808368002B00F0D58072
:1054C00090F886307BB9117890F8912001209142B4
:1054D00007D184F8860084F88E302068317807F090
:1054E000EFFE054600E0012594F88730002B91D1AE
:1054F000317894F8922091428CD1012284F88D3039
:10550000206884F88720317807F0DAFE054681E7C5
:105510004368002B00F0A9808368002B00F0A58071
:1055200090F88950012D3FF475AF90F88650012D09
:1055300040D1127890F891309A4209D1002380F836
:10554000863080F88E300068317807F0CAFE054654
:1055500094F88730012B0ED1327894F892309A4229
:1055600009D10023206884F8873084F88D303178A1
:1055700007F0B7FE054694F88F30023B012B29D87F
:1055800094F88A30012B17D1B4F88630002B7FF4C1
:1055900041AF94F88D202068012A94F8921084F885
:1055A0008A3025D184F88D3007F02AFE002384F854
:1055B0008F302FE70125CBE794F88E302068012B40
:1055C00094F891100CD184F8963007F019FE00235E
:1055D00084F88F3094F88A30012B7FF41BAFD3E727
:1055E0000D23E26907F002FE012384F88E30EEE716
:1055F0001F23A26907F000FE012384F88D30D5E750
:1056000013681A7802F01F05012D2ED190F895002D
:10561000197988427FF4FEAE5978FE2903D0FF291C
:105620000ED00525F6E659880029FAD1DB88012B32
:10563000F7D11206F5D59034C6E901450025E9E613
:1056400059880029EDD1DB88002BEAD11306E8D474
:1056500040F20112A4F8885084F88A50A4F88620F9
:10566000ECE70325D6E60425D4E60125D2E630B5DD
:10567000036985B0002504460093836902955A7B2F
:10568000C36800EB02118DF80C20B3F5803F6A4629
:10569000C96D28BF4FF480338B4294BF01930191B1
:1056A000042143681B689847A36922695B7B94F8CF
:1056B000911004EB03135B6D9A4206D22068DDE97A
:1056C000013207F093FD05B030BD0123206884F856
:1056D0008B5084F88630022384F8855084F88F300C
:1056E00007F0EEFD2846EEE77FB54B6814460E4600
:1056F0005A1C2CD194F88530A3B163681D688DB114
:10570000A269D37B03F07F03282B0BD10023096808
:1057100020460291012101930093537B6A468DF844
:105720000C30A84794F89650012D03D00125284647
:1057300004B070BD0023E26994F8911084F89630AB
:105740000D23206807F052FDA4F88E50EFE7E268C1
:1057500094F88B5093429CBFD21AE260012D0CD179
:10576000002394F89110206884F88B3084F88650D8
:1057700084F8853007F0A4FDD9E794F88520BAB9FC
:105780000D2BD3D10B681968264B9942CED1012538
:1057900084F88E201F23A26994F89210206884F860
:1057A000885007F029FD84F88D50C0E701252AE0D4
:1057B00062681568002DB9D001933368029323699C
:1057C0000093A3695A7B8DF80C20DB7B03F07F03E9
:1057D000282B03D16A4601212046A847E368002B05
:1057E000E4D0A36920465A7B736804EB0212926DE1
:1057F000B3FBF2F2236913442361FFF738FFE36838
:105800000546002B93D10023E26994F8911084F8A7
:1058100085300123206884F88E300D2307F0E6FCE4
:1058200085E700BF5553425330B5036985B0002565
:1058300004460093836902955A7BC36800EB02110A
:105840008DF80C20B3F5803F6A46096E28BF4FF4EF
:1058500080338B4294BF01930191032143681B68FD
:105860009847A36922695B7B94F8921004EB0313B9
:105870005B6D9A4206D22068DDE9013207F0BCFC7C
:1058800005B030BD0123206884F88C5084F887303F
:10589000022384F8845084F88F3007F011FD2846E5
:1058A000EEE700007FB514464A680E46531C2CD123
:1058B00094F88430A3B163681D688DB1A269D37B6D
:1058C00003F07F032A2B0BD10023096820460291A5
:1058D000022101930093537B6A468DF80C30A84750
:1058E00094F88D50002D40F0AB81B4F886304BB960
:1058F0001F23A26994F89210206807F07DFC012311
:1059000084F88D30284604B070BDE3689A429CBF8D
:105910009B1AE360A369DB7B03F0BF03152B06D161
:1059200063681B681BB100220B212046984794F83E
:105930008C30012B0CD1002594F89210206884F84B
:10594000873084F88450A4F88C5007F0B9FCD9E76C
:1059500094F88450002D37D0736801933368029314
:1059600023690093A3695A7B8DF80C20626815683F
:10597000CDB1DB7B03F07F032A2B03D16A460221E2
:105980002046A847E5688DB1A36920465A7B736815
:1059900004EB0212926DB3FBF2F22369134423610C
:1059A000FFF742FF0546E368002BABD1002384F8E4
:1059B00084300D23E26994F89110206807F016FCFA
:1059C000012384F88E309DE794F88830002B00F096
:1059D0001E8173681F2B40F01A81A369994A1968C8
:1059E000914240F014815E7B16F0F00F40F00F8181
:1059F000997B11F0E00240F00A8194F890000130A8
:105A0000864280F0048101390F2900F20081E169AA
:105A10008D4884F88D20E260086058688A6048608C
:105A200084F8882093F90C009E680028197B02DB1B
:105A3000321E18BF0122002884F8842008DA3EB103
:105A4000012094F8862084F8850022B1054659E7A4
:105A5000002284F88520DB7B032B04D0226A0020FF
:105A6000907010735073CA092F2B666284F8392026
:105A700050D8112B0CD8032B00F09480042B00F08D
:105A80009D80002B00F09280204600F039FC57E00A
:105A9000123B1D2BF8D801A252F823F03B5B00000B
:105AA000895A0000895A0000CD5B0000895A000025
:105AB000895A0000895A0000895A0000235B0000BF
:105AC000ED5B0000895A0000DD5B0000B55B000063
:105AD000895A0000895A0000895A0000895A00003A
:105AE000D55B0000895A0000C55B0000895A0000A0
:105AF000895A00009D5B0000895A0000335B00005A
:105B0000895A0000895A0000895A0000895A000009
:105B1000E55B00009E2B55D007D8552B56D05A2B4D
:105B2000B2D1204600F054FA0AE0A82B36D0AA2BB6
:105B3000AAD1204600F0FCF902E0204600F0AFF9BF
:105B4000236A05469B7843B1E3691A7B2AB9A269A7
:105B5000D27B032A1CBF01221A73052D0ED194F8A3
:105B60008430012B46D194F887200AB984F88C3010
:105B7000002384F88430022384F88F3094F8843032
:105B8000002B7FF4BFAE94F88530002B7FF4BAAEC3
:105B900094F88B30002B7FF4B5AE0AE7204600F076
:105BA000A2F9CDE7204600F059F9C9E7204600F0F8
:105BB000E4F9C5E7204600F03CFBC1E7204600F0D1
:105BC00019FBBDE7204600F053FAB9E7204600F084
:105BD00023FAB5E7204600F093FAB1E7204600F03B
:105BE00049FBADE7204600F0E9F9A9E7204600F0BF
:105BF00062FBA5E794F88530012BBCD194F8862090
:105C00000AB984F88B30002384F88530B3E794F820
:105C10009210206807F054FB94F89110206807F068
:105C20004FFB002384F88D30012384F88F3040F23D
:105C30000113A4F886304FF48073A4F8883061E62D
:105C400000255FE6555342435553425330B48469AF
:105C50000129647B00EB0414A56D5468126804FBF1
:105C600005F40261C46002D130BCFFF700BD30BC56
:105C7000FFF7DABDD0E9093270B504464BB9C16906
:105C80008B6012B910460A7370BD022218460A735F
:105C9000FAE790F8391000296ED0C56942B9AB60B7
:105CA000134694F89110E26A206807F09FFA0FE01B
:105CB00090F83A10002954D0934290F8381013D934
:105CC0009B1A0129AB60EBD100F13002FFF7BEFF58
:105CD000E36908B918735CE001221A730322236A8E
:105CE0009A7011221A7354E04FF00002AA6010D18A
:105CF000012907D100F13002FFF7A8FFE36940BB9B
:105D00001873C1E7C26A90F89110006807F06EFA44
:105D1000F4E7012916D18269527B00EB0212966DDD
:105D2000B3FBF6F206FB1233426300F13002AB60C4
:105D3000FFF78CFFE36960B994F83820012ADFD1BE
:105D400002220CE0C26A90F89110006807F04EFA47
:105D5000F0E701221A730322236A9A7011221A7340
:105D600092E7C26AAB600B4690F89110006807F0AA
:105D70003DFAE3690222B5E76AB990F8921000682B
:105D800007F09EFA636AE26993600123137384F853
:105D90008730052078E790F83A1059B190F89210C2
:105DA000006807F08DFAE369626A9A6002221A734A
:105DB0000123ECE79342C56990F8386019D99B1A22
:105DC000012EAB600DD100F13002FFF73FFFE36918
:105DD00000283FF47FAF01221A730322236A9A70CE
:105DE00080E7134690F89210C26A006807F004FA40
:105DF000EDE7A96016D1012E0DD100F13002FFF7B9
:105E000025FFE36900283FF47BAF01221A73236A60
:105E100003229A70A3E7C26A90F89210006807F014
:105E2000EBF9EEE7012E12D18269527B00EB0212F0
:105E3000966DB3FBF6F206FB1233426300F13002BB
:105E4000AB60FFF703FF0028E1D1E36974E7C26AA2
:105E500090F89210006807F0CFF9F4E710B5036AE4
:105E600086B004460493836903F10F025B7B8DF8CF
:105E70001430436801921B6813B101AA0F2198479F
:105E800012232046A362012384F83A30236AE36296
:105E9000002384F83830FFF7EDFE06B010BD10B5D2
:105EA000036A86B004460493836903F10F025B7BA7
:105EB0008DF814304368019200221B68CDE902225C
:105EC00013B101AA08219847029B2046A36201232F
:105ED00084F83A30039BE362002384F83830FFF7FC
:105EE000C9FE06B010BD826910B4D37BD2F8111080
:105EF000282B09BA15D1D38A5BBA9BB2012480F84A
:105F00003A40527B00EB0212926D80F838405A43BF
:105F10005DF8044B82620022C0E90C13C262FFF7F5
:105F2000A9BEA82B0ABFD2F8153000231BBAE5E79B
:105F3000826910B4D37B0024D2F811102A2B09BA3D
:105F400014D1D38A5BBA9BB280F83A40527B00EB03
:105F50000212926D5A43C0E90A24012280F83820C7
:105F60005DF8044BC0E90C13FFF784BEAA2B0ABFEF
:105F7000D2F8153023461BBAE6E730B5036A87B07E
:105F800004460493836903F10F025B7B01920122B3
:105F90008DF81430002380F83A208362C36280F8C1
:105FA0003830FFF767FE636805461B681BB101AA1E
:105FB000072120469847284607B030BD002201211E
:105FC000826280F83A10C26280F83820FFF752BE31
:105FD00010B5036A86B004460493836903F10F0287
:105FE0005B7B8DF814304368019200221B68CDE979
:105FF000022213B101AA09219847029B2046A362FD
:10600000012384F83A30039BE362002384F838309C
:10601000FFF730FE06B010BD10B5036A86B0044627
:106020000493836903F10F025B7B8DF8143043689E
:10603000019200221B68CDE9022213B101AA0A21B4
:106040009847029B2046039AA3620023E26284F8E9
:106050003A3084F83830FFF70DFEA3691B7CDB076C
:1060600004D5236A05229A7024221A7306B010BD43
:10607000836930B585B05D7B002304468DF80C50F4
:10608000CDE9013343681B6813B101AA1021984779
:1060900094F89030AB423FBF236A052200259A70E6
:1060A000029931B1019B13B304EB0515C5E9153114
:1060B0000821A069437BC07B0533252804EB03132B
:1060C0005A68A16202F1FF3212BA12D1E16B0A6082
:1060D0009B681BBA4B6001232046E16284F83A308A
:1060E000002384F83830FFF7C5FD05B030BD1946F0
:1060F000DFE7216C4A609B681BBA8B60EBE700000E
:1061000070B53B4B044688B01868A36900905D7B6E
:106110000023CDE9053363688DF81C501B681BB163
:1061200005AA11212046984794F89030AB423FBF12
:10613000236A052200259A70069B2BB1059A1AB195
:1061400004EB0515C5E91523A36994F84C50997D16
:10615000DA7D42EA0121002D48D06269002A14BF8D
:10616000022003205B7B002D4FEAC00503F10503ED
:106170008DF8035004EB03135A689E6812BA33BAC1
:106180000392049314BF4FF000734FF08073019299
:106190000C22334302EBC0021BBA8A42029328BF8F
:1061A0000A46236D9DF8001019709DF80110236DAB
:1061B00059709DF80210236D997001A9236DDD704F
:1061C000042311F8015B206DC55401330C2BF8D169
:1061D00001232046A26284F83A30236DE362002353
:1061E00084F83830FFF746FD08B070BD2846B9E79F
:1061F0000CC1020070B5002501260446856280F8B6
:106200003A60C56280F83850FFF734FDE3691A7BC5
:10621000022A0DD0A269127C02F01F02172A1DBFAC
:1062200005221E73236A1D731EBF9A7024221A73DF
:1062300070BD30B5036A87B004460493836903F1E7
:106240000F025B7B019201228DF81430002380F84D
:106250003A208362C36280F83830FFF70BFD636831
:1062600005461B681BB101AA0C2120469847284609
:1062700007B030BD30B5036A87B004460493836924
:1062800003F10F025B7B019201228DF81430002391
:1062900080F83A208362C36280F83830FFF7EAFC66
:1062A000636805461B681BB101AA0D21204698476B
:1062B000284607B030BD30B5036A87B00446049362
:1062C000836903F10F025B7B019201228DF8143088
:1062D000002380F83A208362C36280F83830FFF7E9
