S00D0000696D6167652E7372656314
S3150000080000000420BD0C000047670100416701009D
S31500000810490D0000490D0000490D000000000000D0
S31500000820000000000000000000000000912E010002
S31500000830490D000000000000612F0100C52F0100D6
S31500000840610D0000650D0000690D00006D0D0000D2
S31500000850710D0000750D0000790D00007D0D000082
S31500000860810D0000850D0000890D00008D0D000032
S31500000870910D0000950D0000990D00009D0D0000E2
S31500000880A10D0000490D0000490D0000490D0000B2
S315000008906D7B00007B7B0000897B0000977B00005E
S315000008A0A57B0000B37B0000C17B0000CF7B00006E
S315000008B0C50D0000C90D0000CD0D0000D10D0000D2
S315000008C0D50D0000D90D0000DD0D0000E10D000082
S315000008D0E50D0000E90D0000ED0D0000F10D000032
S315000008E0F50D0000F90D0000FD0D0000010E0000E1
S315000008F0050E0000090E00000D0E0000110E00008E
S31500000900150E0000190E0000490D0000490D0000EB
S31500000910490D0000490D0000490D0000490D000079
S31500000920ADBA0100490D0000490D0000490D000057
S31500000930490D0000E96F0100490D0000490D000056
S31500000940490D0000490D0000490D0000490D000049
S31500000950490D0000490D0000490D0000490D000039
S31500000960490D0000490D0000490D00001D0E000054
S31500000970210E0000250E0000290E00002D0E00009D
S31500000980310E0000350E0000390E0000490D000042
S31500000990490D0000490D0000490D0000490D0000F9
S315000009A0490D0000490D0000490D0000490D0000E9
S315000009B0490D0000FD6F0100490D0000490D0000C2
S315000009C0490D00003D0E0000490D0000490D0000D4
S315000009D0490D0000490D0000A96F0100BD6F01001F
S315000009E0490D0000C16F0100D56F0100490D0000DF
S315000009F0490D0000490D0000410E0000450E0000A3
S31500000A00490D0000490D0000490D0000490D000088
S31500000A10490D0000490D000065670100CD83010006
S31500000A2051440000490D0000490D0000490D000029
S31500000A30490D0000490D0000490D0000490D000058
S31500000A40490D0000490D0000490E00004D0E000042
S31500000A50490D0000510E0000550E000079020200FB
S31500000A6085AD0100590E00005D0E0000610E00000C
S31500000A70650E0000690E00006D0E0000490D0000B5
S31500000A80490D0000490D0000490D0000490D000008
S31500000A90490D0000490D0000490D0000490D0000F8
S31500000AA0490D0000490D0000490D0000490D0000E8
S31500000AB0490D0000490D0000490D0000490D0000D8
S31500000AC0490D0000490D0000490D0000490D0000C8
S31500000AD0490D0000490D0000490D0000490D0000B8
S31500000AE0490D0000490D0000490D0000490D0000A8
S31500000AF0490D0000490D0000490D0000490D000098
S31500000B00490D0000490D0000490D0000490D000087
S31500000B10490D0000490D0000490D0000490D000077
S31500000B20490D0000490D0000490D0000490D000067
S31500000B30490D0000490D0000490D0000490D000057
S31500000B40490D0000490D0000490D0000490D000047
S31500000B50490D0000490D0000490D0000490D000037
S31500000B60710E0000750E0000790E00007D0E00006B
S31500000B70490D0000490D0000490D0000490D000017
S31500000B80490D0000490D0000810E0000850E000091
S31500000B90890E00008D0E0000490D0000490D000071
S31500000BA0910E0000950E00003167010031670100CB
S31500000BB031670100316701003167010031670100CB
S31500000BC031670100316701003167010031670100BB
S31500000BD031670100316701003167010031670100AB
S31500000BE0316701003167010031670100316701009B
S31500000BF0316701003167010031670100FFFFFFFF28
S31500000C0010B5054C237833B9044B13B10448AFF340
S31500000C1000800123237010BDC0AE0020000000003C
S31500000C208877030008B5034B1BB103490348AFF3AC
S31500000C30008008BD00000000C4AE002088770300D5
S31500000C40A3F5803A704700BF174B002B08BF134B24
S31500000C509D46FFF7F5FF00218B460F461348144AC1
S31500000C60121A26F017FA0E4B002B00D098470D4BA0
S31500000C70002B00D098470020002104000D000D48ED
S31500000C80002802D00C48AFF3008026F095F920002A
S31500000C90290016F071FE25F04DFE00BF0000080089
S31500000CA0000000000000000000000420C0AC00208E
S31500000CB08C8C0220000000000000000072B616486E
S31500000CC0164901600A6882F3088815488047154965
S31500000CD0154A164B9A42BEBF51F8040B42F8040B54
S31500000CE0F8E7134A134B9A42BEBF51F8040B42F879
S31500000CF0040BF8E7104B00209A42BCBF42F8040BE5
S31500000D00FAE70E490E4A00209142BCBF41F8040B97
S31500000D10FAE762B60B48804708ED00E000080000DD
S31500000D20ED4500005079030000800020ACAC0020A7
S31500000D300000002000000020FC400020C0AC002085
S31500000D408C8C0220490C000015F0F2BC524800477A
S31500000D505248004752480047524800475248004709
S31500000D6052480047524800475248004752480047F9
S31500000D7052480047524800475248004752480047E9
S31500000D8052480047524800475248004752480047D9
S31500000D9052480047524800475248004752480047C9
S31500000DA052480047524800475248004752480047B9
S31500000DB052480047524800475248004752480047A9
S31500000DC05248004752480047524800475248004799
S31500000DD05248004752480047524800475248004789
S31500000DE05248004752480047524800475248004779
S31500000DF05248004752480047524800475248004769
S31500000E005248004752480047524800475248004758
S31500000E105248004752480047524800475248004748
S31500000E205248004752480047524800475248004738
S31500000E305248004752480047524800475248004728
S31500000E405248004752480047524800475248004718
S31500000E505248004752480047524800475248004708
S31500000E6052480047524800475248004752480047F8
S31500000E7052480047524800475248004752480047E8
S31500000E8052480047524800475248004752480047D8
S31500000E905248004752480047476701004167010032
S31500000EA0912E0100612F0100C52F010061980000FD
S31500000EB099980000D1980000099900004199000016
S31500000EC079990000B1990000E9990000219A000083
S31500000ED0599A0000919A0000C99A0000019B0000EF
S31500000EE0399B0000719B0000A99B0000490D000082
S31500000EF069B4000089B40000A9B40000C9B40000B8
S31500000F00E9B4000009B5000029B5000049B50000A4
S31500000F1069B5000089B50000A9B50000C9B5000093
S31500000F2055AF000061AF00006DAF000079AF000063
S31500000F3085AF000091AF0000BDAF0000F1AF00002B
S31500000F4025B0000059B000008DB00000C1B000000F
S31500000F50490D0000490D0000490D0000490D000033
S31500000F60490D0000490D0000490D0000490D000023
S31500000F70490D0000490D0000490D0000490D000013
S31500000F80490D0000490D0000490D0000490D000003
S31500000F90490D000069A40000490D00000953020034
S31500000FA0295302003D9D0000519D0000799D0000DF
S31500000FB08D9D0000659D0000A19D0000490D00006B
S31500000FC0490D00007DB60000490D0000490D0000E6
S31500000FD0490D0000490D0000490D0000490D0000B3
S31500000FE0490D000081F0004102E000BF83F000439C
S31500000FF030B54FEA41044FEA430594EA050F08BFAE
S3150000100090EA020F1FBF54EA000C55EA020C7FEA71
S31500001010645C7FEA655C00F0E2804FEA5454D4EBEE
S315000010205555B8BF6D420CDD2C4480EA020281EAB8
S31500001030030382EA000083EA010180EA020281EAF0
S315000010400303362D88BF30BD11F0004F4FEA013142
S315000010504FF4801C4CEA113102D0404261EB410151
S3150000106013F0004F4FEA03334CEA133302D05242D7
S3150000107063EB430394EA050F00F0A780A4F1010493
S31500001080D5F1200E0DDB02FA0EFC22FA05F28018CD
S3150000109041F1000103FA0EF2801843FA05F35941B3
S315000010A00EE0A5F120050EF1200E012A03FA0EFC32
S315000010B028BF4CF0020C43FA05F3C01851EBE3715C
S315000010C001F0004507D54FF0000EDCF1000C7EEB79
S315000010D000006EEB0101B1F5801F1BD3B1F5001FB7
S315000010E00CD349085FEA30004FEA3C0C04F10104D6
S315000010F04FEA445212F5800F80F09A80BCF1004FFF
S3150000110008BF5FEA500C50F1000041EB045141EA80
S31500001110050130BD5FEA4C0C404141EB0101013C49
S3150000112028BFB1F5801FE9D291F0000F04BF014638
S315000011300020B1FA81F308BF2033A3F10B03B3F10A
S3150000114020020CDA0C3208DD02F1140CC2F10C029A
S3150000115001FA0CF021FA02F10CE002F11402D8BFF8
S31500001160C2F1200C01FA02F120FA0CFCDCBF41EAC4
S315000011700C019040E41AA2BF01EB0451294330BD93
S315000011806FEA04041F3C1CDA0C340EDC04F1140470
S31500001190C4F1200220FA04F001FA02F340EA030047
S315000011A021FA04F345EA030130BDC4F10C04C4F18D
S315000011B0200220FA02F001FA04F340EA030029466D
S315000011C030BD21FA04F0294630BD94F0000F83F4B7
S315000011D0801306BF81F480110134013D4EE77FEA9A
S315000011E0645C18BF7FEA655C29D094EA050F08BFE6
S315000011F090EA020F05D054EA000C04BF19461046C7
S3150000120030BD91EA030F1EBF0021002030BD5FEA0A
S31500001210545C05D14000494128BF41F0004130BD32
S3150000122014F580043CBF01F5801130BD01F0004586
S3150000123045F0FE4141F470014FF0000030BD7FEAF9
S31500001240645C1ABF194610467FEA655C1CBF0B46F4
S31500001250024650EA013406BF52EA033591EA030F0B
S3150000126041F4002130BD00BF90F0000F04BF002103
S31500001270704730B54FF4806404F132044FF0000536
S315000012804FF0000150E700BF90F0000F04BF0021AF
S31500001290704730B54FF4806404F1320410F0004515
S315000012A048BF40424FF000013EE700BF42004FEA10
S315000012B0E2014FEA31014FEA02701FBF12F07F438D
S315000012C093F07F4F81F06051704732F07F4208BF44
S315000012D0704793F07F4F04BF41F40021704730B54B
S315000012E04FF4607401F0004521F000411CE700BF97
S315000012F050EA010208BF704730B54FF000050AE01A
S3150000130050EA010208BF704730B511F0004502D51A
S31500001310404261EB41014FF4806404F132045FEA1C
S31500001320915C3FF4D8AE4FF003025FEADC0C18BFC5
S3150000133003325FEADC0C18BF033202EBDC02C2F1B7
S31500001340200300FA03FC20FA02F001FA03FE40EA49
S315000013500E0021FA02F11444BDE600BF7BB972B952
S315000013600029BEBF00204FF0004106E008BF00285C
S315000013701CBF6FF000414FF0FF3000F007BAADF12F
S31500001380080C6DE904CE002909DB002B1ADB00F0FE
S315000013909BF8DDF804E0DDE9022304B07047404223
S315000013A061EB4101002B1BDB00F08EF8DDF804E059
S315000013B0DDE9022304B0404261EB4101524263EB96
S315000013C043037047524263EB430300F07DF8DDF8B8
S315000013D004E0DDE9022304B0404261EB41017047BD
S315000013E0524263EB430300F06FF8DDF804E0DDE9F9
S315000013F0022304B0524263EB4303704753B94AB920
S31500001400002908BF00281CBF4FF0FF314FF0FF3006
S3150000141000F0BCB9ADF1080C6DE904CE00F054F84B
S31500001420DDF804E0DDE9022304B07047430803F069
S315000014305533C01A830803F0333300F033301844B1
S3150000144000EB101000F00F3000EB002000EB004026
S31500001450000E704708B502460B4643EC172BB5EE57
S31500001460C07BF1EE10FA03D4BDE8084000F00CB8DA
S31500001470B1EE477B51EC170B00F006F8404261EBEA
S31500001480410108BD000000009FED0B6B41EC170BFE
S315000014909FED0B5B27EE066BBCEEC66BB8EE464BBC
S315000014A0A4EE457BFCEEC77B16EE101A17EE900AEB
S315000014B0704700BFAFF30080000000000000F03D61
S315000014C0000000000000F0412DE9F047089D0446A9
S315000014D08C46002B40F083808A42174647D9B2FAE1
S315000014E082F242B1C2F1200024FA00F09140974006
S315000014F040EA010C94404FEA1748230CBCFBF8F66F
S315000015001FFA87FE08FB16C143EA014306FB0EF1EC
S31500001510994209D9FB1806F1FF3080F019819942EA
S3150000152040F21681023E3B445B1AA4B2B3FBF8F0CC
S3150000153008FB103344EA034400FB0EFEA64509D916
S315000015403C1900F1FF3380F00581A64540F2028187
S3150000155002383C4440EA0640A4EB0E0400261DB1C6
S31500001560D4400023C5E900433146BDE8F08702B9FF
S31500001570FFDEB2FA82F2002A50D1CB1B4FEA174E99
S315000015801FFA87F80126B3FBFEFC210C0EFB1C3369
S3150000159041EA034108FB0CF38B4207D979180CF199
S315000015A0FF3002D28B4200F2E9808446C91AA3B208
S315000015B0B1FBFEF00EFB101143EA014408FB00F8F4
S315000015C0A04507D93C1900F1FF3302D2A04500F22D
S315000015D0D9801846A4EB080440EA0C40BFE78B42CA
S315000015E009D9002D00F0B1800026C5E9000130467A
S315000015F03146BDE8F087B3FA83F6002E4AD18B4216
S3150000160002D3824200F2B880841A61EB0301012002
S315000016108C46002DA8D0C5E9004CA5E7C2F12003F1
S3150000162020FA03F6974001FA02F04FEA174ED94026
S315000016303043030CB1FBFEF61FFA87F80EFB1611BA
S3150000164043EA014306FB08F1994204FA02F409D978
S31500001650FB1806F1FF3C80F08D80994240F28A80AB
S31500001660023E3B445B1A81B2B3FBFEF00EFB103325
S3150000167041EA034100FB08F38B4207D9791800F1D0
S31500001680FF3C73D28B4271D902383944CB1A40EAF7
S31500001690064678E7C6F1200C03FA06F422FA0CF3A4
S315000016A01C4320FA0CF701FA06F34FEA144E21FA0E
S315000016B00CF11F433B0CB1FBFEF91FFA84F80EFB3D
S315000016C0191143EA014109FB08FA8A4502FA06F2B2
S315000016D000FA06F308D9611809F1FF3048D28A45A5
S315000016E046D9A9F102092144A1EB0A01BFB2B1FB17
S315000016F0FEF00EFB101147EA014700FB08F8B8455B
S3150000170007D9E71900F1FF312ED2B8452CD9023896
S31500001710274440EA0940A7EB0807A0FB02894F458A
S31500001720C64649461AD317D05DB1B3EB0E0267EB36
S31500001730010707FA0CFCF2404CEA0202F740C5E941
S31500001740002700263146BDE8F0872E4628460BE7DF
S315000017500646E9E61846FDE64345E5D2B8EB020E35
S3150000176069EB04010138DFE70846D2E760468DE7FA
S315000017708146B9E7664675E730464AE7ACF1020CA2
S31500001780394413E702383C4424E700BF704700BFE2
S3150000179001F0FF01102A2BDB10F0070F08D010F81C
S315000017A0013B013A8B422DD010F0070F42B3F6D120
S315000017B0F0B441EA012141EA014122F007047FF039
S315000017C000070023F0E80256083C85EA010586EA90
S315000017D0010685FA47F5A3FA87F586FA47F6A5FACC
S315000017E087F68EB9EED1F0BC01F0FF0102F00702D8
S315000017F032B110F8013B013A83EA010313B1F8D183
S315000018000020704701387047002D06BF3546033863
S31500001810073815F0010F07D1013015F4807F02BF9C
S31500001820013015F4C03F0130F0BC0138704700BFED
S3150000183010F8012B11F8013B012A28BF9A42F7D074
S31500001840D01A7047034613F8012B002AFBD1181A49
S3150000185001387047014B01221A70704778BE00208C
S3150000186010B504460B6811689847204610BD012A3A
S3150000187003D0022A03D0002070470160FBE70B6803
S315000018800360F8E77047836810B5044613B1032276
S3150000189001469847204610BD70B5094B0446D0E96D
S315000018A001560360AE4204D028461035FFF7EBFF21
S315000018B0F8E7606808B124F03EF8204670BD00BF26
S315000018C02016030070B50D4E3378BFF35B8F13F00F
S315000018D0010410D1304624F034F860B1084D30468A
S315000018E0084B85F8544F2B6024F037F8064A2846F3
S315000018F0064924F01BF8024870BD00BFDCAE00208C
S31500001900E0AE00208C1F0300008000208518000038
S3150000191000F1080373B504460D460360E1B10846BD
S31500001920FFF790FF0F2805EB0006019007D900226C
S3150000193001A9204624F0A6F9019B2060A360324647
S315000019402946206824F019FA019B226800212046C6
S315000019506360D15402B070BD014824F0CCF800BFDA
S3150000196018C3020013B50B4602466C46D0E90001C7
S3150000197084E8030093E8030082E8030094E8030088
S3150000198083E8030002B010BD2DE9F84307468846F8
S315000019901646154604464FF0000944451AD0294616
S315000019A02046C5F808901035FFF7DCFFA36855F808
S315000019B0082C2046103444F8082C45F8083C55F805
S315000019C0042C54F8043C44F8042C45F8043CFFF776
S315000019D05AFFE2E7E01B3044BDE8F8832DE9F84FF3
S315000019E0D0E900A993466FF07843A9EB0A020746AF
S315000019F08846B3EB221F4FEA221402D1214824F075
S31500001A007DF8012C2246A1EB0A0638BF0122A41854
S31500001A1035D23CB19C4228BF1C46200123F0A0FFD2
S31500001A20054600E025462E44002358463146B3605D
S31500001A30FFF798FFB368DBF808204146CBF808307B
S31500001A405046F368B260DBF80C20CBF80C30F2603D
S31500001A502A46FFF799FF494600F110024046FFF774
S31500001A6093FF0646BAF1000F02D0504623F063FFFB
S31500001A7005EB0414C7E90056BC60BDE8F88F1C46A8
S31500001A80CBE700BF42C30200534B002230B51A70A9
S31500001A9091B0524B1B6813B9514826F0FDF9514BD2
S31500001AA01B6813B9504826F0F7F91C22002102A83A
S31500001AB0002425F0EFFA0125FFF704FF02A91AF02A
S31500001AC0B1FA4A4B0293FFF7FDFE01211AF01CFF03
S31500001AD0FFF7F8FE02A91AF02DFFFFF7F3FE01212A
S31500001AE01AF0FAFE424826F0D7F9022340F68C2275
S31500001AF040494148CDE90034234612F049FF2346C8
S31500001B0040F68C223D4901943D48009512F040FF75
S31500001B10284617F0D5FC044628B93A4826F0BCF901
S31500001B20204613F0FBFB384817F0B8FC374817F08F
S31500001B30C1FC0A2017F01EFD044628B9344826F0D9
S31500001B40ABF9204613F0EAFB09A817F079FD9DF8DA
S31500001B503C40002C33D009992E4826F09DF99DF87B
S31500001B603C302BB1002309A88DF83C3024F0ACF8AA
S31500001B70294B2A4D09932A4B0C932A4B0B93D5E9F3
S31500001B8002439C4222D00023214609A8A360FFF706
S31500001B90E9FEA2680B9B0B92A360E2680C9B0C9279
S31500001BA0E360AB681033AB6009A8FFF76CFE1B4817
S31500001BB017F090FA002013F0B1FB11B030BD1A48AF
S31500001BC026F06AF9204613F0A9FBC8E709AA2146C0
S31500001BD0281DFFF703FFE7E778BE00207CBE002044
S31500001BE05CC3020074BE002079C3020055180000D1
S31500001BF095C30200AFC30200D92D0000BDC3020089
S31500001C00593B0000C8C302005CBE002044BE002051
S31500001C10E5C3020004C40200ED1C000080BE0020E3
S31500001C20611800006F18000015C4020008B50121F4
S31500001C300D2015F06FF900210D2015F023F9BDE8F0
S31500001C400840FFF721BF091A431E104630B5551844
S31500001C502C1A002C04DD13F8014F00F8014BF7E7AE
S31500001C600029ACBF5018101C30BD00002DE9F04112
S31500001C708368A2EB01081746026804460E469B1AC3
S31500001C80984518D9B8F1000F02DA174823F036FF45
S31500001C90404623F065FE3946024605463046FFF7C4
S31500001CA0D2FF206808B123F046FE25604544C4E90A
S31500001CB00155BDE8F0814568AD1AA84508D83946F2
S31500001CC03046FFF7C0FF63688342F2D06060F0E7FA
S31500001CD00D4430462946FFF7B6FF62683946284666
S31500001CE0FFF7B1FFF2E700BF2DC402002DE9F04770
S31500001CF090B00546884602AF3A4607F10800FFF75E
S31500001D0007FEF86807F120060A282CD83A1D414636
S31500001D103046FFF7FDFD786A16282ED93B6A17383C
S31500001D2061491844FFF784FDB0FA80F4640930462F
S31500001D3023F0CAFF07F1080023F0C6FF07F10802E7
S31500001D40ECB15A493046FFF7E3FD3146284624F008
S31500001D5055F8012330462B7623F0B6FF2846383750
S31500001D60BD46BDE8F0870B38BB6851491844FFF7FC
S31500001D705FFD0028CAD10124DCE70024D7E74146ED
S31500001D803046FFF7C5FD786A0D2808D93B6A0E383C
S31500001D9048491844FFF74CFDB0FA80F46409304610
S31500001DA023F092FF44B3DFF8288100244FF0FF317F
S31500001DB0D8F80000BC62C7E9084411F0EBFE012820
S31500001DC011D13D4B3D4A18681E233D4900961268C5
S31500001DD00968006817F0F8FA234622462146D8F823
S31500001DE0000011F0C7FB3B6A2B607B6A6B60BB6A25
S31500001DF0AB6002232B76B1E707F108024146304675
S31500001E00FFF786FD786A062808D93B6A07382D4908
S31500001E101844FFF70DFDB0FA80F46409304623F04C
S31500001E2053FF002C38D0284B0024DFF8A8A0E84642
S31500001E301B684FF0FF31DAF800000733BC6223F06D
S31500001E400703ADEB030DC7E9084411F0A3FE012813
S31500001E500DF1080916D11D4B4846196826F0B4F94C
S31500001E604846FFF7EFFC4FF0000309EB0002494636
S31500001E703046FFF7FBFE234622462146DAF80000ED
S31500001E8011F078FB3B6A2B607B6A6B60BB6AAB60C8
S31500001E9002232B76C54661E71C222146284625F0FB
S31500001EA0F9F82C765AE700BF6AC4020090C4020013
S31500001EB05EC40200A4C4020008BF002038BE002091
S31500001EC040BE00209CC40200048000203CBE0020CE
S31500001ED07CBE002074BE002010B50446FFF7DCFC73
S31500001EE01021204623F029FD204610BD10B50446DA
S31500001EF040F6587123F021FD204610BD73B51A4DEA
S31500001F0001AA1A4C1A4E28461A49FFF701FD28461F
S31500001F10194D2246314623F009FD01AA17492846E4
S31500001F20FFF7F6FC22463146284623F0FFFC144B09
S31500001F30186825F069F8134B1860012011F036FC7B
S31500001F40114B1860012011F031FC104B224610494C
S31500001F5018601048104B03600023C0E90133C360CA
S31500001F6023F0E4FC02B070BD5CBE002000800020BF
S31500001F70315E020082C4020044BE002087C4020013
S31500001F80048000203CBE00207CBE002074BE0020E1
S31500001F909918000080BE0020201603000022C0E928
S31500001FA00022826070470022C0E9002282607047EA
S31500001FB00022C0E900228260704701207047036852
S31500001FC01B6A184703685B6A18472029F0B510D0CA
S31500001FD0046F0023242500F118069C4209D005FB56
S31500001FE003F2B7588F4202D104321044F0BD0133D8
S31500001FF0F3E70020FAE7704710B504468C2123F07A
S315000020009CFC204610BDD0F88420032A38B50CD895
S3150000201000F1740400239A420BD014F8015B8D4240
S3150000202005D11E3350F8230038BD24F019FC0133C6
S31500002030F1E70020F8E7F8B505460F460646002406
S315000020402B6FA34210D9B369202B02D0013424365A
S31500002050F6E73946F069FFF7EBFB0028F6D12420B6
S3150000206000FB04500430F8BD0020FCE790ED033A75
S3150000207091ED034AD0ED023AB4EEC43AD1ED024AEC
S31500002080D1ED057A90ED056AF1EE10FAD1ED045A1C
S31500002090F4EEE43AD0ED046A54BFB0EE432AB0EE53
S315000020A0442AF1EE10FAF4EEC67A54BFF0EE632A33
S315000020B0F0EE642AF1EE10FAF4EEE65A54BFB0EEF2
S315000020C0467AB0EE677AF1EE10FA77EEC47A37EE1A
S315000020D0427A54BFB0EE665AB0EE655A75EEE45ACF
S315000020E0B5EEC07A35EE625A36EE436AF1EE10FA74
S315000020F0B5EEC05A76EEE36A67EEA57AD8BF9FEDD5
S315000021000B7AF1EE10FAE6EE267AD8BF9FED075A63
S3150000211027EE057A77EEC77AF5EEC07AF1EE10FA79
S31500002120CCBF87EE270A9FED010A7047000000002A
S3150000213008B4F0B50E461146044682B0C81D00AF7D
S3150000214020F0070007F11C03ADEB000D53F8042B3C
S315000021506D463B602846B04704F108030F2805EB9F
S3150000216000062360786007D90022391D204623F037
S3150000217089FD7B682060A36032462946206823F0EB
S31500002180F7FD7B6822680021204608376360D1543A
S31500002190BD46BDE8F04001B070470000B7EEC00A8A
S315000021A0054B3A2213B5044604498DED000BFFF7A3
S315000021B0BFFF204602B010BDB3C40200259702003F
S315000021C0134613B5044601AA40F8041B1946FFF747
S315000021D09FFB204602B010BD10B50446006808B14A
S315000021E023F0A9FB204610BD70B50D1E044602DA89
S315000021F00B4823F083FC4FF00003C0E900338360F3
S31500002200284601D023F0ACFB46192060A6601DB11C
S315000022102A46002124F03EFF2046666070BD00BFBE
S315000022202DC40200F0B58BB0054601A835F0ECFAD6
S315000022302B68062128461B6A9847074640B1D5F801
S31500002240880018B106221B4935F0EAFA01202FE072
S31500002250D5F870C0BCF1020F09D9D5F8880000285E
S31500002260F4D003230622144935F0DAFAEEE74FF0EC
S31500002270240E01AC0EFB0C5E0FCC0EF104060FC64D
S315000022800FCC0FC623680622384633600CF10103D3
S31500002290CEF818202B67D5F88430E91881F8742019
S315000022A003F11E020549013345F82210C5F88430B2
S315000022B00BB0F0BDB6C4020005C502004160252082
S315000022C0036F022B2DE9F0410546884614460BD9CB
S315000022D0D0F8880010B90120BDE8F0810A46032332
S315000022E0114935F09DFAF6E703685B6A984706469A
S315000022F040B1D5F888000028EDD042460B4935F0AC
S315000023008FFAE8E72F6F24207B1C00FB07572B670B
S315000023103D1D0FCC0FC50FCC0FC5236830462B6073
S315000023202023C7E90638D7E748C502008AC5020058
S3150000233070B505460C464CB1E1682846FFF7F8FF34
S31500002340A668204623F0F7FA3446F4E770BD10B5C8
S315000023500446806B30B18368013B836013B9036820
S31500002360DB68984704F108002169FFF7E1FF204682
S3150000237010BD70B505460C466CB1E1682846FFF7FE
S31500002380F8FF04F11400A66823F09EFC204623F013
S31500002390D2FA3446F0E770BD70B58B68164604462F
S315000023A00D1D012253B130681D461A699042B9BF0E
S315000023B098680122D86800220346F3E792B1CA68FA
S315000023C0AA4203D1C4E90035204670BD284623F051
S315000023D031FB336802699A424FF00003F2DBC4E92D
S315000023E00003F1E72846F4E72DE9F0411F460B1DEF
S315000023F004460E469A4215460AD14B69002B32D046
S315000024000B693A68196991422DDA0022226008E0C8
S31500002410D7F800801369984515DACB68934202D144
S31500002420036063600CE0104623F004FB03699845E3
S3150000243019DDC36813B92360606001E0256065603B
S315000024402046BDE8F08114DD0B699342DDD01046CD
S3150000245023F0DDFA0369984505DAEB680BB92360CA
S31500002460EDE72060E8E73A4631462046FFF794FF5D
S31500002470E6E700232260D4E72DE9F047ADF5206DAD
S315000024800446C84A00210DF10C0A261D5046554641
S31500002490FFF796FEC44A01210AA8FFF791FEC34A38
S315000024A0022111A8FFF78CFEC14A032118A8FFF7E5
S315000024B087FEC04A04211FA8FFF782FEBE4A0521F7
S315000024C026A8FFF77DFEBD4A06212DA8FFF778FE58
S315000024D0BB4A072134A8FFF773FEBA4A08213BA876
S315000024E0FFF76EFEB84A092142A8FFF769FEB74A10
S315000024F00A2149A8FFF764FEB54A0B2150A8FFF749
S315000025005FFEB44A0C2157A8FFF75AFEB24A0D21C6
S315000025105EA8FFF755FEB14A0E2165A8FFF750FEEB
S31500002520AF4A0F216CA8FFF74BFEAE4A102173A8E5
S31500002530FFF746FEAC4A11217AA8FFF741FEAB4AE7
S31500002540122181A8FFF73CFEA94A132188A8FFF7AC
S3150000255037FEA84A14218FA8FFF732FEA64A152196
S3150000256096A8FFF72DFEA54A16219DA8FFF728FE7F
S31500002570A34A1721A4A8FFF723FEA24A1821ABA855
S31500002580FFF71EFEA04A1921B2A8FFF719FE914ACD
S315000025901A21B9A8FFF714FE9C4A1B21C0A8FFF711
S315000025A00FFE9B4A1C21C7A8FFF70AFE894A1D2178
S315000025B0CEA8FFF705FE874A1E21D5A8FFF700FE25
S315000025C0944A1F21DCA8FFF7FBFD934A2021E3A8CC
S315000025D0FFF7F6FD914A2121EAA8FFF7F1FD904A9F
S315000025E02221F1A8FFF7ECFD8E4A2321F8A8FFF778
S315000025F0E7FD8D4A2421FFA8FFF7E2FD8B4A25213E
S315000026000DF58360FFF7DCFD894A26210DF2344083
S31500002610FFF7D6FD874A27210DF58A60FFF7D0FD23
S31500002620854A28210DF26C40FFF7CAFD834A29210D
S315000026300DF59160FFF7C4FD814A2A210DF2A440F1
S31500002640FFF7BEFD7F4A2B210DF59860FFF7B8FD19
S315000026507D4A2C210DF2DC40FFF7B2FD5D4A2D21AB
S315000026600DF59F60FFF7ACFD784A2E210DF2145050
S31500002670FFF7A6FD764A2F210DF5A660FFF7A0FD10
S31500002680744A30210DF24C50FFF79AFD724A3121FF
S315000026900DF5AD60FFF794FD704A32210DF28450BE
S315000026A0FFF78EFD6E4A33210DF5B460FFF788FD06
S315000026B06C4A34210DF2BC50FFF782FD6A4A35217F
S315000026C00DF5BB60FFF77CFD684A36210DF2F4502C
S315000026D0FFF776FD664A37210DF5C260FFF770FDFC
S315000026E0644A38210DF22C60FFF76AFD624A3921EF
S315000026F00DF5C960FFF764FD604A3A210DF264608A
S31500002700FFF75EFD5E4A3B210DF5D060FFF758FDF1
S315000027105C4A3C210DF29C60FFF752FD5A4A3D216E
S315000027200DF5D760FFF74CFD584A3E210DF2D460F7
S31500002730FFF746FD564A3F210DF5DE60FFF740FDE7
S31500002740544A40210DF20C70FFF73AFD524A4121DE
S315000027500DF5E560FFF734FD1E4A42210DF2447087
S31500002760FFF72EFD4D4A43210DF5EC60FFF728FDDE
S31500002770184A44210DF27C70FFF722FD154A4521C7
S315000027800DF5F360FFF71CFD454A46210DF2B470C6
S31500002790FFF716FD0F4A47210DF5FA60FFF710FD0A
S315000027A080E000BFD6C50200E5C50200ECC5020008
S315000027B0F4C50200F8C5020003C602000CC60200FA
S315000027C010C6020016C602001CC6020021C6020080
S315000027D02FC602003CC6020040C602004AC60200DE
S315000027E058C602005EC6020063C6020079C7020030
S315000027F067C602006DC6020073C6020077C60200F5
S3150000280032C8020080C6020086C602008EC60200DA
S3150000281097C60200A0C60200A8C60200ACC6020007
S31500002820B5C60200BDC60200C2C60200CCC6020082
S31500002830D8C60200DDC60200EAC60200F9C60200DA
S3150000284004C702000EC702001CC7020023C702000D
S315000028502EC7020032C7020037C702003DC702007A
S3150000286043C7020048C702004FC7020055C702000F
S315000028705EC7020065C702006EC7020075C7020088
S315000028807DC7020083C7020089C702008EC7020007
S3150000289094C702009AC70200A7C70200ABC702008E
S315000028A0B8C702005A4A48210DF2EC70FFF788FCBF
S315000028B0584A49210DF60800FFF782FC564A4A217C
S315000028C00DF62400FFF77CFC544A4B210DF50460FD
S315000028D0FFF776FC524A4C210DF65C00FFF770FCC0
S315000028E0504A4D210DF67800FFF76AFC4E4A4E21FC
S315000028F00DF69400FFF764FC4C4A4F210DF50B6072
S31500002900FFF75EFC4A4A50210DF6CC00FFF758FC53
S31500002910484A51210DF6E800FFF752FC464A52217B
S315000029200DF60410FFF74CFC444A53210DF51260D6
S31500002930FFF746FC424A54210DF63C10FFF740FCD7
S31500002940404A55210DF65810FFF73AFC3E4A5621EB
S315000029500DF67410FFF734FC3C4A57210DF519604B
S31500002960FFF72EFC3A4A58210DF6AC10FFF728FC6B
S31500002970384A59210DF6C810FFF722FC364A5A216B
S315000029800DF6E410FFF71CFC00232371C4E90236A0
S31500002990C4E904632B463246214601A8FFF724FD0D
S315000029A0DDF80890B9F1000F1FD0019B73BB4E45AF
S315000029B02CD02F68D9F810309F42ACBF00270127D2
S315000029C02C2022F0CDFF29468046143051F8043BD6
S315000029D040F8043C23F0E6FB33464A464146384677
S315000029E023F02AF86369013363611C350DF5206312
S315000029F09D42CFD11D461C3D281D23F065F9554546
S31500002A00F9D120460DF5206DBDE8F0870127D7E7FF
S31500002A10BFC70200C2C70200C9C70200CFC7020073
S31500002A20D6C70200DFC70200EAC70200F4C70200E9
S31500002A30F9C7020001C8020006C802003CC602002F
S31500002A4013C8020018C802001EC8020023C80200EC
S31500002A502CC8020037C8020042C802000A680023D8
S31500002A6002604A680B6042608A68C1E9013382608D
S31500002A70704730B50D688368D0E9004205604D683F
S31500002A8045608D6885608B60C1E9004230BD1FB529
S31500002A9000230C46CDE901330393FFF7EAFF2146F5
S31500002AA001A8FFF7E6FF01A8FFF796FB04B010BDEB
S31500002AB02DE9F04F9946531E4FF00C0B85B003EBF2
S31500002AC0D3730546884616464FEA630A0C465B46AC
S31500002AD0A2451BDD671C7F007A1E0BFB07F16858B9
S31500002AE00BFB02F1695890ED017A03FB0450D1ED1E
S31500002AF0017AB4EE677AF1EE10FAC8BF174603FB07
S31500002B0007513C46FFF7C3FF0C23E1E7F30710D458
S31500002B10023E06EBD676B4EB660F0AD161000C20B6
S31500002B204E1C01FB000100FB045034462944FFF70C
S31500002B30AEFF661E0C27494601A806EBD676FFF7C0
S31500002B408DFF7610A04507FB045015DA07FB06F348
S31500002B50E918EB5893ED017A019BD3ED017AB4EEB7
S31500002B60E77AF1EE10FA07DDFFF791FF731E3446A0
S31500002B7003EBD3735E10E5E701A9FFF788FF01A811
S31500002B80FFF72AFB05B0BDE8F08F000070B50546DB
S31500002B9088B00C461646114602A8641BFFF75EFF76
S31500002BA029463046FFF773FF0A4AA41002A905A872
S31500002BB062430192FFF752FF05AB019A00212846B6
S31500002BC0FFF776FF05A8FFF707FB02A8FFF704FB50
S31500002BD008B070BDABAAAAAA1FB50446014601A853
S31500002BE0FFF73CFF2046019A0C3C50F80C3C92ED56
S31500002BF0017AD3ED017AB4EEE77AF1EE10FA03DD4D
S31500002C002146FFF744FFEDE701A9FFF740FF01A8C2
S31500002C10FFF7E2FA04B010BD88422DE9F0430546FD
S31500002C2085B00F4633D000F10C04DFF86880A74268
S31500002C302DD026462B6856F80C2BD3ED017A92ED53
S31500002C40017AB4EEE77AF1EE10FA1CDD2146641B38
S31500002C50B14601A8A410FFF701FF08FB04F4002CFD
S31500002C6008DDA9F11801A9F10C09013C4846FFF756
S31500002C700EFFF4E7284601A9FFF709FF01A8FFF7B1
S31500002C80ABFA3446D3E72046FFF7A6FFF9E705B0CF
S31500002C90BDE8F083ABAAAAAA2DE9F04F4FF00C0BC2
S31500002CA089B00446174698460D46DFF824A100EB86
S31500002CB00B092E1BC02E40F38880B6100AFB06F6C1
S31500002CC047BBB71E4FF00C087F1008FB074102A850
S31500002CD0FFF7C4FE02A905A8FFF7C0FE204605AB14
S31500002CE032463946FFF7E4FE05A8FFF775FA67B9DD
S31500002CF002A8FFF771FA2B1B0C3D0C2B65DD2A464B
S31500002D0029462046FFF742FFF5E702A8013FFFF7F5
S31500002D1063FADAE77610E368013F0BFB06F6D3EDBC
S31500002D20016AA359A11993ED017A55F80C3CF4EE0A
S31500002D30C76AD3ED017AF1EE10FA32DDB4EEE77A26
S31500002D40F1EE10FA25DD20464E46FFF792FE2946A3
S31500002D502368D3ED017A336893ED017AB4EEE77A0E
S31500002D60F1EE10FA2FDCA1F10C0319460C3B0A68B0
S31500002D7092ED017AF4EEC77AF1EE10FAF5DC8E42A6
S31500002D801CD3294643463A4630463546FFF784FF6C
S31500002D908FE7F4EEE76AF1EE10FA07DDA5F10C0114
S31500002DA0D1E7F4EEE76AF1EE10FA01DD4946CAE72B
S31500002DB0B4EEE77AF1EE10FAC5DDEFE730460191A1
S31500002DC0FFF757FE01990C36C2E709B0BDE8F08F50
S31500002DD0ABAAAAAA000000002DE98048ADF50B7D3C
S31500002DE011F00CFE002308900FA970481193CDE94D
S31500002DF00F3313F06BFE044630B96C496C4825F06E
S31500002E004BF8204612F08AFA6A4C2378BFF35B8FA0
S31500002E10DB070ED4204622F094FD50B1664819F027
S31500002E20B9FF204622F099FD644A6549624822F0BE
S31500002E307DFD012260490BA81AF0D8FF0B9C2CB926
S31500002E40604825F029F8204612F068FA0AAD5E4B74
S31500002E5000243AA82B605D4B56943A93CDE95B4427
S31500002E60FFF7E0F934F0ACFC594902463AA8FFF7FF
S31500002E7027FA1BF075FA574902463AA8FFF720FAD7
S31500002E800F994FF400033AAA086800930144524B85
S31500002E905DA80195CDE9024434F0F2FC5DA834F05A
S31500002EA03FFD28B14D4824F0F7FF204612F036FAD0
S31500002EB05D9B1A689A1A1188082940F22A85128998
S31500002EC09918002A00F025859A588B188A5832B925
S31500002ED0434B40F20111434A434823F0C9FC191DF4
S31500002EE05B68CA18CB58D31A1988062940F211858F
S31500002EF0DB88D118002B00F00C85D358CB58012B5A
S31500002F0005D03A4824F0C8FF002012F007FA002145
S31500002F10022014F0C3FA00215DA8DFF8EC9034F02B
S31500002F205BFC8368324F8046D96800209C68396014
S31500002F30C9F800404C4318F0BFFD06460C2022F0AD
S31500002F400FFD32AA06FB04F105462A4CFFF74CF9A1
S31500002F50D9F8002039682848256024F09DFF2368A9
S31500002F600C20264ED3E90031C91A069122F0F8FC4E
S31500002F7032AA06990446FFF737F9214B00215DA8CE
S31500002F801C60002434F048FC002105461D4824F04E
S31500002F9083FFAB681A68A24238DD03EB8403304630
S31500002FA00134596824F078FFF3E700BFDECB020056
S31500002FB04DC8020090BE002098BE00200080002070
S31500002FC04F23000068C8020024AD2520A0CB0200D4
S31500002FD08FC80200CCCB020000000081ACC8020002
S31500002FE0CEC80200D9C80200D3C9020019CA02001D
S31500002FF040BE00200CBF002048CA020070CA020072
S3150000300008BF00205FCA020038BE0020BC4824F07A
S3150000301043FFBC4ED8F80C300021BB4C5DA8336092
S31500003020D8F81030B94D236034F0F6FBC3680021A0
S315000030305DA82B6034F0F0FBB54A0369D6ED006A53
S315000030401360049395ED007AB248B7EEC77A9FED08
S31500003050AA9B8DED027BB7EEE67A2368009353ECCC
S31500003060172B24F019FFAC4824F016FF0023079312
S3150000307011F0C4FC00210990022014F00FFAA74BAE
S315000030804FF0FF31186810F085FD012840F0A88147
S31500003090202200212AA8A24E23F0FCFFA14BDFF834
S315000030A0BCA21F68A04B1D6833681C689AF80030E4
S315000030B0BFF35B8F13F0010B12D1504622F041FC97
S315000030C070B1DFF874925046984B89F854BFC9F82E
S315000030D0003022F042FC964A9649484622F026FCE9
S315000030E0032330942AAC2E9532ADCDE92C3701233B
S315000030F032AF8DF8C4300FCC0FC594E80F0085E8C9
S315000031000F0000232020CDE92433269322F028FC4B
S3150000311000F1200C04462490CDF898C0CDF894C058
S315000031200FCF0FC495E80F0084E80F0024A982484A
S3150000313019F06EF90446249808B122F0FCFB2CB96C
S315000031407E4824F0A9FE099B089391E701210846D1
S3150000315014F0A4F93368D8F80400D3E90012521A1F
S3150000316023F070FF0021012014F098F95DA834F0D7
S315000031702FFB10B1724824F08FFE7248002424F011
S315000031808BFE00215DA834F047FB0A229FED6E0AF4
S315000031905DA932A814941A942094CDE91244CDE97D
S315000031A01844CDE91E4434F063FB3494DDE93273F0
S315000031B0CDE932440693079B13B1184622F0BBFBB8
S315000031C0329808B122F0B7FB0021022014F066F90C
S315000031D0069B9F4200F001810026BA4634463546DA
S315000031E0DAED007A0DF1E00BDAF81430DAF80800BF
S315000031F0F8EEE77ADAF81020DAF80C10DAF804C0FC
S31500003200379300233490182036922693CDED327AE8
S31500003210CDF8CCC03591CDE9243322F0A1FB32ABF9
S3150000322000F1180E02462490CDF898E09C4608322C
S31500003230BCE80300DC4542F8080C42F8041C63466F
S31500003240F4D1A642CDF894E04AD020460C3424A905
S31500003250FFF704FC24A80AF1180AFEF7BDFF069B37
S315000032609A45BDD12E4B1B68D3E90012374B521A33
S315000032701B68186823F0E6FE002328481A461946FC
S31500003280006810F077F91EA8FEF7A6FF18A8FEF74B
S31500003290A3FF12A8FEF7A0FF0797A54200F0A7809C
S315000032A0661B2B4A21462846B3105A434FF00003AB
S315000032B0B2FA82F2C2F11F025200FFF7EDFCC02EF5
S315000032C040F3918005F1C00628463146FFF7A4FC7D
S315000032D0A64200F08C8030460C36FFF77DFCF7E7FF
S315000032E0731B1B4E9A1056431A4A964238D11A48F7
S315000032F022F004FCAFF300809A9999999999C93FF5
S315000033000F1C0300F8BE002000BF0020FCBE0020FA
S3150000331004BF002074CA020093CA02007CBE0020CB
S315000033200CBF002038BE002040BE00208C1F0300CA
S315000033300080002085180000E0AE0020A8CA020028
S31500003340D5CA0200EFCA02009A99193F08BF0020A9
S31500003350ABAAAAAAAAAAAA0A42C30200DCAE002005
S31500003360012E314638BF0121761880F0D08256B141
S31500003370964228BF16460C200793704322F0F0FAB7
S31500003380079B834600E0B3460BEB030024A9FFF737
S3150000339065FBA9465B46A1450CD0494618460793EE
S315000033A0FFF75CFB484609F10C09FEF715FF079B82
S315000033B00C33F0E7641B774BA4085C430C2324F022
S315000033C0404404FB03345C441DB1284622F0B3FAA2
S315000033D00C2303FB06B65D463CE70024254641E781
S315000033E00024254659E721462846FFF715FC002309
S315000033F0DFF8CC91621B921009FB02F29A42069208
S3150000340055D903F1010A0C27D3465F43621B92107C
S3150000341009FB02F293453CD2EA5911682A91516898
S315000034202B9191682C91D1682D9111692E910C21C7
S31500003430526901FB0BF12F926A186958086832909D
S315000034404868339088683490C86835900869369023
S315000034502AA84969379132A9FEF708FEB7EEC00AD5
S31500003460B4EEC90BF1EE10FA1EDD02F10C06A6420F
S3150000347011D0A61BB61009FB06F6002E02F10C01B0
S3150000348009DD10460691FFF702FB0699013E0A4642
S31500003490F3E75346AEE70C3C0BF1FF3B2046FEF745
S315000034A09BFE3D4824F0F8FC0BF1010BAEE7DDE98D
S315000034B008233A492F46981A394B10224FF0000933
S315000034C0009024A8FEF734FE364A002124A822F0F4
S315000034D0EFFD01462AA80DF14C0A22F08FFC324975
S315000034E02AA822F021FE014632A822F087FC32A942
S315000034F02E4822F0A3FC32A822F0E6FB2AA822F0EE
S31500003500E3FB24A822F0E0FB294B102223491B7879
S3150000351024A80093274BFEF70BFE274A002124A878
S3150000352022F0C6FD01462AA822F068FC1E492AA8F8
S3150000353022F0FAFD014632A822F060FC32A91B48AF
S3150000354022F0EEFD32A822F0BFFB2AA822F0BCFB37
S3150000355024A822F0B9FB1949144822F0FBFD12A851
S31500003560FEF78AFF069B994500F08A813B6856461E
S3150000357093ED008ABDEEC88A18EE103A03F1010BEE
S31500003580149BFBB11A699345D6BF1E46DB689B6840
S31500003590F7E700BFABAAAA2AFFCA020025970200D6
S315000035A006CB02000ACB02003ECB0200E0BE0020A2
S315000035B078BE00205CCA020015CB02002ACB0200AE
S315000035C0ABAAAAAA564502D033699B452DDA2C2010
S315000035D0089622F0C5F900F11C03C0F810B00646A3
S315000035E043610023089A00F1140B836112A9037743
S315000035F000F110030DA8FEF7F7FEDDE90D32002AF3
S3150000360000F03481002B40F02F81524500F02C81D0
S31500003610306913699842ACBF0020012053463146F9
S3150000362022F00AFA179B0133179306F1140118A822
S3150000363022F0B8FDB84B1022B8491EA88DED008ABD
S31500003640FEF776FDB64A00211EA822F031FD01469E
S3150000365024A822F0D3FBB34924A822F065FD014635
S315000036602AA822F0CBFB18A92AA822F053FD01466E
S3150000367032A822F0C3FB32A9AB4822F051FD32A892
S3150000368022F022FB2AA822F01FFB24A822F01CFB12
S315000036901EA822F019FB3B6824A893ED010AFEF749
S315000036A07DFD0523002224A92AA822F0D1FD9F4AE8
S315000036B000212AA822F0FCFC014632A822F09EFB3B
S315000036C032A9994822F02CFD32A822F0FDFA2AA848
S315000036D022F0FAFA24A822F0F7FA9549924822F045
S315000036E039FD3B6824A893ED010AFEF757FD914A80
S315000036F0002124A822F0DCFC01462AA822F07EFB49
S315000037008D492AA822F010FD014632A822F076FB48
S3150000371032A9854822F004FD32A822F0D5FA2AA85B
S3150000372022F0D2FA24A822F0CFFA3B6824A893ED1F
S31500003730030AFEF733FD814A002124A822F0B8FCD3
S3150000374001462AA822F05AFB7B492AA822F0ECFC63
S31500003750014632A822F052FB32A9734822F0E0FC5F
S3150000376032A822F0B1FA2AA822F0AEFA24A822F052
S31500003770ABFA3B6824A893ED020AFEF70FFD704AE8
S31500003780002124A822F094FC01462AA822F036FB48
S3150000379069492AA822F0C8FC014632A822F02EFB6D
S315000037A032A9614822F0BCFC32A822F08DFA2AA880
S315000037B022F08AFA24A822F087FA3B6824A893ED1F
S315000037C0050AFEF7EBFC5F4A002124A822F070FCF4
S315000037D001462AA822F012FB57492AA822F0A4FC87
S315000037E0014632A822F00AFB32A94F4822F098FC83
S315000037F032A822F069FA2AA822F066FA24A822F052
S3150000380063FA3B6824A893ED040AFEF7C7FC4E4A08
S31500003810002124A822F04CFC01462AA822F0EEFA48
S315000038204A492AA822F080FC014632A822F0E6FA8C
S3150000383032A93D4822F074FC32A822F045FA2AA8A3
S3150000384022F042FA24A822F03FFA069B013B4B45A0
S3150000385003D03949344822F07DFC18A809F1010942
S315000038600C3722F031FA7DE60120D7E65846089358
S3150000387022F02AFA304622F05EF8089B1E46D4E66D
S31500003880294E4FF000093249304622F063FC314B95
S3150000389083F80090304B1A6873689A420ED22F480C
S315000038A02E4624F0F9FA149912A8FEF762FDA642F4
S315000038B026D030460C36FEF78FFCF8E7284F4FF03F
S315000038C0FF31386810F066F901280AD1254B3168B6
S315000038D0186824F079FC4B464A46494638680FF08A
S315000038E049FE01202E4611F0A9F9149912A8FEF7F7
S315000038F040FDA64204D030460C36FEF76DFCF8E7D4
S31500003900002D3FF420AC284622F015F81BE416469D
S3150000391031E500231B68FFDE5CCA02002597020022
S3150000392035CB02009A610300E0BE00209B610300D4
S315000039303DCB020040CB02003ECB020049CB020049
S3150000394051CB020059CB020061CB02006ACB0200C8
S3150000395069CB020078BE0020048000206CCB0200F8
S3150000396074BE00203CBE002013B5064C01AA0649D1
S315000039702046FDF7CDFF054A0549204621F0D6FF32
S3150000398002B010BDE0BE0020111C03000080002024
S31500003990315E020008B121F0CEBF704703681944BA
S315000039A001607047531A0F2B73B504460D46164631
S315000039B0019306D9002201A922F064F9019B206037
S315000039C0A36032462946206822F0D7F9019B226877
S315000039D000216360D15402B070BD10B50446104694
S315000039E0D4E900236FF000449B1AE21A8A4201D2FE
S315000039F022F084F8994238BF1946C91805D2002921
S31500003A00ACBF08466FF0004010BD2046FCE7091A1F
S31500003A1008B5531A29B10A460146184623F020FB79
S31500003A200346184608BD10B50C1A134605D00146C4
S31500003A302246184623F014FB0346181910BD000051
S31500003A402DE9F743154607460C461A46AB427DD08C
S31500003A505E1BD0E90183A3EB0803B34246D3A8EB70
S31500003A6001094E4518D2A8EB060942464146013DDA
S31500003A704846FFF7D8FF7B6842464946334426440A
S31500003A8020467B60FFF7C3FF331B002B5EDD15F876
S31500003A90013F04F8013BF7E7494601A80195FFF706
S31500003AA07DFF019B7968D21A013B0A44501A00280F
S31500003AB004DD13F8010F01F8010BF7E77A68A6EBAE
S31500003AC009064146204632447A60FFF7ACFF7B6820
S31500003AD04B447B60019B5B1B013D23441A1B002A60
S31500003AE034DD15F8012F04F8012BF7E7194A3146A2
S31500003AF0FFF773FFB0F1000915D001DA21F0F8FFE6
S31500003B0021F02EFF8046214642463868013DFFF7E8
S31500003B108AFF03468119CA1A002A06DD15F8012F05
S31500003B2003F8012BF7E7C846EDE7002EACBF821974
S31500003B30021C79682046FFF776FF04463868FFF7CF
S31500003B4029FF08EB0900C7E90084B86003B0BDE8A7
S31500003B50F08300BF15CC02002DE980480622AFB0E5
S31500003B600121022033F0D8FE002410250222002372
S31500003B702146009507460B940A94CDE9082308AB25
S31500003B8041F2060233F0B0FE2A4621460CA823F085
S31500003B9081FA02232A460CA98DF8313046F67A13AB
S31500003BA03846ADF8323033F023FE0121384633F083
S31500003BB09FFE00223846A24D114633F041FE28AA48
S31500003BC0A049824610A80794CDE90544FDF7A0FE5A
S31500003BD028AA9D4916A8FDF79BFE28AA9B491CA862
S31500003BE0FDF796FE4FF0FF3128680FF0D3FF01284E
S31500003BF040F07A81964B974A186805AB9649009330
S31500003C001E2312680968006815F0DEFB0023286889
S31500003C101A461946914D0FF0ADFC24AB4FF0FF311B
S31500003C2028688DF89040CDE922340FF0B3FF0128C3
S31500003C300AD18B4B22A8196822F013FA00232868B0
S31500003C401A4619460FF096FCDDE905329A4200F055
S31500003C50488110992AAD119A4FF0000328A828959B
S31500003C600A44FFF79FFE28997E4824F015F928A8F4
S31500003C7022F02AF822997C4824F00EF91C991D9A04
S31500003C804FF0000328A828950A44FFF78BFE2899D1
S31500003C90764824F001F928A822F016F8119B179D02
S31500003CA02A941D44239B1D441D9B1D44DDE90523C9
S31500003CB0CDE928449B1A1D44002D02DA6C4821F0F8
S31500003CC01DFF13D0284621F04BFE0646DDE92812DB
S31500003CD0521A002A03DD039123F0C2F903993544F1
S31500003CE00846FFF757FE2A95CDE928664FF00003F0
S31500003CF0169A299928A88DF80030179B1344FFF7C8
S31500003D009FFEDDF8A490DDE905B55D4512D02A9B3E
S31500003D10A5EB0B05A3EB09039D4235D82A46594668
S31500003D20484623F09DF9299A494648462A4429924D
S31500003D30FFF779FE4FF00003109A299928A88DF80D
S31500003D400030119B1344FFF77BFE299EDDE92258C4
S31500003D5005EB0809A94500F0A2802A9B9B1B984504
S31500003D604ED8002104A80495FFF718FE049A299955
S31500003D70A9EB0203013A0B44581A00282DDD12F86C
S31500003D80010F01F8010BF7E73A4A294628A8FFF781
S31500003D9024FEB0F100081ED001DA21F0A9FE21F0C0
S31500003DA0DFFD0646324649462898FFF73CFE2A467E
S31500003DB05946039023F054F9039B299948465A190A
S31500003DC0FFF731FE05462898FFF7E4FDCDE92865A3
S31500003DD046442A96AEE74646E4E7299A31463046F7
S31500003DE042442992FFF71FFE049B5B1B013D3344AF
S31500003DF09A1B002A53DD15F8012F06F8012BF7E769
S31500003E001C4A414628A8FFF7E8FDB0F1000914D086
S31500003E10C3DB21F0A5FD834631465A462898013D6D
S31500003E20FFF701FE034600EB0801CA1A002A23DD4C
S31500003E3015F8012F03F8012BF7E7CB46ECE700BF97
S31500003E407CBE00202DCC02003CCC02004FCC0200F0
S31500003E5008BF002038BE002040BE002074BE0020EF
S31500003E603CBE002060CC020070CC020082CC020076
S31500003E708CCC020015CC0200B8F1000FACBF00EBF1
S31500003E800802021C29993046FFF7CDFD0546289801
S31500003E90FFF780FD0BEB0900CDE928B52A904FF01E
S31500003EA000031C9A299928A88DF800301D9B1344FD
S31500003EB0FFF7C6FD2899299A00235046521A33F077
S31500003EC0C7FC054601461248DDE92832D21A23F01E
S31500003ED0E3FF002D02DA0F4823F0D6FF2898FFF7FC
S31500003EE059FD22A821F0F0FE504633F085FC012052
S31500003EF010F0A4FE1CA821F0E7FE16A821F0E4FEAF
S31500003F0010A821F0E1FE0598FFF744FD4DE600BF3D
S31500003F109CCC0200B5CC020013B5019012F01AFB3E
S31500003F20044618B1019A002123F0B4F8204602B0E5
S31500003F3010BD12F011BBEFF305835BB1EFF31183F4
S31500003F404FF0200282F31188BFF36F8FBFF34F8FBC
S31500003F50036070470EF0AEBFEFF3058313B180F335
S31500003F60118870470EF0D4BF4FF47A73584300F2AD
S31500003F70E730B0FBF3F010F061BE000010B5044668
S31500003F8030B9084B4FF4B871074A084822F070FC64
S31500003F90FF200FF0BBFA10B12060002010BD43F2E5
S31500003FA0DD70FBE729CD02008DCD0200D4CC0200E6
S31500003FB008B530B90B4B40F2A1110B4A0B4822F061
S31500003FC057FC4B1C00681EBF4FF47A735943B1FB74
S31500003FD0F3F10FF0DFFD002843F2DE7018BF00207A
S31500003FE008BD00BF29CD0200A1CD0200D4CC02003D
S31500003FF013B530B9154B40F2C311154A154822F0D6
S3150000400037FC0068EFF30583B3B1002401A90194DE
S315000040100FF076FC01280CD1019840B10E4B4FF001
S3150000402080521A60BFF34F8FBFF36F8F204602B0E6
S3150000403010BD43F2DD70FAE71A4619460FF09AFAF8
S31500004040012843F2DD7008BF0020F0E729CD020009
S31500004050B3CD0200D4CC020004ED00E010B5044656
S3150000406030B9084B40F2ED11074A084822F000FC2F
S3150000407004200FF09BFB10B12060002010BD43F21E
S31500004080DD70FBE741CD0200C5CD0200D4CC0200B5
S3150000409008B530B90B4B40F20A210B4A0B4822F007
S315000040A0E7FB4B1C00681EBF4FF47A735943B1FB04
S315000040B0F3F10FF05DFE002843F2DE7018BF00201A
S315000040C008BD00BF41CD0200D5CD0200D4CC020010
S315000040D008B530B9074B40F22A21074A074822F0B3
S315000040E0C7FB00680FF038FB002843F2DD7018BFED
S315000040F0002008BD41CD0200E3CD0200D4CC020071
S3150000410008B530B9054B4FF41071054A054822F041
S31500004110AFFB00680FF01EFF002008BD41CD020076
S31500004120F3CD0200D4CC020038B50D46044630B9B2
S31500004130084B4FF41471084A084822F099FB0EF018
S31500004140B5FC206010B10020257138BD43F2DD704A
S31500004150FBE700BF55CD020004CE0200D4CC02001E
S3150000416037B50025019530B9144B40F26A21144A3F
S31500004170144822F07DFB0068E8B1EFF30584B4B182
S3150000418001AA0EF0DDFD012804D00F4B4FF41E717D
S315000041900B4AEDE7019840B10C4B4FF080521A6084
S315000041A0BFF34F8FBFF36F8F284603B030BD0EF0BD
S315000041B03DFD2046F9E743F2DD70F6E755CD0200F6
S315000041C014CE0200D4CC020069CD020004ED00E05A
S315000041D073B5069D30B9114B40F2E121104A1148E2
S315000041E022F046FB066821F07F449EB101793046F5
S315000041F0009313460A1E214618BF01220EF064FCE6
S31500004200204005B12860002843F2DE7018BF002068
S3150000421002B070BD43F2DD70FAE700BF55CD020073
S3150000422021CE0200D4CC020008B530B9074B40F2CB
S315000042301731074A074822F01BFB006818B10EF039
S3150000424051FD002008BD43F2DD70FBE755CD0200AD
S315000042502FCE0200D4CC020010B504460846114603
S3150000426034B9084B40F22D31074A084822F000FBCA
S3150000427000220FF0FFF810B12060002010BD43F2BD
S31500004280DD70FBE77ACD020040CE0200D4CC0200FE
S3150000429013B530B9144B40F24931144A144822F090
S315000042A0E7FA002400680194EFF305839BB12346E7
S315000042B001AA0FF08DFA012812D1019B13B9002033
S315000042C002B010BD0B4B4FF080521A60BFF34F8FF8
S315000042D0BFF36F8FF3E71A460FF04CF90128EED0C3
S315000042E043F2DD70ECE700BF7ACD02004FCE02004C
S315000042F0D4CC020004ED00E008B530B90B4B40F217
S3150000430071310B4A0B4822F0B3FA531C00681EBFEA
S315000043104FF47A735A43B2FBF3F20FF07BFB01289A
S3150000432043F2DE7008BF002008BD00BF7ACD020050
S315000043305BCE0200D4CC020008B530B9054B40F282
S31500004340A131054A054822F093FA00680FF002FEF3
S31500004350002008BD7ACD020067CE0200D4CC020050
S3150000436007B5186C01A99A630FF0CAFA019B3BB115
S31500004370054B4FF080521A60BFF34F8FBFF36F8F1C
S3150000438003B05DF804FB00BF04ED00E02DE9F04149
S315000043900D4616461F46044630B329B34422002173
S315000043A022F078FE04200FF001FAE06348B1032200
S315000043B0002101200FF05EF8206420B9E06B0FF0B9
S315000043C0C9FD01200EE0A0463A463146284648F887
S315000043D0045B06F047FB28462346044A414606F09E
S315000043E0C7FB0020BDE8F0810420FBE76143000025
S315000043F04FF0FF31C06B0FF0BBBCC06B0FF0ACB918
S3150000440037B504460191FFF7F3FF012813D1019A4E
S31500004410211D206806F0E8FB054628B12046FFF777
S31500004420ECFF284603B030BD4FF0FF31206C0FF093
S31500004430B1FBA56BF2E74FF46175F2E70123024A7F
S315000044401370024A9360704714BF002000000F40AB
S31500004450FFF7F4BF2DE9F8432C4B1C68844228BFB4
S31500004460044604B32A4E2B4D3368DFF8B49023F08C
S315000044700103D9F8008033602B6823F001032B6019
S3150000448072B6BFF34F8FBFF36F8F11F0A3F9224FB0
S3150000449058B9AB686B602B6843F001032B603B682F
S315000044A0013B6B6062B6BDE8F883013C08FB04F390
S315000044B03361336843F001033360BFF34F8F30BF7E
S315000044C0BFF36F8F154B00221A7062B600BF1978C2
S315000044D0B1B11A700E4A0F4D136823F00103136031
S315000044E00EF0E8FC2B68204643F001032B6010F029
S315000044F0D9FD3B68013B6B60BDE8F8430EF008BD93
S31500004500746AD9F80000B4FBF0F4E3E71CBF00209E
S3150000451000000F4010E000E018BF002014BF00208C
S3150000452010BF00200C4B64221A6002220B4B1A604B
S315000045306FF000420A4B1A600A4B4FF08072DA6045
S31500004540002243F8F02C43F8E82C632243F8EC2CC5
S31500004550032243F8F02C704718BF002010BF00203C
S315000045601CBF002000E100E00B1E10DD00F01F0163
S315000045701944BFF34F8F064A0144C2F85C0220304B
S315000045800B1A002BF9DCBFF34F8FBFF36F8F704709
S3150000459000ED00E00B1E10DD00F01F011944BFF313
S315000045A04F8F064A0144C2F8680220300B1A002BCE
S315000045B0F9DCBFF34F8FBFF36F8F704700ED00E05C
S315000045C00B1E10DD00F01F011944BFF34F8F064A82
S315000045D00144C2F8700220300B1A002BF9DCBFF33D
S315000045E04F8FBFF36F8F704700ED00E03C4A08B570
S315000045F0D2F8883043F47003C2F88830394A1388F9
S31500004600580705D5138823F004031B041B0C1380DD
S31500004610354A1388590705D5138823F004031B046C
S315000046201B0C1380314B1A6892044CD5304A5A60E1
S315000046304FF6FF729A601A6822F0A00242F020023A
S315000046401A602C4B1A68900443D5294A5A604FF6D3
S31500004650FF729A601A6822F0A00242F020021A60E5
S31500004660254B1A68D10703D51A6822F001021A6091
S315000046701B4B5A69920315D45A6912F4003211D1B0
S31500004680BFF34F8FBFF36F8FC3F85022BFF34F8F27
S31500004690BFF36F8F5A6942F400325A61BFF34F8FEE
S315000046A0BFF36F8F154A136F23F4005313670C4A39
S315000046B0536943F010035361BFF34F8FBFF36F8FFE
S315000046C000F04AF808BD4CF220525A604DF6281206
S315000046D0ADE74CF220525A604DF62812B6E700BFFD
S315000046E000ED00E00000034000400340008003406E
S315000046F020C528D90000C14010E000E000400E406F
S3150000470010B5C4010E4A04F1814402EBC00004F561
S3150000471098042368C3F30223C05C04F0BDFB23683E
S315000047200246DBB201339A42B0FBF3F006D2054BE8
S3150000473040F6C501044A054822F09AF810BD00BFAC
S31500004740FFCE020077CE0200E8CE02007CCE020049
S3150000475000487047E0BF002008B511F05FFF08BDB4
S3150000476010B592B00420FFF7CBFF142204460021B7
S3150000477001A822F08FFC3022002106A822F08AFC34
S3150000478001A807F047FB012301A919488DF8043059
S3150000479007F068FB04234FF0004216498DF81830E5
S315000047A04FF480331248CDE9072303F10133124A4F
S315000047B003F102230993114BB2FBF4F2CDE90A137C
S315000047C01E2300218DF83030A023534306AA0D93F3
S315000047D041F68463CDE90F3340F20123ADF844304E
S315000047E0234607F0FDFBB0FA80F0400912B010BD79
S315000047F000400D401212780F00CA9A3B2A2A463C06
S315000048007FB5684603F086FC074B69460748009368
S31500004810074B0193074B0293074B039303F0C0FD2D
S3150000482007B05DF804FB00BF20BF00200000444035
S3150000483050BF002080BF0020B0BF002010B5E4B0FC
S315000048404FF49E72002115AC204622F023FC142062
S31500004850FFF756FF4FF4003330212060A360022398
S31500004860009402A8E38140F2033323820C23E3740D
S315000048704FF40063C4E909334023E3622023C4E90B
S315000048800D13074C019405F0BFFB02A9204605F065
S3150000489001FB0449684602F06FFA64B010BD00BF20
S315000048A000C00C40E0BF002038B5044611F0C6FE3B
S315000048B002F0DEF800F056FB01F0A8FD0CB101F0A5
S315000048C099FDFFF74DFF10B90B4823F0E5FA0B4DA4
S315000048D00B4C0C480C4A641B0C49121A22F0B2FB12
S315000048E022460021284622F0D5FBFFF789FFBDE8C6
S315000048F03840FFF7A3BF00BFCACE02000000008108
S31500004900406886810000008100000081FCA503004C
S315000049104B78C0018A781B02013A03F4E063D2B2F5
S3150000492013430A78002A0CBF00224FF0807213430B
S31500004930034A1350BFF34F8FBFF36F8F704700BF0B
S315000049400000CC402DE9F743EC4C00232046ADF89F
S3150000495004308DF8063004F0DBFEE94BE94AD3F863
S3150000496000199142224640F0D882D3F81039DBB2C2
S315000049700B2B40F0D282636923F0005363616368B6
S3150000498023F4F85343F4B0536360A368002BFCDAB6
S31500004990DB4BDD4ED3F87038DB48DA06C3F3001183
S315000049A04ABF00220122114606F024FF01213046AB
S315000049B006F09EFE0121304606F0E0FE022004F0DD
S315000049C011FAD6F8C03043F00203C6F8C03004F03E
S315000049D0EDFA336D43F002033365336943F00203A6
S315000049E03361336943F080733361336A43F01003F4
S315000049F03362336A5B00FCD50024012501A9022736
S31500004A0020468DF805408DF80650FFF781FF01A975
S31500004A1008208DF805404FF006088DF80650FFF780
S31500004A2077FFBA484FF0180903F0B8FEB84804F00B
S31500004A307FF9B84803F028FF21461B22022003F025
S31500004A40B5FF13222946022003F0B0FF02211822E7
S31500004A50084603F0ABFF20220321022003F0A6FF45
S31500004A6004F050F821460D22032003F09FFF112287
S31500004A702946032003F09AFF20220221032003F097
S31500004A8095FF03211622084603F090FFD6F8103250
S31500004A90A14823F00803C6F81032042604F0C6F82D
S31500004AA02946052004F07EF804F01CF920460DEB9B
S31500004AB006018DF805608DF80650FFF729FF0DEB0E
S31500004AC0060138468DF805608DF80670FFF720FF61
S31500004AD003230DEB060130468DF805808DF8063070
S31500004AE0FFF716FF0DEB060105208DF805408DF842
S31500004AF00650FFF70DFF07230DEB060140468DF824
S31500004B0006608DF80530FFF703FFF0230DEB060175
S31500004B1008208DF805408DF80630FFF7F9FE0DEBFD
S31500004B2006010E208DF805408DF80650FFF7F0FEC1
S31500004B300DEB06010F208DF805408DF80690FFF766
S31500004B40E7FE0DEB060110208DF805408DF8069066
S31500004B50FFF7DEFE0DEB060111208DF805408DF8FE
S31500004B600650FFF7D5FE0DEB060112208DF8054025
S31500004B708DF80650FFF7CCFE0DEB060113208DF8DD
S31500004B8005408DF80650FFF7C3FE0DEB0601192010
S31500004B908DF805408DF80650FFF7BAFE0DEB0601BD
S31500004BA01A208DF805408DF80650FFF7B1FE0DEB83
S31500004BB006011B208DF805408DF80650FFF7A8FE6C
S31500004BC00DEB06011C208DF805408DF80650FFF709
S31500004BD09FFE0DEB06011D208DF805408DF8065051
S31500004BE0FFF796FE0DEB06011E208DF805408DF8A9
S31500004BF00650FFF78DFE0DEB06011F208DF80540D0
S31500004C008DF80650FFF784FE0DEB060120208DF887
S31500004C1005408DF80650FFF77BFE0DEB06012120BF
S31500004C208DF805408DF80650FFF772FE0DEB060174
S31500004C3022208DF805408DF80650FFF769FE0DEB32
S31500004C40060123208DF805408DF80650FFF760FE1B
S31500004C500DEB060124208DF805408DF80650FFF770
S31500004C6057FE0DEB060125208DF805408DF8065000
S31500004C70FFF74EFE0DEB060126208DF805408DF858
S31500004C800650FFF745FE0DEB060127208DF805407F
S31500004C908DF80650FFF73CFE0DEB060128208DF837
S31500004CA005408DF80650FFF733FE0DEB060129206F
S31500004CB08DF805408DF80650FFF72AFE0DEB06012C
S31500004CC02A208DF805408DF80650FFF721FE0DEBE2
S31500004CD006012B208DF805408DF80650FFF718FECB
S31500004CE00DEB06012C208DF805408DF80650FFF7D8
S31500004CF00FFE0DEB06012D2010E000BF0080CA401C
S31500004D0000C0CA406959AC570040C84090D1020063
S31500004D1024D4020030D4020098D102008DF8054058
S31500004D208DF80650FFF7F4FD0DEB06012E208DF8E9
S31500004D3005408DF80650FFF7EBFD0DEB06012F2021
S31500004D408DF805408DF80650FFF7E2FD0DEB0601E4
S31500004D5030208DF805408DF80650FFF7D9FD0DEB94
S31500004D60060134208DF805608DF80660FFF7D0FD4A
S31500004D700DEB060135208DF805408DF80650FFF73E
S31500004D80C7FD0DEB060136208DF805408DF806505F
S31500004D90FFF7BEFD0DEB060137208DF805408DF8B7
S31500004DA00650FFF7B5FD0DEB060138208DF80540DE
S31500004DB08DF80650FFF7ACFD0DEB060139208DF896
S31500004DC005408DF80650FFF7A3FD0DEB06013A20CE
S31500004DD08DF805408DF80650FFF79AFD0DEB06019C
S31500004DE03D208DF805408DF80650FFF791FD0DEB3F
S31500004DF006013E208DF805808DF80670FFF788FDC8
S31500004E000DEB060140208DF805408DF80650FFF7A2
S31500004E107FFD0DEB060141208DF805408DF806500B
S31500004E20FFF776FD0DEB060142208DF805408DF863
S31500004E300650FFF76DFD0DEB060143208DF805408A
S31500004E408DF80650FFF764FD0DEB06014C208DF83A
S31500004E5005408DF80650FFF75BFD3A4B3A4C1A6851
S31500004E6022F007021A601A6822F0380242EA0902A2
S31500004E701A601A6822F0C0021A605A6822F0030209
S31500004E805A609A6822F003029A60DA6822F49F62F6
S31500004E9022F00702DA601A6922F002021A615A69E0
S31500004EA022F0050232435A615A6922F002025A611F
S31500004EB09A6922F002029A619A6922F001029A61C5
S31500004EC09A6D22F001029A65DA6D22F00102DA6526
S31500004ED01A6E22F001021A665A6E22F001025A6612
S31500004EE09A6E22F001029A66DA6E22F00102DA6602
S31500004EF02368164AC3F30223D05C03F0CDFF236870
S31500004F00DBB22B449842B0FBF3F215D2104B40F6BD
S31500004F10C501104A104821F0ABFC536923F0005339
S31500004F205361536823F4F85343F4A85353600B4A70
S31500004F309368002BFCDA2BE5094B1A6003B0BDE839
S31500004F40F08300BF00400E400000CC40ACD1020010
S31500004F5077CE020077D102007CCE02000080CA40E4
S31500004F6008800020FFF7EEBC104642B10023137301
S31500004F70536833B11B6823B10A4602211847032040
S31500004F80704701207047104642B10023537353689F
S31500004F9033B11B6823B10A46012118470320704725
S31500004FA0012070472DE9F043044687B018B9012067
S31500004FB007B0BDE8F083837B002BF8D04268926887
S31500004FC051799942F3D303F1005312680C2740F646
S31500004FD0024C013B02EBC30612F8335000239D42FC
S31500004FE0E5D907FB03F270688118825A62453BD106
S31500004FF00D7A00239D422DD80026CB782374002EEF
S31500005000D5D000250120DFF870802F46DFF86C90A0
S31500005010A6603379AB42CBD90623B2688DF8087007
S315000050206B43D118D25C8DF80620D2094B88ADF8B7
S3150000503004304B788DF8073018D0022B02D1277335
S31500005040CDF80C9003AA01A920680135049408F054
S3150000505021F9DEE71A01486800EB0316805CE27B63
S315000050609042CAD00133C5E70133B8E7022B04BF2B
S315000050706773CDF80C80E5E7874F0000694F0000A5
S31500005080836870B5044693B1002501200626A368FF
S315000050901A79954202D30023A36070BD9A6806FB75
S315000050A005F320680135D15C08F013F9EFE701201C
S315000050B0F3E7000070B50A4C0E46154623685BB947
S315000050C0214601F00FFD30B923683BB14FF47F4311
S315000050D06660E3812C6070BD0220FCE70320FAE7DE
S315000050E00000002010B5044630B1FFF7C9FF0023C9
S315000050F0C4E90033E38110BD0320FCE77FB5044615
S315000051001546002A60D000285ED0CBB2013B032BA7
S3150000511054D8DFE803F01E020640002383730124FF
S3150000512014E04368002BFAD02A78837B9A42F6D0A3
S31500005130FFF7A6FF2B782046A3730023E373FFF740
S3150000514031FF044610B1214807F010FE204604B096
S3150000515070BD2B68227C197998889142DFD12E1D6B
S31500005160ADF808005888009605F10806ADF80A0063
S31500005170287B01968DF80C005B78222B07D163689B
S315000051806A460B2120461B6898470446DEE710480E
S3150000519007F0ECFDC3E74368002BC0D02D88037CE5
S315000051A0B3EB152FBBD1EDB2C37BAB42B7D0FFF744
S315000051B067FF2046E573FFF7F5FEE6E70A46054872
S315000051C0054907F0D3FDAAE70324BFE73CD4020054
S315000051D056D4020088D402009BD4020038B5044697
S315000051E048B1057B4DB901202073206808F03EF8D0
S315000051F000B1257338BD0320FCE70220FAE738B575
S31500005200044648B1457B4DB901206073206808F01B
S3150000521033F800B1657338BD0320FCE70220FAE7D6
S315000052202DE9F04390F8943087B004461BB901206D
S3150000523007B0BDE8F0834268926851799942F6D387
S315000052401268002AF3D003F100530C27013B02EB4E
S31500005250C30612F8335000239D42E8D907FB03F238
S3150000526070688118825C082A2CD10D7A00239D4231
S315000052701DD80027CB7884F89530002FD7D000268C
S315000052800120DFF88C803546DFF88890A7603B79EF
S31500005290B34219D80123E560C4F88450C4F88830B5
S315000052A084F88C5084F88F5084F89650C0E71A0121
S315000052B0486800EB0317805C94F893209042D9D09D
S315000052C00133D4E70133C7E70623B9688DF80850E0
S315000052D073430136CA1810798DF80900CB5C206833
S315000052E08DF806305188ADF8041001A9527804945F
S315000052F08DF80720DA0903AA15BF84F8913084F8DF
S315000053009230CDF80C90CDF80C8007F0C3FFBEE7C5
S315000053102559000069570000836870B5044693B1AB
S31500005320002501200626A3681A79954202D3002398
S31500005330A36070BD9A6806FB05F320680135D15C51
S3150000534007F0C7FFEFE70120F3E70000F8B5214CAF
S315000053500F4616462568002D3AD104F198032146DA
S31500005360A36104F1B803E36104F1C803236204F105
S31500005370DC03E36304F1E403236404F1F00323652F
S3150000538001F0B0FB30B184F8945084F89350C4E92E
S315000053900055F8BD236833B9606084F8940084F83A
S315000053A093000320F5E7FF23702284F8940084F825
S315000053B09330236A606167601A700A229870DA7106
S315000053C01873587384F88D0084F88E003460E0E713
S315000053D00220DEE71400002010B5044648B1FFF7AE
S315000053E09BFF0023C4E9003384F8943084F893309B
S315000053F010BD0320FCE7F0B504468FB01646002A20
S3150000540000F06F81002800F06C81C9B201390529CE
S3150000541000F26B81DFE811F03401060043006700FB
S315000054208C00BC00002301AA052180F89430436853
S315000054301B689847019B0546002B00F05481013BF1
S3150000544001AE4FF0010C04F1440E84F89030B368BD
S315000054501BB373680BB3331D0EEB0C170FCB87E82A
S315000054600F0094F890205FFA8CF39A4205D30CF162
S31500005470010C1036BCF1040FE9D1226A70231370B7
S315000054800A23D371002393701373537384F88D30FA
S3150000549084F88E3028460FB0F0BD0125E1E7436859
S315000054A0002B00F0228190F8943012789A4200F096
S315000054B005810BB1FFF730FF3378204684F894302E
S315000054C0002384F89330FFF7ABFE05460028E1D1B0
S315000054D01F23A26994F89210206807F0CDFE0123DD
S315000054E084F88D30D6E74368002B00F0FE801688DE
S315000054F090F89530B3EB162F40F0F780F6B290F89F
S315000055009330B34200F0DA80FFF706FF2046FFF73C
S3150000551087FE054648B91F23A26994F892102068B1
S3150000552007F0AAFE012384F88D3084F89360B1E772
S315000055304368002B00F0D9808368002B00F0D580EB
S3150000554090F886307BB9117890F89120012091422D
S3150000555007D184F8860084F88E302068317807F009
S31500005560EFFE054600E0012594F88730002B91D127
S31500005570317894F8922091428CD1012284F88D30B2
S31500005580206884F88720317807F0DAFE054681E73F
S315000055904368002B00F0A9808368002B00F0A580EB
S315000055A090F88950012D3FF475AF90F88650012D83
S315000055B040D1127890F891309A4209D1002380F8B0
S315000055C0863080F88E300068317807F0CAFE0546CE
S315000055D094F88730012B0ED1327894F892309A42A3
S315000055E009D10023206884F8873084F88D3031781B
S315000055F007F0B7FE054694F88F30023B012B29D8F9
S3150000560094F88A30012B17D1B4F88630002B7FF43A
S3150000561041AF94F88D202068012A94F8921084F8FE
S315000056208A3025D184F88D3007F02AFE002384F8CD
S315000056308F302FE70125CBE794F88E302068012BB9
S3150000564094F891100CD184F8963007F019FE0023D7
S3150000565084F88F3094F88A30012B7FF41BAFD3E7A0
S315000056600D23E26907F002FE012384F88E30EEE78F
S315000056701F23A26907F000FE012384F88D30D5E7C9
S3150000568013681A7802F01F05012D2ED190F89500A7
S31500005690197988427FF4FEAE5978FE2903D0FF2996
S315000056A00ED00525F6E659880029FAD1DB88012BAC
S315000056B0F7D11206F5D59034C6E901450025E9E68D
S315000056C059880029EDD1DB88002BEAD11306E8D4EE
S315000056D040F20112A4F8885084F88A50A4F8862073
S315000056E0ECE70325D6E60425D4E60125D2E630B557
S315000056F0036985B0002504460093836902955A7BA9
S31500005700C36800EB02118DF80C20B3F5803F6A46A2
S31500005710C96D28BF4FF480338B4294BF019301912A
S31500005720042143681B689847A36922695B7B94F848
S31500005730911004EB03135B6D9A4206D22068DDE9F3
S31500005740013207F093FD05B030BD0123206884F8CF
S315000057508B5084F88630022384F8855084F88F3085
S3150000576007F0EEFD2846EEE77FB54B6814460E4679
S315000057705A1C2CD194F88530A3B163681D688DB18D
S31500005780A269D37B03F07F03282B0BD10023096882
S3150000579020460291012101930093537B6A468DF8BE
S315000057A00C30A84794F89650012D03D001252846C1
S315000057B004B070BD0023E26994F8911084F8963025
S315000057C00D23206807F052FDA4F88E50EFE7E2683B
S315000057D094F88B5093429CBFD21AE260012D0CD1F3
S315000057E0002394F89110206884F88B3084F8865052
S315000057F084F8853007F0A4FDD9E794F88520BAB976
S315000058000D2BD3D10B681968264B9942CED10125B1
S3150000581084F88E201F23A26994F89210206884F8D9
S31500005820885007F029FD84F88D50C0E701252AE04D
S3150000583062681568002DB9D0019333680293236915
S315000058400093A3695A7B8DF80C20DB7B03F07F0362
S31500005850282B03D16A4601212046A847E368002B7E
S31500005860E4D0A36920465A7B736804EB0212926D5A
S31500005870B3FBF2F2236913442361FFF738FFE368B1
S315000058800546002B93D10023E26994F8911084F821
S3150000589085300123206884F88E300D2307F0E6FC5E
S315000058A085E700BF5553425330B5036985B00025DF
S315000058B004460093836902955A7BC36800EB021184
S315000058C08DF80C20B3F5803F6A46096E28BF4FF469
S315000058D080338B4294BF01930191032143681B6877
S315000058E09847A36922695B7B94F8921004EB031333
S315000058F05B6D9A4206D22068DDE9013207F0BCFCF6
S3150000590005B030BD0123206884F88C5084F88730B8
S31500005910022384F8845084F88F3007F011FD28465E
S31500005920EEE700007FB514464A680E46531C2CD19C
S3150000593094F88430A3B163681D688DB1A269D37BE6
S3150000594003F07F032A2B0BD100230968204602911E
S31500005950022101930093537B6A468DF80C30A847C9
S3150000596094F88D50002D40F0AB81B4F886304BB9D9
S315000059701F23A26994F89210206807F07DFC01238A
S3150000598084F88D30284604B070BDE3689A429CBF07
S315000059909B1AE360A369DB7B03F0BF03152B06D1DB
S315000059A063681B681BB100220B212046984794F8B8
S315000059B08C30012B0CD1002594F89210206884F8C5
S315000059C0873084F88450A4F88C5007F0B9FCD9E7E6
S315000059D094F88450002D37D073680193336802938E
S315000059E023690093A3695A7B8DF80C2062681568B9
S315000059F0CDB1DB7B03F07F032A2B03D16A4602215C
S31500005A002046A847E5688DB1A36920465A7B73688E
S31500005A1004EB0212926DB3FBF2F223691344236185
S31500005A20FFF742FF0546E368002BABD1002384F85D
S31500005A3084300D23E26994F89110206807F016FC73
S31500005A40012384F88E309DE794F88830002B00F00F
S31500005A501E8173681F2B40F01A81A369994A196841
S31500005A60914240F014815E7B16F0F00F40F00F81FA
S31500005A70997B11F0E00240F00A8194F89000013021
S31500005A80864280F0048101390F2900F20081E16924
S31500005A908D4884F88D20E260086058688A60486006
S31500005AA084F8882093F90C009E680028197B02DB95
S31500005AB0321E18BF0122002884F8842008DA3EB17D
S31500005AC0012094F8862084F8850022B1054659E71E
S31500005AD0002284F88520DB7B032B04D0226A002079
S31500005AE0907010735073CA092F2B666284F83920A0
S31500005AF050D8112B0CD8032B00F09480042B00F007
S31500005B009D80002B00F09280204600F039FC57E083
S31500005B10123B1D2BF8D801A252F823F0BB5B000004
S31500005B20095B0000095B00004D5C0000095B00009A
S31500005B30095B0000095B0000095B0000A35B000035
S31500005B406D5C0000095B00005D5C0000355C0000D8
S31500005B50095B0000095B0000095B0000095B0000AF
S31500005B60555C0000095B0000455C0000095B000015
S31500005B70095B00001D5C0000095B0000B35B0000D0
S31500005B80095B0000095B0000095B0000095B00007F
S31500005B90655C00009E2B55D007D8552B56D05A2B46
S31500005BA0B2D1204600F054FA0AE0A82B36D0AA2B30
S31500005BB0AAD1204600F0FCF902E0204600F0AFF939
S31500005BC0236A05469B7843B1E3691A7B2AB9A26921
S31500005BD0D27B032A1CBF01221A73052D0ED194F81D
S31500005BE08430012B46D194F887200AB984F88C308A
S31500005BF0002384F88430022384F88F3094F88430AC
S31500005C00002B7FF4BFAE94F88530002B7FF4BAAE3C
S31500005C1094F88B30002B7FF4B5AE0AE7204600F0EF
S31500005C20A2F9CDE7204600F059F9C9E7204600F071
S31500005C30E4F9C5E7204600F03CFBC1E7204600F04A
S31500005C4019FBBDE7204600F053FAB9E7204600F0FD
S31500005C5023FAB5E7204600F093FAB1E7204600F0B4
S31500005C6049FBADE7204600F0E9F9A9E7204600F038
S31500005C7062FBA5E794F88530012BBCD194F8862009
S31500005C800AB984F88B30002384F88530B3E794F89A
S31500005C909210206807F054FB94F89110206807F0E2
S31500005CA04FFB002384F88D30012384F88F3040F2B7
S31500005CB00113A4F886304FF48073A4F8883061E6A7
S31500005CC000255FE6555342435553425330B4846929
S31500005CD00129647B00EB0414A56D5468126804FB6B
S31500005CE005F40261C46002D130BCFFF700BD30BCD0
S31500005CF0FFF7DABDD0E9093270B504464BB9C16980
S31500005D008B6012B910460A7370BD022218460A73D8
