S00D0000696D6167652E7372656314
S3150000080000000420BD0C0000076201000162010027
S31500000810490D0000490D0000490D000000000000D0
S315000008200000000000000000000000005129010047
S31500000830490D000000000000212A0100852A010060
S31500000840610D0000650D0000690D00006D0D0000D2
S31500000850710D0000750D0000790D00007D0D000082
S31500000860810D0000850D0000890D00008D0D000032
S31500000870910D0000950D0000990D00009D0D0000E2
S31500000880A10D0000490D0000490D0000490D0000B2
S315000008902976000037760000457600005376000082
S315000008A0617600006F7600007D7600008B76000092
S315000008B0C50D0000C90D0000CD0D0000D10D0000D2
S315000008C0D50D0000D90D0000DD0D0000E10D000082
S315000008D0E50D0000E90D0000ED0D0000F10D000032
S315000008E0F50D0000F90D0000FD0D0000010E0000E1
S315000008F0050E0000090E00000D0E0000110E00008E
S31500000900150E0000190E0000490D0000490D0000EB
S31500000910490D0000490D0000490D0000490D000079
S315000009206DB50100490D0000490D0000490D00009C
S31500000930490D0000A96A0100490D0000490D00009B
S31500000940490D0000490D0000490D0000490D000049
S31500000950490D0000490D0000490D0000490D000039
S31500000960490D0000490D0000490D00001D0E000054
S31500000970210E0000250E0000290E00002D0E00009D
S31500000980310E0000350E0000390E0000490D000042
S31500000990490D0000490D0000490D0000490D0000F9
S315000009A0490D0000490D0000490D0000490D0000E9
S315000009B0490D0000BD6A0100490D0000490D000007
S315000009C0490D00003D0E0000490D0000490D0000D4
S315000009D0490D0000490D0000696A01007D6A0100A9
S315000009E0490D0000816A0100956A0100490D000069
S315000009F0490D0000490D0000410E0000450E0000A3
S31500000A00490D0000490D0000490D0000490D000088
S31500000A10490D0000490D0000256201008D7E010090
S31500000A200D3F0000490D0000490D0000490D000072
S31500000A30490D0000490D0000490D0000490D000058
S31500000A40490D0000490D0000490E00004D0E000042
S31500000A50490D0000510E0000550E000039FD010041
S31500000A6045A80100590E00005D0E0000610E000051
S31500000A70650E0000690E00006D0E0000490D0000B5
S31500000A80490D0000490D0000490D0000490D000008
S31500000A90490D0000490D0000490D0000490D0000F8
S31500000AA0490D0000490D0000490D0000490D0000E8
S31500000AB0490D0000490D0000490D0000490D0000D8
S31500000AC0490D0000490D0000490D0000490D0000C8
S31500000AD0490D0000490D0000490D0000490D0000B8
S31500000AE0490D0000490D0000490D0000490D0000A8
S31500000AF0490D0000490D0000490D0000490D000098
S31500000B00490D0000490D0000490D0000490D000087
S31500000B10490D0000490D0000490D0000490D000077
S31500000B20490D0000490D0000490D0000490D000067
S31500000B30490D0000490D0000490D0000490D000057
S31500000B40490D0000490D0000490D0000490D000047
S31500000B50490D0000490D0000490D0000490D000037
S31500000B60710E0000750E0000790E00007D0E00006B
S31500000B70490D0000490D0000490D0000490D000017
S31500000B80490D0000490D0000810E0000850E000091
S31500000B90890E00008D0E0000490D0000490D000071
S31500000BA0910E0000950E0000F1610100F161010057
S31500000BB0F1610100F1610100F1610100F1610100E3
S31500000BC0F1610100F1610100F1610100F1610100D3
S31500000BD0F1610100F1610100F1610100F1610100C3
S31500000BE0F1610100F1610100F1610100F1610100B3
S31500000BF0F1610100F1610100F1610100FFFFFFFFFA
S31500000C0010B5054C237833B9044B13B10448AFF340
S31500000C1000800123237010BDC0AE0020000000003C
S31500000C205064030008B5034B1BB103490348AFF3F7
S31500000C30008008BD00000000C4AE00205064030020
S31500000C40A3F5803A704700BF174B002B08BF134B24
S31500000C509D46FFF7F5FF00218B460F461348144AC1
S31500000C60121A25F007FF0E4B002B00D098470D4BAC
S31500000C70002B00D098470020002104000D000D48ED
S31500000C80002802D00C48AFF3008025F085FE200036
S31500000C90290016F0D1FB25F03DFB00BF000008003F
S31500000CA0000000000000000000000420C0AC00208E
S31500000CB0648C0220000000000000000072B6164896
S31500000CC0164901600A6882F3088815488047154965
S31500000CD0154A164B9A42BEBF51F8040B42F8040B54
S31500000CE0F8E7134A134B9A42BEBF51F8040B42F879
S31500000CF0040BF8E7104B00209A42BCBF42F8040BE5
S31500000D00FAE70E490E4A00209142BCBF41F8040B97
S31500000D10FAE762B60B48804708ED00E000080000DD
S31500000D20A9400000FC65030000800020ACAC002058
S31500000D300000002000000020FC400020C0AC002085
S31500000D40648C0220490C000015F052BA5248004744
S31500000D505248004752480047524800475248004709
S31500000D6052480047524800475248004752480047F9
S31500000D7052480047524800475248004752480047E9
S31500000D8052480047524800475248004752480047D9
S31500000D9052480047524800475248004752480047C9
S31500000DA052480047524800475248004752480047B9
S31500000DB052480047524800475248004752480047A9
S31500000DC05248004752480047524800475248004799
S31500000DD05248004752480047524800475248004789
S31500000DE05248004752480047524800475248004779
S31500000DF05248004752480047524800475248004769
S31500000E005248004752480047524800475248004758
S31500000E105248004752480047524800475248004748
S31500000E205248004752480047524800475248004738
S31500000E305248004752480047524800475248004728
S31500000E405248004752480047524800475248004718
S31500000E505248004752480047524800475248004708
S31500000E6052480047524800475248004752480047F8
S31500000E7052480047524800475248004752480047E8
S31500000E8052480047524800475248004752480047D8
S31500000E9052480047524800470762010001620100BC
S31500000EA051290100212A0100852A01001993000019
S31500000EB05193000089930000C1930000F99300004C
S31500000EC03194000069940000A1940000D9940000B8
S31500000ED0119500004995000081950000B995000024
S31500000EE0F19500002996000061960000490D00006A
S31500000EF021AF000041AF000061AF000081AF0000EC
S31500000F00A1AF0000C1AF0000E1AF000001B00000DA
S31500000F1021B0000041B0000061B0000081B00000C7
S31500000F200DAA000019AA000025AA000031AA000097
S31500000F303DAA000049AA000075AA0000A9AA00005F
S31500000F40DDAA000011AB000045AB000079AB000044
S31500000F50490D0000490D0000490D0000490D000033
S31500000F60490D0000490D0000490D0000490D000023
S31500000F70490D0000490D0000490D0000490D000013
S31500000F80490D0000490D0000490D0000490D000003
S31500000F90490D0000219F0000490D0000C94D0200C7
S31500000FA0E94D0200F597000009980000319800000D
S31500000FB0459800001D98000059980000490D000052
S31500000FC0490D000035B10000490D0000490D000033
S31500000FD0490D0000490D0000490D0000490D0000B3
S31500000FE0490D000081F0004102E000BF83F000439C
S31500000FF030B54FEA41044FEA430594EA050F08BFAE
S3150000100090EA020F1FBF54EA000C55EA020C7FEA71
S31500001010645C7FEA655C00F0E2804FEA5454D4EBEE
S315000010205555B8BF6D420CDD2C4480EA020281EAB8
S31500001030030382EA000083EA010180EA020281EAF0
S315000010400303362D88BF30BD11F0004F4FEA013142
S315000010504FF4801C4CEA113102D0404261EB410151
S3150000106013F0004F4FEA03334CEA133302D05242D7
S3150000107063EB430394EA050F00F0A780A4F1010493
S31500001080D5F1200E0DDB02FA0EFC22FA05F28018CD
S3150000109041F1000103FA0EF2801843FA05F35941B3
S315000010A00EE0A5F120050EF1200E012A03FA0EFC32
S315000010B028BF4CF0020C43FA05F3C01851EBE3715C
S315000010C001F0004507D54FF0000EDCF1000C7EEB79
S315000010D000006EEB0101B1F5801F1BD3B1F5001FB7
S315000010E00CD349085FEA30004FEA3C0C04F10104D6
S315000010F04FEA445212F5800F80F09A80BCF1004FFF
S3150000110008BF5FEA500C50F1000041EB045141EA80
S31500001110050130BD5FEA4C0C404141EB0101013C49
S3150000112028BFB1F5801FE9D291F0000F04BF014638
S315000011300020B1FA81F308BF2033A3F10B03B3F10A
S3150000114020020CDA0C3208DD02F1140CC2F10C029A
S3150000115001FA0CF021FA02F10CE002F11402D8BFF8
S31500001160C2F1200C01FA02F120FA0CFCDCBF41EAC4
S315000011700C019040E41AA2BF01EB0451294330BD93
S315000011806FEA04041F3C1CDA0C340EDC04F1140470
S31500001190C4F1200220FA04F001FA02F340EA030047
S315000011A021FA04F345EA030130BDC4F10C04C4F18D
S315000011B0200220FA02F001FA04F340EA030029466D
S315000011C030BD21FA04F0294630BD94F0000F83F4B7
S315000011D0801306BF81F480110134013D4EE77FEA9A
S315000011E0645C18BF7FEA655C29D094EA050F08BFE6
S315000011F090EA020F05D054EA000C04BF19461046C7
S3150000120030BD91EA030F1EBF0021002030BD5FEA0A
S31500001210545C05D14000494128BF41F0004130BD32
S3150000122014F580043CBF01F5801130BD01F0004586
S3150000123045F0FE4141F470014FF0000030BD7FEAF9
S31500001240645C1ABF194610467FEA655C1CBF0B46F4
S31500001250024650EA013406BF52EA033591EA030F0B
S3150000126041F4002130BD00BF90F0000F04BF002103
S31500001270704730B54FF4806404F132044FF0000536
S315000012804FF0000150E700BF90F0000F04BF0021AF
S31500001290704730B54FF4806404F1320410F0004515
S315000012A048BF40424FF000013EE700BF42004FEA10
S315000012B0E2014FEA31014FEA02701FBF12F07F438D
S315000012C093F07F4F81F06051704732F07F4208BF44
S315000012D0704793F07F4F04BF41F40021704730B54B
S315000012E04FF4607401F0004521F000411CE700BF97
S315000012F050EA010208BF704730B54FF000050AE01A
S3150000130050EA010208BF704730B511F0004502D51A
S31500001310404261EB41014FF4806404F132045FEA1C
S31500001320915C3FF4D8AE4FF003025FEADC0C18BFC5
S3150000133003325FEADC0C18BF033202EBDC02C2F1B7
S31500001340200300FA03FC20FA02F001FA03FE40EA49
S315000013500E0021FA02F11444BDE600BF7BB972B952
S315000013600029BEBF00204FF0004106E008BF00285C
S315000013701CBF6FF000414FF0FF3000F007BAADF12F
S31500001380080C6DE904CE002909DB002B1ADB00F0FE
S315000013909BF8DDF804E0DDE9022304B07047404223
S315000013A061EB4101002B1BDB00F08EF8DDF804E059
S315000013B0DDE9022304B0404261EB4101524263EB96
S315000013C043037047524263EB430300F07DF8DDF8B8
S315000013D004E0DDE9022304B0404261EB41017047BD
S315000013E0524263EB430300F06FF8DDF804E0DDE9F9
S315000013F0022304B0524263EB4303704753B94AB920
S31500001400002908BF00281CBF4FF0FF314FF0FF3006
S3150000141000F0BCB9ADF1080C6DE904CE00F054F84B
S31500001420DDF804E0DDE9022304B07047430803F069
S315000014305533C01A830803F0333300F033301844B1
S3150000144000EB101000F00F3000EB002000EB004026
S31500001450000E704708B502460B4643EC172BB5EE57
S31500001460C07BF1EE10FA03D4BDE8084000F00CB8DA
S31500001470B1EE477B51EC170B00F006F8404261EBEA
S31500001480410108BD000000009FED0B6B41EC170BFE
S315000014909FED0B5B27EE066BBCEEC66BB8EE464BBC
S315000014A0A4EE457BFCEEC77B16EE101A17EE900AEB
S315000014B0704700BFAFF30080000000000000F03D61
S315000014C0000000000000F0412DE9F047089D0446A9
S315000014D08C46002B40F083808A42174647D9B2FAE1
S315000014E082F242B1C2F1200024FA00F09140974006
S315000014F040EA010C94404FEA1748230CBCFBF8F66F
S315000015001FFA87FE08FB16C143EA014306FB0EF1EC
S31500001510994209D9FB1806F1FF3080F019819942EA
S3150000152040F21681023E3B445B1AA4B2B3FBF8F0CC
S3150000153008FB103344EA034400FB0EFEA64509D916
S315000015403C1900F1FF3380F00581A64540F2028187
S3150000155002383C4440EA0640A4EB0E0400261DB1C6
S31500001560D4400023C5E900433146BDE8F08702B9FF
S31500001570FFDEB2FA82F2002A50D1CB1B4FEA174E99
S315000015801FFA87F80126B3FBFEFC210C0EFB1C3369
S3150000159041EA034108FB0CF38B4207D979180CF199
S315000015A0FF3002D28B4200F2E9808446C91AA3B208
S315000015B0B1FBFEF00EFB101143EA014408FB00F8F4
S315000015C0A04507D93C1900F1FF3302D2A04500F22D
S315000015D0D9801846A4EB080440EA0C40BFE78B42CA
S315000015E009D9002D00F0B1800026C5E9000130467A
S315000015F03146BDE8F087B3FA83F6002E4AD18B4216
S3150000160002D3824200F2B880841A61EB0301012002
S315000016108C46002DA8D0C5E9004CA5E7C2F12003F1
S3150000162020FA03F6974001FA02F04FEA174ED94026
S315000016303043030CB1FBFEF61FFA87F80EFB1611BA
S3150000164043EA014306FB08F1994204FA02F409D978
S31500001650FB1806F1FF3C80F08D80994240F28A80AB
S31500001660023E3B445B1A81B2B3FBFEF00EFB103325
S3150000167041EA034100FB08F38B4207D9791800F1D0
S31500001680FF3C73D28B4271D902383944CB1A40EAF7
S31500001690064678E7C6F1200C03FA06F422FA0CF3A4
S315000016A01C4320FA0CF701FA06F34FEA144E21FA0E
S315000016B00CF11F433B0CB1FBFEF91FFA84F80EFB3D
S315000016C0191143EA014109FB08FA8A4502FA06F2B2
S315000016D000FA06F308D9611809F1FF3048D28A45A5
S315000016E046D9A9F102092144A1EB0A01BFB2B1FB17
S315000016F0FEF00EFB101147EA014700FB08F8B8455B
S3150000170007D9E71900F1FF312ED2B8452CD9023896
S31500001710274440EA0940A7EB0807A0FB02894F458A
S31500001720C64649461AD317D05DB1B3EB0E0267EB36
S31500001730010707FA0CFCF2404CEA0202F740C5E941
S31500001740002700263146BDE8F0872E4628460BE7DF
S315000017500646E9E61846FDE64345E5D2B8EB020E35
S3150000176069EB04010138DFE70846D2E760468DE7FA
S315000017708146B9E7664675E730464AE7ACF1020CA2
S31500001780394413E702383C4424E700BF704700BFE2
S3150000179001F0FF01102A2BDB10F0070F08D010F81C
S315000017A0013B013A8B422DD010F0070F42B3F6D120
S315000017B0F0B441EA012141EA014122F007047FF039
S315000017C000070023F0E80256083C85EA010586EA90
S315000017D0010685FA47F5A3FA87F586FA47F6A5FACC
S315000017E087F68EB9EED1F0BC01F0FF0102F00702D8
S315000017F032B110F8013B013A83EA010313B1F8D183
S315000018000020704701387047002D06BF3546033863
S31500001810073815F0010F07D1013015F4807F02BF9C
S31500001820013015F4C03F0130F0BC0138704700BFED
S3150000183010F8012B11F8013B012A28BF9A42F7D074
S31500001840D01A7047034613F8012B002AFBD1181A49
S3150000185001387047014B01221A70704778BE00208C
S3150000186010B504460B6811689847204610BD012A3A
S3150000187003D0022A03D0002070470160FBE70B6803
S315000018800360F8E77047836810B5044613B1032276
S3150000189001469847204610BD70B5094B0446D0E96D
S315000018A001560360AE4204D028461035FFF7EBFF21
S315000018B0F8E7606808B123F09EFD204670BD00BFC2
S315000018C0AC09030070B50D4E3378BFF35B8F13F090
S315000018D0010410D1304623F094FD60B1084D304626
S315000018E0084B85F8544F2B6023F097FD064A28468F
S315000018F0064923F07BFD024870BD00BFDCAE002028
S31500001900E0AE0020181303000080002085180000B8
S3150000191000F1080373B504460D460360E1B10846BD
S31500001920FFF790FF0F2805EB0006019007D900226C
S3150000193001A9204623F006FF019B2060A3603246E2
S315000019402946206823F079FF019B22680021204662
S315000019506360D15402B070BD014823F02CFE00BF75
S3150000196058B7020013B50B4602466C46D0E9000193
S3150000197084E8030093E8030082E8030094E8030088
S3150000198083E8030002B010BD2DE9F84307468846F8
S315000019901646154604464FF0000944451AD0294616
S315000019A02046C5F808901035FFF7DCFFA36855F808
S315000019B0082C2046103444F8082C45F8083C55F805
S315000019C0042C54F8043C44F8042C45F8043CFFF776
S315000019D05AFFE2E7E01B3044BDE8F8832DE9F84FF3
S315000019E0D0E900A993466FF07843A9EB0A020746AF
S315000019F08846B3EB221F4FEA221402D1214823F076
S31500001A00DDFD012C2246A1EB0A0638BF0122A418EF
S31500001A1035D23CB19C4228BF1C46200123F000FD74
S31500001A20054600E025462E44002358463146B3605D
S31500001A30FFF798FFB368DBF808204146CBF808307B
S31500001A405046F368B260DBF80C20CBF80C30F2603D
S31500001A502A46FFF799FF494600F110024046FFF774
S31500001A6093FF0646BAF1000F02D0504623F0C3FC9E
S31500001A7005EB0414C7E90056BC60BDE8F88F1C46A8
S31500001A80CBE700BF82B70200534B002230B51A7075
S31500001A9091B0524B1B6813B9514825F04BFE514B80
S31500001AA01B6813B9504825F045FE1C22002102A8E8
S31500001AB0002424F0DFFF0125FFF704FF02A91AF036
S31500001AC011F84A4B0293FFF7FDFE01211AF07CFC48
S31500001AD0FFF7F8FE02A91AF08DFCFFF7F3FE0121CD
S31500001AE01AF05AFC424825F025FE022340F68C22C5
S31500001AF040494148CDE90034234612F0A9FC23466B
S31500001B0040F68C223D4901943D48009512F0A0FC18
S31500001B10284617F035FA044628B93A4825F00AFE51
S31500001B20204613F05BF9384817F018FA374817F0D3
S31500001B3021FA0A2017F07EFA044628B9344825F01F
S31500001B40F9FD204613F04AF909A817F0D9FA9DF8CD
S31500001B503C40002C33D009992E4825F0EBFD9DF82A
S31500001B603C302BB1002309A88DF83C3023F00CFE45
S31500001B70294B2A4D09932A4B0C932A4B0B93D5E9F3
S31500001B8002439C4222D00023214609A8A360FFF706
S31500001B90E9FEA2680B9B0B92A360E2680C9B0C9279
S31500001BA0E360AB681033AB6009A8FFF76CFE1B4817
S31500001BB016F0F0FF002013F011F911B030BD1A48ED
S31500001BC025F0B8FD204613F009F9C8E709AA214611
S31500001BD0281DFFF703FFE7E778BE00207CBE002044
S31500001BE09CB7020074BE0020B9B702005518000069
S31500001BF0D5B70200EFB70200092E0000FDB70200BC
S31500001C00D538000008B802005CBE002044BE0020A3
S31500001C1025B8020044B80200ED1C000080BE00207A
S31500001C20611800006F18000055B8020008B50121C0
S31500001C300D2014F0CFFE00210D2014F083FEBDE828
S31500001C400840FFF721BF091A431E104630B5551844
S31500001C502C1A002C04DD13F8014F00F8014BF7E7AE
S31500001C600029ACBF5018101C30BD00002DE9F04112
S31500001C708368A2EB01081746026804460E469B1AC3
S31500001C80984518D9B8F1000F02DA174823F096FCE8
S31500001C90404623F0C5FB3946024605463046FFF767
S31500001CA0D2FF206808B123F0A6FB25604544C4E9AD
S31500001CB00155BDE8F0814568AD1AA84508D83946F2
S31500001CC03046FFF7C0FF63688342F2D06060F0E7FA
S31500001CD00D4430462946FFF7B6FF62683946284666
S31500001CE0FFF7B1FFF2E700BF6DB802002DE9F0473C
S31500001CF090B00546884602AF3A4607F10800FFF75E
S31500001D0007FEF86807F120060A282CD83A1D414636
S31500001D103046FFF7FDFD786A16282ED93B6A17383C
S31500001D2061491844FFF784FDB0FA80F4640930462F
S31500001D3023F02AFD07F1080023F026FD07F108022B
S31500001D40ECB15A493046FFF7E3FD3146284623F009
S31500001D50B5FD012330462B7623F016FD284638378D
S31500001D60BD46BDE8F0870B38BB6851491844FFF7FC
S31500001D705FFD0028CAD10124DCE70024D7E74146ED
S31500001D803046FFF7C5FD786A0D2808D93B6A0E383C
S31500001D9048491844FFF74CFDB0FA80F46409304610
S31500001DA023F0F2FC44B3DFF8288100244FF0FF3122
S31500001DB0D8F80000BC62C7E9084411F04BFC0128C2
S31500001DC011D13D4B3D4A18681E233D4900961268C5
S31500001DD00968006817F058F8234622462146D8F8C5
S31500001DE0000011F027F93B6A2B607B6A6B60BB6AC7
S31500001DF0AB6002232B76B1E707F108024146304675
S31500001E00FFF786FD786A062808D93B6A07382D4908
S31500001E101844FFF70DFDB0FA80F46409304623F04C
S31500001E20B3FC002C38D0284B0024DFF8A8A0E846E5
S31500001E301B684FF0FF31DAF800000733BC6223F06D
S31500001E400703ADEB030DC7E9084411F003FC0128B5
S31500001E500DF1080916D11D4B4846196825F002FEFA
S31500001E604846FFF7EFFC4FF0000309EB0002494636
S31500001E703046FFF7FBFE234622462146DAF80000ED
S31500001E8011F0D8F83B6A2B607B6A6B60BB6AAB606B
S31500001E9002232B76C54661E71C222146284624F0FC
S31500001EA0E9FD2C765AE700BFAAB80200D0B80200B6
S31500001EB09EB80200E4B80200E0BE002038BE002052
S31500001EC040BE0020DCB80200048000203CBE00209A
S31500001ED07CBE002074BE002010B50446FFF7DCFC73
S31500001EE01021204623F089FA204610BD10B504467D
S31500001EF040F6587123F081FA204610BD73B51A4D8D
S31500001F0001AA1A4C1A4E28461A49FFF701FD28461F
S31500001F10194D2246314623F069FA01AA1749284687
S31500001F20FFF7F6FC22463146284623F05FFA144BAB
S31500001F30186824F059FD134B1860012011F096F92A
S31500001F40114B1860012011F091F9104B22461049EF
S31500001F5018601048104B03600023C0E90133C360CA
S31500001F6023F044FA02B070BD5CBE00200080002061
S31500001F70F1580200C2B8020044BE0020C7B80200F1
S31500001F80048000203CBE00207CBE002074BE0020E1
S31500001F909918000080BE0020AC0903000022C0E9A9
S31500001FA00022826070470022C0E9002282607047EA
S31500001FB00022C0E900228260704701207047036852
S31500001FC01B6A184703685B6A18472029F0B510D0CA
S31500001FD0046F0023242500F118069C4209D005FB56
S31500001FE003F2B7588F4202D104321044F0BD0133D8
S31500001FF0F3E70020FAE7704710B504468C2123F07A
S31500002000FCF9204610BDD0F88420032A38B50CD838
S3150000201000F1740400239A420BD014F8015B8D4240
S3150000202005D11E3350F8230038BD24F009F90133D9
S31500002030F1E70020F8E7F8B505460F460646002406
S315000020402B6FA34210D9B369202B02D0013424365A
S31500002050F6E73946F069FFF7EBFB0028F6D12420B6
S3150000206000FB04500430F8BD0020FCE7F7B500F192
S315000020700C0306460446154646F8041B4360104604
S31500002080FFF7E0FB0F2805EB0007019007D90022B8
S3150000209001A9304623F056FB019B6060E3603A4697
S315000020A02946606823F0C9FB019B6268002120462F
S315000020B0A360D15403B0F0BD90ED033A91ED034A0D
S315000020C0D0ED023AB4EEC43AD1ED024AD1ED057A2A
S315000020D090ED056AF1EE10FAD1ED045AF4EEE43A09
S315000020E0D0ED046A54BFB0EE432AB0EE442AF1EEB6
S315000020F010FAF4EEC67A54BFF0EE632AF0EE642AC4
S31500002100F1EE10FAF4EEE65A54BFB0EE467AB0EEAF
S31500002110677AF1EE10FA77EEC47A37EE427A54BF58
S31500002120B0EE665AB0EE655A75EEE45AB5EEC07A70
S3150000213035EE625A36EE436AF1EE10FAB5EEC05A43
S3150000214076EEE36A67EEA57AD8BF9FED0B7AF1EEDD
S3150000215010FAE6EE267AD8BF9FED075A27EE057AE3
S3150000216077EEC77AF5EEC07AF1EE10FACCBF87EEBD
S31500002170270A9FED010A70470000000008B4F0B579
S315000021800E461146044682B0C81D00AF20F0070077
S3150000219007F11C03ADEB000D53F8042B6D463B60B5
S315000021A02846B04704F108030F2805EB0006236014
S315000021B0786007D90022391D204623F0C3FA7B68D0
S315000021C02060A36032462946206823F031FB7B68F5
S315000021D022680021204608376360D154BD46BDE819
S315000021E0F04001B070470000B7EEC00A054B3A2236
S315000021F013B5044604498DED000BFFF7BFFF2046DB
S3150000220002B010BDF3B80200E98B020010B5044617
S31500002210006808B123F0EFF8204610BD70B50D1E1A
S31500002220044602DA0B4823F0C9F94FF00003C0E96F
S3150000223000338360284601D023F0F2F84619206067
S31500002240A6601DB12A46002124F014FC20466660D3
S3150000225070BD00BF6DB80200F0B58BB0054601A891
S3150000226034F042F92B68062128461B6A9847074630
S3150000227040B1D5F8880018B106221B4934F0A0F900
S3150000228001202FE0D5F870C0BCF1020F09D9D5F8AE
S3150000229088000028F4D003230622144934F090F96C
S315000022A0EEE74FF0240E01AC0EFB0C5E0FCC0EF1E8
S315000022B004060FC60FCC0FC62368062238463360C5
S315000022C00CF10103CEF818202B67D5F88430E918F5
S315000022D081F8742003F11E020549013345F82210E6
S315000022E0C5F884300BB0F0BDF6B8020045B902005F
S315000022F059562520036F022B2DE9F04105468846E5
S3150000230014460BD9D0F8880010B90120BDE8F08139
S315000023100A460323114934F053F9F6E703685B6A6A
S315000023209847064640B1D5F888000028EDD04246C9
S315000023300B4934F045F9E8E72F6F24207B1C00FB9E
S3150000234007572B673D1D0FCC0FC50FCC0FC5236854
S3150000235030462B602023C7E90638D7E788B9020044
S31500002360CAB9020070B505460C464CB1E16828466C
S31500002370FFF7F8FFA668204623F03DF83446F4E759
S3150000238070BD10B50446806B30B18368013B836035
S3150000239013B90368DB68984704F108002169FFF761
S315000023A0E1FF204610BD70B505460C466CB1E168EC
S315000023B02846FFF7F8FF04F11400A66823F0E4F9B5
S315000023C0204623F018F83446F0E770BD70B58B68E8
S315000023D0164604460D1D012253B130681D461A6982
S315000023E09042B9BF98680122D86800220346F3E7F5
S315000023F092B1CA68AA4203D1C4E90035204670BD2D
S31500002400284623F077F8336802699A424FF00003B2
S31500002410F2DBC4E90003F1E72846F4E72DE9F041D1
S315000024201F460B1D04460E469A4215460AD14B69B5
S31500002430002B32D00B693A68196991422DDA0022D5
S31500002440226008E0D7F800801369984515DACB6852
S31500002450934202D1036063600CE0104623F04AF811
S315000024600369984519DDC36813B92360606001E00C
S31500002470256065602046BDE8F08114DD0B69934256
S31500002480DDD0104623F023F80369984505DAEB689A
S315000024900BB92360EDE72060E8E73A46314620466F
S315000024A0FFF794FFE6E700232260D4E72DE9F04723
S315000024B0ADF5206D0446C84A00210DF10C0A261D13
S315000024C050465546FFF7D2FDC44A01210AA8FFF738
S315000024D0CDFDC34A022111A8FFF7C8FDC14A032159
S315000024E018A8FFF7C3FDC04A04211FA8FFF7BEFDC9
S315000024F0BE4A052126A8FFF7B9FDBD4A06212DA82B
S31500002500FFF7B4FDBB4A072134A8FFF7AFFDBA4A6F
S3150000251008213BA8FFF7AAFDB84A092142A8FFF700
S31500002520A5FDB74A0A2149A8FFF7A0FDB54A0B2128
S3150000253050A8FFF79BFDB44A0C2157A8FFF796FD5C
S31500002540B24A0D215EA8FFF791FDB14A0E2165A89A
S31500002550FFF78CFDAF4A0F216CA8FFF787FDAE4A47
S31500002560102173A8FFF782FDAC4A11217AA8FFF764
S315000025707DFDAB4A122181A8FFF778FDA94A1321F8
S3150000258088A8FFF773FDA84A14218FA8FFF76EFDF0
S31500002590A64A152196A8FFF769FDA54A16219DA80A
S315000025A0FFF764FDA34A1721A4A8FFF75FFDA24A1F
S315000025B01821ABA8FFF75AFDA04A1921B2A8FFF7C8
S315000025C055FD914A1A21B9A8FFF750FD9C4A1B21D7
S315000025D0C0A8FFF74BFD9B4A1C21C7A8FFF746FD85
S315000025E0894A1D21CEA8FFF741FD874A1E21D5A89D
S315000025F0FFF73CFD944A1F21DCA8FFF737FD934AFD
S315000026002021E3A8FFF732FD914A2121EAA8FFF72E
S315000026102DFD904A2221F1A8FFF728FD8E4A23219D
S31500002620F8A8FFF723FD8D4A2421FFA8FFF71EFD1A
S315000026308B4A25210DF58360FFF718FD894A26216F
S315000026400DF23440FFF712FD874A27210DF58A6007
S31500002650FFF70CFD854A28210DF26C40FFF706FDB9
S31500002660834A29210DF59160FFF700FD814A2A2151
S315000026700DF2A440FFF7FAFC7F4A2B210DF5986076
S31500002680FFF7F4FC7D4A2C210DF2DC40FFF7EEFC4F
S315000026905D4A2D210DF59F60FFF7E8FC784A2E2153
S315000026A00DF21450FFF7E2FC764A2F210DF5A660D5
S315000026B0FFF7DCFC744A30210DF24C50FFF7D6FCD4
S315000026C0724A31210DF5AD60FFF7D0FC704A322118
S315000026D00DF28450FFF7CAFC6E4A33210DF5B46043
S315000026E0FFF7C4FC6C4A34210DF2BC50FFF7BEFC68
S315000026F06A4A35210DF5BB60FFF7B8FC684A3621FA
S315000027000DF2F450FFF7B2FC664A37210DF5C260B0
S31500002710FFF7ACFC644A38210DF22C60FFF7A6FCEB
S31500002720624A39210DF5C960FFF7A0FC604A3A21DB
S315000027300DF26460FFF79AFC5E4A3B210DF5D0600E
S31500002740FFF794FC5C4A3C210DF29C60FFF78EFC7F
S315000027505A4A3D210DF5D760FFF788FC584A3E21BD
S315000027600DF2D460FFF782FC564A3F210DF5DE607C
S31500002770FFF77CFC544A40210DF20C70FFF776FC03
S31500002780524A41210DF5E560FFF770FC1E4A4221D1
S315000027900DF24470FFF76AFC4D4A43210DF5EC60DB
S315000027A0FFF764FC184A44210DF27C70FFF75EFCCB
S315000027B0154A45210DF5F360FFF758FC454A4621B9
S315000027C00DF2B470FFF752FC0F4A47210DF5FA607F
S315000027D0FFF74CFC80E000BF16BA020025BA0200E3
S315000027E02CBA020034BA020038BA020043BA020018
S315000027F04CBA020050BA020056BA02005CBA020095
S3150000280061BA02006FBA02007CBA020080BA020006
S315000028108ABA020098BA02009EBA0200A3BA02005F
S31500002820B9BB0200A7BA0200ADBA0200B3BA0200F1
S31500002830B7BA020072BC0200C0BA0200C6BA0200F1
S31500002840CEBA0200D7BA0200E0BA0200E8BA020025
S31500002850ECBA0200F5BA0200FDBA020002BB0200A1
S315000028600CBB020018BB02001DBB02002ABB020003
S3150000287039BB020044BB02004EBB02005CBB020037
S3150000288063BB02006EBB020072BB020077BB020094
S315000028907DBB020083BB020088BB02008FBB020027
S315000028A095BB02009EBB0200A5BB0200AEBB0200A8
S315000028B0B5BB0200BDBB0200C3BB0200C9BB020020
S315000028C0CEBB0200D4BB0200DABB0200E7BB0200AB
S315000028D0EBBB0200F8BB02005A4A48210DF2EC702D
S315000028E0FFF7C4FB584A49210DF60800FFF7BEFB67
S315000028F0564A4A210DF62400FFF7B8FB544A4B21ED
S315000029000DF50460FFF7B2FB524A4C210DF65C0050
S31500002910FFF7ACFB504A4D210DF67800FFF7A6FBFA
S315000029204E4A4E210DF69400FFF7A0FB4C4A4F216C
S315000029300DF50B60FFF79AFB4A4A50210DF6CC00C5
S31500002940FFF794FB484A51210DF6E800FFF78EFB8E
S31500002950464A52210DF60410FFF788FB444A5321DC
S315000029600DF51260FFF782FB424A54210DF63C102A
S31500002970FFF77CFB404A55210DF65810FFF776FB12
S315000029803E4A56210DF67410FFF770FB3C4A57215C
S315000029900DF51960FFF76AFB3A4A58210DF6AC109F
S315000029A0FFF764FB384A59210DF6C810FFF75EFBA6
S315000029B0364A5A210DF6E410FFF758FB002323711F
S315000029C0C4E90236C4E904632B463246214601A80F
S315000029D0FFF724FDDDF80890B9F1000F1FD0019B29
S315000029E073BB4E452CD02F68D9F810309F42ACBF30
S315000029F0002701272C2022F013FD2946804614309B
S31500002A0051F8043B40F8043C23F018F933464A4693
S31500002A104146384622F070FD6369013363611C3517
S31500002A200DF520639D42CFD11D461C3D281D22F089
S31500002A30ABFE5545F9D120460DF5206DBDE8F08772
S31500002A400127D7E7FFBB020002BC020009BC020057
S31500002A500FBC020016BC02001FBC02002ABC02000A
S31500002A6034BC020039BC020041BC020046BC020074
S31500002A707CBA020053BC020058BC02005EBC0200D5
S31500002A8063BC02006CBC020077BC020082BC020080
S31500002A900A68002302604A680B6042608A68C1E9DE
S31500002AA001338260704730B50D688368D0E9004213
S31500002AB005604D6845608D6885608B60C1E90042A0
S31500002AC030BD1FB500230C46CDE901330393FFF754
S31500002AD0EAFF214601A8FFF7E6FF01A8FFF796FBEC
S31500002AE004B010BD2DE9F04F9946531E4FF00C0B64
S31500002AF085B003EBD3730546884616464FEA630A4C
S31500002B000C465B46A2451BDD671C7F007A1E0BFB4D
S31500002B1007F168580BFB02F1695890ED017A03FB47
S31500002B200450D1ED017AB4EE677AF1EE10FAC8BF1F
S31500002B30174603FB07513C46FFF7C3FF0C23E1E7AB
S31500002B40F30710D4023E06EBD676B4EB660F0AD135
S31500002B5061000C204E1C01FB000100FB04503446B2
S31500002B602944FFF7AEFF661E0C27494601A806EB6F
S31500002B70D676FFF78DFF7610A04507FB045015DAD1
S31500002B8007FB06F3E918EB5893ED017A019BD3EDA9
S31500002B90017AB4EEE77AF1EE10FA07DDFFF791FF5E
S31500002BA0731E344603EBD3735E10E5E701A9FFF706
S31500002BB088FF01A8FFF72AFB05B0BDE8F08F0000EB
S31500002BC070B5054688B00C461646114602A8641B29
S31500002BD0FFF75EFF29463046FFF773FF0A4AA41047
S31500002BE002A905A862430192FFF752FF05AB019ABD
S31500002BF000212846FFF776FF05A8FFF707FB02A886
S31500002C00FFF704FB08B070BDABAAAAAA1FB504461D
S31500002C10014601A8FFF73CFF2046019A0C3C50F8FC
S31500002C200C3C92ED017AD3ED017AB4EEE77AF1EE3F
S31500002C3010FA03DD2146FFF744FFEDE701A9FFF790
S31500002C4040FF01A8FFF7E2FA04B010BD88422DE963
S31500002C50F043054685B00F4633D000F10C04DFF88B
S31500002C606880A7422DD026462B6856F80C2BD3ED4C
S31500002C70017A92ED017AB4EEE77AF1EE10FA1CDDF4
S31500002C802146641BB14601A8A410FFF701FF08FB0B
S31500002C9004F4002C08DDA9F11801A9F10C09013C86
S31500002CA04846FFF70EFFF4E7284601A9FFF709FF9C
S31500002CB001A8FFF7ABFA3446D3E72046FFF7A6FF95
S31500002CC0F9E705B0BDE8F083ABAAAAAA2DE9F04F53
S31500002CD04FF00C0B89B00446174698460D46DFF8B0
S31500002CE024A100EB0B092E1BC02E40F38880B610E2
S31500002CF00AFB06F647BBB71E4FF00C087F1008FB11
S31500002D00074102A8FFF7C4FE02A905A8FFF7C0FE07
S31500002D10204605AB32463946FFF7E4FE05A8FFF725
S31500002D2075FA67B902A8FFF771FA2B1B0C3D0C2B3D
S31500002D3065DD2A4629462046FFF742FFF5E702A849
S31500002D40013FFFF763FADAE77610E368013F0BFB12
S31500002D5006F6D3ED016AA359A11993ED017A55F848
S31500002D600C3CF4EEC76AD3ED017AF1EE10FA32DDCF
S31500002D70B4EEE77AF1EE10FA25DD20464E46FFF76F
S31500002D8092FE29462368D3ED017A336893ED017AE2
S31500002D90B4EEE77AF1EE10FA2FDCA1F10C03194636
S31500002DA00C3B0A6892ED017AF4EEC77AF1EE10FA5E
S31500002DB0F5DC8E421CD3294643463A463046354614
S31500002DC0FFF784FF8FE7F4EEE76AF1EE10FA07DD0E
S31500002DD0A5F10C01D1E7F4EEE76AF1EE10FA01DD98
S31500002DE04946CAE7B4EEE77AF1EE10FAC5DDEFE739
S31500002DF030460191FFF757FE01990C36C2E709B03C
S31500002E00BDE8F08FABAAAAAA2DE98048ADF5117DE1
S31500002E1011F054FB002306900FA9AF481193CDE99A
S31500002E200F3313F0B3FB044630B9AB49AB4824F07B
S31500002E3081FC204611F0D2FFA94C2378BFF35B8FAB
S31500002E40DB070ED4204622F0DCFA50B1A54819F073
S31500002E5001FD204622F0E1FAA34AA449A14822F046
S31500002E60C5FA02229F490BA81AF020FD0B9C2CB92B
S31500002E709F4824F05FFC204611F0B0FF0AAD9D4B41
S31500002E80002440A82B609C4B5C944093CDE96144A0
S31500002E90FFF7E2F933F08CFB9849024640A8FFF7AA
S31500002EA029FA1AF0BDFF9649024640A8FFF722FA12
S31500002EB00F994FF4000340AA086800930144914B10
S31500002EC063A80195CDE9024433F0D2FA63A833F042
S31500002ED017FB28B18C4824F02DFC204611F07EFF0C
S31500002EE0639B1A689A1A1188082940F2C7841289C6
S31500002EF09918002A00F0C2849A588B188A5832B959
S31500002F00824B40F20111824A824823F0A1F9191D31
S31500002F105B68CA18CB58D31A1988062940F2AE84C2
S31500002F20DB88D118002B00F0A984D358CB58012B8D
S31500002F3005D0794824F0FEFB002011F04FFF002158
S31500002F40022014F00BF8002163A8DFF8F48133F0B7
S31500002F509FFA8368714FD9689C6808900020396091
S31500002F60C8F800404C4318F007FB06460C2022F038
S31500002F7057FA38AA06FB04F10546694CFFF74EF9E5
S31500002F80D8F8002039686748256024F0D3FB236809
S31500002F900C20654ED3E90031C91A059122F040FA9A
S31500002FA038AA05990446FFF739F9604B002163A852
S31500002FB01C60002433F0D0FA002105465C4824F05A
S31500002FC0B9FBAB681A68A24207DD03EB84033046FF
S31500002FD00134596824F0AEFBF3E79FED3D8B55486D
S31500002FE0002724F0A7FB544824F0A4FB11F066FA4E
S31500002FF000210790022013F0B1FF504B4FF0FF3134
S31500003000186810F027FB012840F09A812022002141
S3150000301030A8434E23F02EFD494BDFF838A1D3F8F4
S3150000302000803E4B1D6833681C689AF80030BFF379
S315000030305B8F13F0010B12D1504622F0E2F970B10A
S31500003040DFF8089150463F4B89F854BFC9F8003065
S3150000305022F0E3F9244A3C49484622F0C7F9032303
S31500003060369430AC349538ADCDE9323801238DF83D
S31500003070DC300FCC0FC594E80F0085E80F00002365
S315000030802020CDE92A332C9322F0CAF90DF1E00C69
S3150000309000F1200E04462A90CDF8B0E0CDF8ACE061
S315000030A0BCE80F000FC495E80F0084E80F002AA9BA
S315000030B0264818F00DFF04462A9808B122F09BF91D
S315000030C0002C49D1224824F035FB079B06938DE757
S315000030D09A9999999999C93F0AC002008DBC020034
S315000030E090BE002098BE00200080002083230000B0
S315000030F0A8BC02003CA32520CCBF0200CFBC020026
S31500003100F8BF020000000081ECBC02000EBD020008
S3150000311019BD020013BE020059BE020040BE0020C7
S31500003120E4BE002088BE0200B0BE0200E0BE002061
S315000031309FBE02009B0F0300B4BE02007CBE0020AF
S3150000314038BE00201813030085180000E0AE0020EA
S31500003150C9BE0200DCAE00200121084613F0FEFEC7
S315000031603368D3E90012089B521A586823F05AFCB8
S315000031700021012013F0F2FE63A833F01DFA10B10E
S31500003180A44824F0D7FAA44824F0D4FA0A229FEDE2
S31500003190A30A63A938A833F0D3F9DDE93883059388
S315000031A00023CDE938333A9317B1384622F023F994
S315000031B0389808B122F01FF90021022013F0CEFE44
S315000031C0059B984500F0B9800026474634463546AB
S315000031D0D7ED007A0DF1F80A7B69B868F8EEE77A60
S315000031E03A69F968D7F804C03D9300233A9018204D
S315000031F03C922C93CDED387ACDF8E4C03B91CDE9E5
S315000032002A3322F00DF938AB00F1180E02462A9047
S31500003210CDF8B0E09C460832BCE80300D44542F83D
S31500003220080C42F8041C6346F4D1A642CDF8ACE083
S315000032303DD020460C342AA9FFF72AFC2AA81837C5
S31500003240FEF7E4FF059B9F42C2D1754B47461B68BC
S31500003250D3E90012734B521A1B68186823F0E2FB7D
S31500003260002371481A46194600680FF0E3FEA5428E
S315000032706DD0661B6D4A21462846B3105A434FF05F
S315000032800003B2FA82F2C2F11F025200FFF71EFDDE
S31500003290C02E58DD05F1C00628463146FFF7D6FC9C
S315000032A0A64254D030460C36FFF7B0FCF8E7A6EB42
S315000032B0050B5E4E4FEAAB0256435D4A964202D17B
S315000032C05C4822F07BF9012E314638BF0121761881
S315000032D080F0D28246B1964228BF16460C20704333
S315000032E022F09EF8824600E0B2460AEB0B00A946A1
S315000032F0D3462AA9FFF7CCFBA1450BD04946584631
S31500003300FFF7C6FB48460BF10C0B09F10C09FEF75B
S315000033107DFFF1E7641B484BA4085C430C2324F0B3
S3150000332040449B4604FB0334544415B1284622F01E
S3150000333062F80BFB06A6554680E70024254684E77F
S315000033400024254693E721462846FFF77FFC002305
S31500003350DFF8D890621B921009FB02F29A4205929E
S315000033606ED903F1010A4FF00C08D34608FB03F8A7
S31500003370621B921009FB02F293453DD255F80820D4
S31500003380116830915168319191683291D1683391C9
S31500003390116934910C21526901FB0BF135926A18BF
S315000033A06958086838904868399088683A90C868BB
S315000033B03B9008693C9030A849693D9138A9FEF7D1
S315000033C07BFEB7EEC00AB4EEC80BF1EE10FA1EDDB6
S315000033D002F10C06A64211D0A61BB61009FB06F692
S315000033E0002E02F10C0109DD10460591FFF769FB7D
S315000033F00599013E0A46F3E75346ABE70C3C0BF151
S31500003400FF3B2046FEF702FF0C4824F093F90BF130
S31500003410010BADE7F6BE020010BF02009A99193FF4
S31500003420E4BE0020E0BE00207CBE0020ABAAAAAA13
S31500003430AAAAAA0A82B70200ABAAAA2A20BF020039
S31500003440DDE906233549A846981A354B10224FF078
S315000034500009009030A8FEF791FE324A002130A8FC
S3150000346022F072FB014638A80DF1640A22F026FA12
S315000034702D4938A822F0A4FB014612A822F01EFA14
S3150000348038A822F081F930A822F07EF9274B1022C5
S3150000349022491B782AA80093254BFEF76FFE254A82
S315000034A000212AA822F050FB014630A822F006FA95
S315000034B01D4930A822F084FB014638A822F0FEF907
S315000034C038A912A822F078FB38A822F05DF930A8B6
S315000034D022F05AF92AA822F057F9174912A822F021
S315000034E085FB18A8FEF7E2FF059B994500F0718160
S315000034F0D8F800305646D3ED007AFDEEE77A17EE9F
S31500003500903ACDED067A03F1010B1A9BB3B11A6915
S315000035109345D6BF1E46DB689B68F7E7E98B02003A
S3150000352027BF02002BBF02006BBF020078BE00203F
S315000035309CBE020036BF02004BBF0200564502D0B9
S3150000354033699B452DDA2C20099621F069FF00F19D
S315000035501C03C0F810B0064643610023099A00F127
S31500003560140B836118A9037700F110030DA8FEF769
S3150000357055FFDDE90D32002A00F02181002B40F0D5
S315000035801C81524500F01981306913699842ACBF1D
S31500003590002001205346314621F0AEFF1D9B01332A
S315000035A01D9306F114011EA822F048FB069B10226B
S315000035B0B44924A80093B44BFEF7E0FDB34A0021BA
S315000035C024A822F0C1FA01462AA822F077F9B049C8
S315000035D02AA822F0F5FA014630A822F06FF91EA9B2
S315000035E030A822F0E3FA014638A822F067F938A994
S315000035F012A822F0E1FA38A822F0C6F830A822F084
S31500003600C3F82AA822F0C0F824A822F0BDF8A14BDE
S315000036101B782BB1069B1BB99F4912A822F0E6FA2C
S315000036209E4912A822F0E2FAD8F800302AA893EDB3
S31500003630010AFEF7D9FD9A4A00212AA822F084FA47
S31500003640014630A822F03AF9964930A822F0B8FA95
S31500003650014638A822F032F938A912A822F0ACFAAD
S3150000366038A822F091F830A822F08EF82AA822F085
S315000036708BF8D8F800302AA893ED030AFEF7B4FDBC
S31500003680894A00212AA822F05FFA014630A822F0D2
S3150000369015F9844930A822F093FA014638A822F099
S315000036A00DF938A912A822F087FA38A822F06CF88A
S315000036B030A822F069F82AA822F066F8D8F8003077
S315000036C02AA893ED020AFEF78FFD784A00212AA860
S315000036D022F03AFA014630A822F0F0F8714930A8F3
S315000036E022F06EFA014638A822F0E8F838A912A8A6
S315000036F022F062FA38A822F047F830A822F044F8FF
S315000037002AA822F041F8D8F800302AA893ED050A35
S31500003710FEF76AFD664A00212AA822F015FA01463C
S3150000372030A822F0CBF85F4930A822F049FA0146CA
S3150000373038A822F0C3F838A912A822F03DFA38A812
S3150000374022F022F830A822F01FF82AA822F01CF84E
S31500003750D8F800302AA893ED040AFEF745FD554A2D
S3150000376000212AA822F0F0F9014630A822F0A6F896
S31500003770514930A822F024FA014638A822F09EF8D2
S3150000378038A912A822F018FA38A821F0FDFF30A8AF
S3150000379021F0FAFF2AA821F0F7FF059B013B4B45D4
S315000037A003D0404912A822F021FA1EA809F1010906
S315000037B008F10C0821F0E8FF96E60120EAE65846F3
S315000037C0099321F0E1FF304621F015FE099B1E46C4
S315000037D0E7E63A4912A822F009FA4FF000092D4B04
S315000037E083F80090364B1A68139B9A4211D23548DB
S315000037F02E4623F09FFF1A9918A8FEF7D4FD12A8AB
S3150000380021F0C2FFA64230D030460C36FEF7FEFC51
S31500003810F8E7DFF8BC804FF0FF312B4ED8F80000F8
S315000038200FF018FF01280AD11299306824F01AF90E
S315000038304B464A464946D8F800000FF0FBFB316874
S315000038402E46224823F076FF012010F057FF1A99E2
S3150000385018A8FEF7A8FD12A821F096FFA64204D0EC
S3150000386030460C36FEF7D2FCF8E7002D3FF42DACBF
S31500003870284621F0C0FD28E416462FE500231B68E4
S31500003880FFDE00BFE98B02009CBE020056BF0200AD
S315000038903564030078BE00205EBF02006ABF0200E6
S315000038A06DBF02006BBF020076BF02007EBF020042
S315000038B086BF02008EBF020097BF020096BF0200BD
S315000038C00480002099BF02003CBE002050B80200D0
S315000038D074BE00200221002246F67A14DFF8EC803E
S315000038E00846DFF8EC902DE980488FB0022732F0C9
S315000038F0F7FD05461022002106A80AAE23F0BAF805
S31500003900102206A928468DF81970ADF81A4032F033
S3150000391013FE10220021304623F0ACF88DF82970F2
S315000039202748284FADF82A4032F0B6FD0B904FF4E9
S31500003930FA6010F0E3FE00244FF0FF31386805947A
S31500003940CDE903440FF086FE01282FD11E4BD8F88F
S315000039500020186803ABD9F8001000931E230068F6
S3150000396015F092FA23462246214638680FF062FB8C
S31500003970DDE903B45C4519D0A4EB0B044FF0100A43
S31500003980B4F5B86F22465946284694BF0023012352
S31500003990B4F5B86FCDE9006AA8BF4FF4B86232F04B
S315000039A0D7FD431C02D0241A8344E9D1962010F097
S315000039B0A5FE03980028BED021F01DFDBBE700BF81
S315000039C041C002007CBE0020E0BE002038BE0020C0
S315000039D040BE002013B5019012F01CFB044618B13E
S315000039E0019A002123F046F8204602B010BD12F0DD
S315000039F013BBEFF305835BB1EFF311834FF02002A6
S31500003A0082F31188BFF36F8FBFF34F8F0360704748
S31500003A100EF0B0BFEFF3058313B180F31188704742
S31500003A200EF0D6BF4FF47A73584300F2E730B0FB7E
S31500003A30F3F010F063BE000010B5044630B9084B31
S31500003A404FF4B871074A084822F002FCFF200FF035
S31500003A50BDFA10B12060002010BD43F2DD70FBE717
S31500003A60B4C0020018C102005FC0020008B530B938
S31500003A700B4B40F2A1110B4A0B4822F0E9FB4B1C01
S31500003A8000681EBF4FF47A735943B1FBF3F10FF090
S31500003A90E1FD002843F2DE7018BF002008BD00BF1C
S31500003AA0B4C002002CC102005FC0020013B530B9D9
S31500003AB0154B40F2C311154A154822F0C9FB0068A0
S31500003AC0EFF30583B3B1002401A901940FF078FC4C
S31500003AD001280CD1019840B10E4B4FF080521A606C
S31500003AE0BFF34F8FBFF36F8F204602B010BD43F276
S31500003AF0DD70FAE71A4619460FF09CFA012843F2E0
S31500003B00DD7008BF0020F0E7B4C002003EC102002D
S31500003B105FC0020004ED00E010B5044630B9084B62
S31500003B2040F2ED11074A084822F092FB04200FF0FC
S31500003B309DFB10B12060002010BD43F2DD70FBE755
S31500003B40CCC0020050C102005FC0020008B530B907
S31500003B500B4B40F20A210B4A0B4822F079FB4B1C17
S31500003B6000681EBF4FF47A735943B1FBF3F10FF0AF
S31500003B705FFE002843F2DE7018BF002008BD00BFBC
S31500003B80CCC0020060C102005FC0020008B530B9B7
S31500003B90074B40F22A21074A074822F059FB0068E2
S31500003BA00FF03AFB002843F2DD7018BF002008BD75
S31500003BB0CCC002006EC102005FC0020008B530B979
S31500003BC0054B4FF41071054A054822F041FB006889
S31500003BD00FF020FF002008BDCCC002007EC102000D
S31500003BE05FC0020038B50D46044630B9084B4FF4A5
S31500003BF01471084A084822F02BFB0EF0B3FC206033
S31500003C0010B10020257138BD43F2DD70FBE700BF1F
S31500003C10E0C002008FC102005FC0020037B5002578
S31500003C20019530B9144B40F26A21144A144822F027
S31500003C300FFB0068E8B1EFF30584B4B101AA0EF0FA
S31500003C40DBFD012804D00F4B4FF41E710B4AEDE744
S31500003C50019840B10C4B4FF080521A60BFF34F8F62
S31500003C60BFF36F8F284603B030BD0EF03BFD2046F4
S31500003C70F9E743F2DD70F6E7E0C002009FC10200FB
S31500003C805FC00200F4C0020004ED00E073B5069DBB
S31500003C9030B9114B40F2E121104A114822F0D8FA0E
S31500003CA0066821F07F449EB10179304600931346A1
S31500003CB00A1E214618BF01220EF062FC204005B103
S31500003CC02860002843F2DE7018BF002002B070BDE5
S31500003CD043F2DD70FAE700BFE0C00200ACC10200AB
S31500003CE05FC0020008B530B9074B40F21731074AEA
S31500003CF0074822F0ADFA006818B10EF04FFD00201B
S31500003D0008BD43F2DD70FBE7E0C00200BAC1020065
S31500003D105FC0020010B504460846114634B9084B88
S31500003D2040F22D31074A084822F092FA00220FF09D
S31500003D3001F910B12060002010BD43F2DD70FBE7F1
S31500003D4005C10200CBC102005FC0020013B530B945
S31500003D50144B40F24931144A144822F079FA0024EF
S31500003D6000680194EFF305839BB1234601AA0FF087
S31500003D708FFA012812D1019B13B9002002B010BDA1
S31500003D800B4B4FF080521A60BFF34F8FBFF36F8F0C
S31500003D90F3E71A460FF04EF90128EED043F2DD7034
S31500003DA0ECE700BF05C10200DAC102005FC00200F5
S31500003DB004ED00E008B530B90B4B40F271310B4A07
S31500003DC00B4822F045FA531C00681EBF4FF47A7365
S31500003DD05A43B2FBF3F20FF07DFB012843F2DE708B
S31500003DE008BF002008BD00BF05C10200E6C10200F1
S31500003DF05FC0020008B530B9054B40F2A131054A53
S31500003E00054822F025FA00680FF004FE002008BDE0
S31500003E1005C10200F2C102005FC0020007B5186CBE
S31500003E2001A99A630FF0CCFA019B3BB1054B4FF009
S31500003E3080521A60BFF34F8FBFF36F8F03B05DF8E8
S31500003E4004FB00BF04ED00E02DE9F0410D461646E7
S31500003E501F46044630B329B34422002122F00AFE4D
S31500003E6004200FF003FAE06348B103220021012089
S31500003E700FF060F8206420B9E06B0FF0CBFD012055
S31500003E800EE0A0463A463146284648F8045B06F05E
S31500003E9045FB28462346044A414606F0C5FB00205A
S31500003EA0BDE8F0810420FBE71D3E00004FF0FF3126
S31500003EB0C06B0FF0BDBCC06B0FF0AEB937B5044692
S31500003EC00191FFF7F3FF012813D1019A211D206804
S31500003ED006F0E6FB054628B12046FFF7ECFF28462C
S31500003EE003B030BD4FF0FF31206C0FF0B3FBA56B74
S31500003EF0F2E74FF46175F2E70123024A1370024AB2
S31500003F0093607047ECBE002000000F40FFF7F4BF3F
S31500003F102DE9F8432C4B1C68844228BF044604B3A1
S31500003F202A4E2B4D3368DFF8B49023F00103D9F8FD
S31500003F30008033602B6823F001032B6072B6BFF359
S31500003F404F8FBFF36F8F11F0A5F9224F58B9AB68A9
S31500003F506B602B6843F001032B603B68013B6B6091
S31500003F6062B6BDE8F883013C08FB04F333613368AD
S31500003F7043F001033360BFF34F8F30BFBFF36F8F42
S31500003F80154B00221A7062B600BF1978B1B11A70CB
S31500003F900E4A0F4D136823F0010313600EF0EAFC7E
S31500003FA02B68204643F001032B6010F0DBFD3B68D5
S31500003FB0013B6B60BDE8F8430EF00ABD746AD9F8A0
S31500003FC00000B4FBF0F4E3E7F4BE002000000F406D
S31500003FD010E000E0F0BE0020ECBE0020E8BE0020AD
S31500003FE00C4B64221A6002220B4B1A606FF00042DF
S31500003FF00A4B1A600A4B4FF08072DA60002243F8CF
S31500004000F02C43F8E82C632243F8EC2C032243F807
S31500004010F02C7047F0BE0020E8BE0020F4BE002061
S3150000402000E100E00B1E10DD00F01F011944BFF394
S315000040304F8F064A0144C2F85C0220300B1A002B4F
S31500004040F9DCBFF34F8FBFF36F8F704700ED00E0D1
S315000040500B1E10DD00F01F011944BFF34F8F064AF7
S315000040600144C2F8680220300B1A002BF9DCBFF3BA
S315000040704F8FBFF36F8F704700ED00E00B1E10DD12
S3150000408000F01F011944BFF34F8F064A0144C2F8DE
S31500004090700220300B1A002BF9DCBFF34F8FBFF3F1
S315000040A06F8F704700ED00E03C4A08B5D2F88830C3
S315000040B043F47003C2F88830394A1388580705D587
S315000040C0138823F004031B041B0C1380354A138842
S315000040D0590705D5138823F004031B041B0C138012
S315000040E0314B1A6892044CD5304A5A604FF6FF722B
S315000040F09A601A6822F0A00242F020021A602C4B45
S315000041001A68900443D5294A5A604FF6FF729A609E
S315000041101A6822F0A00242F020021A60254B1A68A3
S31500004120D10703D51A6822F001021A601B4B5A699F
S31500004130920315D45A6912F4003211D1BFF34F8F8E
S31500004140BFF36F8FC3F85022BFF34F8FBFF36F8F4C
S315000041505A6942F400325A61BFF34F8FBFF36F8F33
S31500004160154A136F23F4005313670C4A536943F03F
S3150000417010035361BFF34F8FBFF36F8F00F04AF800
S3150000418008BD4CF220525A604DF62812ADE74CF2AB
S3150000419020525A604DF62812B6E700BF00ED00E047
S315000041A000000340004003400080034020C528D99A
S315000041B00000C14010E000E000400E4010B5C40110
S315000041C00E4A04F1814402EBC00004F5980423680A
S315000041D0C3F30223C05C04F0BBFB23680246DBB2D8
S315000041E001339A42B0FBF3F006D2054B40F6C50107
S315000041F0044A054822F02CF810BD00BF8AC202000E
S3150000420002C2020073C2020007C2020000487047E1
S31500004210B8BF002008B511F061FF08BD10B592B017
S315000042200420FFF7CBFF14220446002101A822F048
S3150000423021FC3022002106A822F01CFC01A807F070
S3150000424045FB012301A919488DF8043007F066FBE8
S3150000425004234FF0004216498DF818304FF480338E
S315000042601248CDE9072303F10133124A03F1022371
S315000042700993114BB2FBF4F2CDE90A131E23002178
S315000042808DF83030A023534306AA0D9341F684637C
S31500004290CDE90F3340F20123ADF84430234607F051
S315000042A0FBFBB0FA80F0400912B010BD00400D4093
S315000042B01212780F00CA9A3B2A2A463C7FB56846F6
S315000042C003F086FC074B694607480093074B0193AA
S315000042D0074B0293074B039303F0C0FD07B05DF84D
S315000042E004FB00BFF8BE00200000444028BF0020A9
S315000042F058BF002088BF002010B5E4B04FF49E726E
S31500004300002115AC204622F0B5FB1420FFF756FF1E
S315000043104FF4003330212060A3600223009402A8EA
S31500004320E38140F2033323820C23E3744FF40063EA
S31500004330C4E909334023E3622023C4E90D13074C83
S31500004340019405F0BDFB02A9204605F0FFFA0449D9
S31500004350684602F06FFA64B010BD00BF00C00C40A2
S31500004360B8BF002038B5044611F0C8FE02F0DEF8EA
S3150000437000F056FB01F0A8FD0CB101F099FDFFF726
S315000043804DFF10B90B4823F0D5F90B4D0B4C0C48DB
S315000043900C4A641B0C49121A22F044FB22460021E7
S315000043A0284622F067FBFFF789FFBDE83840FFF794
S315000043B0A3BF00BF55C2020000000081406886818D
S315000043C00000008100000081A89203004B78C00124
S315000043D08A781B02013A03F4E063D2B213430A78E7
S315000043E0002A0CBF00224FF080721343034A135079
S315000043F0BFF34F8FBFF36F8F704700BF0000CC40F5
S315000044002DE9F743EC4C00232046ADF804308DF837
S31500004410063004F0D9FEE94BE94AD3F80019914277
S31500004420224640F0D882D3F81039DBB20B2B40F08D
S31500004430D282636923F000536361636823F4F853FF
S3150000444043F4B0536360A368002BFCDADB4BDD4E0C
S31500004450D3F87038DB48DA06C3F300114ABF0022EE
S315000044600122114606F022FF0121304606F09CFE8D
S315000044700121304606F0DEFE022004F00FFAD6F8DF
S31500004480C03043F00203C6F8C03004F0EBFA336DD7
S3150000449043F002033365336943F002033361336942
S315000044A043F080733361336A43F010033362336A37
S315000044B05B00FCD50024012501A9022720468DF8C2
S315000044C005408DF80650FFF781FF01A908208DF8F9
S315000044D005404FF006088DF80650FFF777FFBA48FB
S315000044E04FF0180903F0B6FEB84804F07DF9B84855
S315000044F003F026FF21461B22022003F0B3FF1322FE
S315000045002946022003F0AEFF02211822084603F0D6
S31500004510A9FF20220321022003F0A4FF04F04EF895
S3150000452021460D22032003F09DFF11222946032078
S3150000453003F098FF20220221032003F093FF0321BA
S315000045401622084603F08EFFD6F81032A14823F053
S315000045500803C6F81032042604F0C4F829460520DC
S3150000456004F07CF804F01AF920460DEB06018DF8EC
S3150000457005608DF80650FFF729FF0DEB060138465A
S315000045808DF805608DF80670FFF720FF03230DEB0D
S31500004590060130468DF805808DF80630FFF716FFC8
S315000045A00DEB060105208DF805408DF80650FFF746
S315000045B00DFF07230DEB060140468DF806608DF8CA
S315000045C00530FFF703FFF0230DEB060108208DF8F9
S315000045D005408DF80630FFF7F9FE0DEB06010E20BB
S315000045E08DF805408DF80650FFF7F0FE0DEB06013D
S315000045F00F208DF805408DF80690FFF7E7FE0DEBCE
S31500004600060110208DF805408DF80690FFF7DEFEB6
S315000046100DEB060111208DF805408DF80650FFF7C9
S31500004620D5FE0DEB060112208DF805408DF80650DB
S31500004630FFF7CCFE0DEB060113208DF805408DF833
S315000046400650FFF7C3FE0DEB060119208DF8054055
S315000046508DF80650FFF7BAFE0DEB06011A208DF80D
S3150000466005408DF80650FFF7B1FE0DEB06011B2045
S315000046708DF805408DF80650FFF7A8FE0DEB0601F4
S315000046801C208DF805408DF80650FFF79FFE0DEBB8
S3150000469006011D208DF805408DF80650FFF796FEA1
S315000046A00DEB06011E208DF805408DF80650FFF72C
S315000046B08DFE0DEB06011F208DF805408DF8065086
S315000046C0FFF784FE0DEB060120208DF805408DF8DE
S315000046D00650FFF77BFE0DEB060121208DF8054005
S315000046E08DF80650FFF772FE0DEB060122208DF8BD
S315000046F005408DF80650FFF769FE0DEB06012320F5
S315000047008DF805408DF80650FFF760FE0DEB0601AB
S3150000471024208DF805408DF80650FFF757FE0DEB67
S31500004720060125208DF805408DF80650FFF74EFE50
S315000047300DEB060126208DF805408DF80650FFF793
S3150000474045FE0DEB060127208DF805408DF8065035
S31500004750FFF73CFE0DEB060128208DF805408DF88D
S315000047600650FFF733FE0DEB060129208DF80540B4
S315000047708DF80650FFF72AFE0DEB06012A208DF86C
S3150000478005408DF80650FFF721FE0DEB06012B20A4
S315000047908DF805408DF80650FFF718FE0DEB060163
S315000047A02C208DF805408DF80650FFF70FFE0DEB17
S315000047B006012D2010E000BF0080CA4000C0CA409C
S315000047C06959AC570040C8401CC50200B0C702007A
S315000047D0BCC7020024C502008DF805408DF80650BE
S315000047E0FFF7F4FD0DEB06012E208DF805408DF840
S315000047F00650FFF7EBFD0DEB06012F208DF8054067
S315000048008DF80650FFF7E2FD0DEB060130208DF81E
S3150000481005408DF80650FFF7D9FD0DEB0601342053
S315000048208DF805608DF80660FFF7D0FD0DEB0601EB
S3150000483035208DF805408DF80650FFF7C7FD0DEBC6
S31500004840060136208DF805408DF80650FFF7BEFDAF
S315000048500DEB060137208DF805408DF80650FFF761
S31500004860B5FD0DEB060138208DF805408DF8065094
S31500004870FFF7ACFD0DEB060139208DF805408DF8EC
S315000048800650FFF7A3FD0DEB06013A208DF8054013
S315000048908DF80650FFF79AFD0DEB06013D208DF8C9
S315000048A005408DF80650FFF791FD0DEB06013E2001
S315000048B08DF805808DF80670FFF788FD0DEB060173
S315000048C040208DF805408DF80650FFF77FFD0DEB73
S315000048D0060141208DF805408DF80650FFF776FD5C
S315000048E00DEB060142208DF805408DF80650FFF7C6
S315000048F06DFD0DEB060143208DF805408DF8065041
S31500004900FFF764FD0DEB06014C208DF805408DF890
S315000049100650FFF75BFD3A4B3A4C1A6822F0070245
S315000049201A601A6822F0380242EA09021A601A6806
S3150000493022F0C0021A605A6822F003025A609A688E
S3150000494022F003029A60DA6822F49F6222F00702DC
S31500004950DA601A6922F002021A615A6922F0050227
S3150000496032435A615A6922F002025A619A6922F068
S3150000497002029A619A6922F001029A619A6D22F006
S3150000498001029A65DA6D22F00102DA651A6E22F0EA
S3150000499001021A665A6E22F001025A669A6E22F0D7
S315000049A001029A66DA6E22F00102DA662368164A76
S315000049B0C3F30223D05C03F0CBFF2368DBB22B44A6
S315000049C09842B0FBF3F215D2104B40F6C501104ADF
S315000049D0104821F03DFC536923F00053536153689E
S315000049E023F4F85343F4A85353600B4A9368002BFF
S315000049F0FCDA2BE5094B1A6003B0BDE8F08300BF73
S31500004A0000400E400000CC4038C5020002C2020041
S31500004A1002C5020007C202000080CA4008800020CA
S31500004A20FFF7EEBC104642B100231373536833B14F
S31500004A301B6823B10A46022118470320704701204C
S31500004A407047104642B100235373536833B11B6855
S31500004A5023B10A46012118470320704701207047F9
S31500004A602DE9F043044687B018B9012007B0BDE828
S31500004A70F083837B002BF8D0426892685179994283
S31500004A80F3D303F1005312680C2740F6024C013BA6
S31500004A9002EBC30612F8335000239D42E5D907FB0B
S31500004AA003F270688118825A62453BD10D7A002361
S31500004AB09D422DD80026CB782374002ED5D0002514
S31500004AC00120DFF870802F46DFF86C90A6603379FE
S31500004AD0AB42CBD90623B2688DF808706B43D11868
S31500004AE0D25C8DF80620D2094B88ADF804304B789D
S31500004AF08DF8073018D0022B02D12773CDF80C9011
S31500004B0003AA01A920680135049408F01FF9DEE71D
S31500004B101A01486800EB0316805CE27B9042CAD01B
S31500004B200133C5E70133B8E7022B04BF6773CDF83D
S31500004B300C80E5E7434A0000254A0000836870B50B
S31500004B40044693B1002501200626A3681A799542EA
S31500004B5002D30023A36070BD9A6806FB05F32068A4
S31500004B600135D15C08F011F9EFE70120F3E7000009
S31500004B7070B50A4C0E46154623685BB9214601F00E
S31500004B800FFD30B923683BB14FF47F436660E38184
S31500004B902C6070BD0220FCE70320FAE7000000202D
S31500004BA010B5044630B1FFF7C9FF0023C4E900334E
S31500004BB0E38110BD0320FCE77FB504461546002AB5
S31500004BC060D000285ED0CBB2013B032B54D8DFE87F
S31500004BD003F01E02064000238373012414E0436899
S31500004BE0002BFAD02A78837B9A42F6D0FFF7A6FFED
S31500004BF02B782046A3730023E373FFF731FF0446A7
S31500004C0010B1214807F00EFE204604B070BD2B6897
S31500004C10227C197998889142DFD12E1DADF80800C3
S31500004C205888009605F10806ADF80A00287B01961B
S31500004C308DF80C005B78222B07D163686A460B213E
S31500004C4020461B6898470446DEE7104807F0EAFD51
S31500004C50C3E74368002BC0D02D88037CB3EB152F28
S31500004C60BBD1EDB2C37BAB42B7D0FFF767FF20469F
S31500004C70E573FFF7F5FEE6E70A460548054907F03E
S31500004C80D1FDAAE70324BFE7C8C70200E2C70200B6
S31500004C9014C8020027C8020038B5044648B1057B8F
S31500004CA04DB901202073206808F03CF800B1257347
S31500004CB038BD0320FCE70220FAE738B5044648B1C0
S31500004CC0457B4DB901206073206808F031F800B1CA
S31500004CD0657338BD0320FCE70220FAE72DE9F043AF
S31500004CE090F8943087B004461BB9012007B0BDE8A0
S31500004CF0F0834268926851799942F6D31268002A85
S31500004D00F3D003F100530C27013B02EBC30612F864
S31500004D10335000239D42E8D907FB03F270688118DF
S31500004D20825C082A2CD10D7A00239D421DD80027CB
S31500004D30CB7884F89530002FD7D000260120DFF8F5
S31500004D408C803546DFF88890A7603B79B34219D846
S31500004D500123E560C4F88450C4F8883084F88C5088
S31500004D6084F88F5084F89650C0E71A01486800EB23
S31500004D700317805C94F893209042D9D00133D4E78E
S31500004D800133C7E70623B9688DF808507343013627
S31500004D90CA1810798DF80900CB5C20688DF80630AA
S31500004DA05188ADF8041001A9527804948DF80720B3
S31500004DB0DA0903AA15BF84F8913084F89230CDF849
S31500004DC00C90CDF80C8007F0C1FFBEE7E153000060
S31500004DD025520000836870B5044693B10025012072
S31500004DE00626A3681A79954202D30023A36070BDF4
S31500004DF09A6806FB05F320680135D15C07F0C5FF0C
S31500004E00EFE70120F3E70000F8B5214C0F46164600
S31500004E102568002D3AD104F198032146A36104F1D7
S31500004E20B803E36104F1C803236204F1DC03E3631E
S31500004E3004F1E403236404F1F003236501F0B0FBFD
S31500004E4030B184F8945084F89350C4E90055F8BD05
S31500004E50236833B9606084F8940084F893000320D3
S31500004E60F5E7FF23702284F8940084F89330236AD0
S31500004E70606167601A700A229870DA711873587345
S31500004E8084F88D0084F88E003460E0E70220DEE7C7
S31500004E901400002010B5044648B1FFF79BFF00231D
S31500004EA0C4E9003384F8943084F8933010BD0320AD
S31500004EB0FCE7F0B504468FB01646002A00F06F8175
S31500004EC0002800F06C81C9B20139052900F26B8116
S31500004ED0DFE811F034010600430067008C00BC00D7
S31500004EE0002301AA052180F8943043681B6898477F
S31500004EF0019B0546002B00F05481013B01AE4FF0AB
S31500004F00010C04F1440E84F89030B3681BB3736847
S31500004F100BB3331D0EEB0C170FCB87E80F0094F87D
S31500004F2090205FFA8CF39A4205D30CF1010C1036EF
S31500004F30BCF1040FE9D1226A702313700A23D371DE
S31500004F40002393701373537384F88D3084F88E3076
S31500004F5028460FB0F0BD0125E1E74368002B00F0BD
S31500004F60228190F8943012789A4200F005810BB1B4
S31500004F70FFF730FF3378204684F89430002384F816
S31500004F809330FFF7ABFE05460028E1D11F23A26947
S31500004F9094F89210206807F0CBFE012384F88D3038
S31500004FA0D6E74368002B00F0FE80168890F895300F
S31500004FB0B3EB162F40F0F780F6B290F89330B34279
S31500004FC000F0DA80FFF706FF2046FFF787FE05466A
S31500004FD048B91F23A26994F89210206807F0A8FE2A
S31500004FE0012384F88D3084F89360B1E74368002B81
S31500004FF000F0D9808368002B00F0D58090F88630C9
S315000050007BB9117890F891200120914207D184F85C
S31500005010860084F88E302068317807F0EDFE05466C
S3150000502000E0012594F88730002B91D1317894F86F
S31500005030922091428CD1012284F88D30206884F828
S315000050408720317807F0D8FE054681E74368002BB4
S3150000505000F0A9808368002B00F0A58090F88950A5
S31500005060012D3FF475AF90F88650012D40D112788E
S3150000507090F891309A4209D1002380F8863080F862
S315000050808E300068317807F0C8FE054694F8873000
S31500005090012B0ED1327894F892309A4209D100232E
S315000050A0206884F8873084F88D30317807F0B5FEB3
S315000050B0054694F88F30023B012B29D894F88A30A4
S315000050C0012B17D1B4F88630002B7FF441AF94F84A
S315000050D08D202068012A94F8921084F88A3025D110
S315000050E084F88D3007F028FE002384F88F302FE7F0
S315000050F00125CBE794F88E302068012B94F89110A7
S315000051000CD184F8963007F017FE002384F88F3010
S3150000511094F88A30012B7FF41BAFD3E70D23E269A5
S3150000512007F000FE012384F88E30EEE71F23A26904
S3150000513007F0FEFD012384F88D30D5E713681A7851
S3150000514002F01F05012D2ED190F89500197988429D
S315000051507FF4FEAE5978FE2903D0FF290ED005252F
S31500005160F6E659880029FAD1DB88012BF7D1120619
S31500005170F5D59034C6E901450025E9E659880029A8
S31500005180EDD1DB88002BEAD11306E8D440F20112F8
S31500005190A4F8885084F88A50A4F88620ECE7032502
S315000051A0D6E60425D4E60125D2E630B5036985B0F6
S315000051B0002504460093836902955A7BC36800EB79
S315000051C002118DF80C20B3F5803F6A46C96D28BFE1
S315000051D04FF480338B4294BF0193019104214368BD
S315000051E01B689847A36922695B7B94F8911004EBCE
S315000051F003135B6D9A4206D22068DDE9013207F09F
S3150000520091FD05B030BD0123206884F88B5084F8E9
S315000052108630022384F8855084F88F3007F0ECFD41
S315000052202846EEE77FB54B6814460E465A1C2CD12D
S3150000523094F88530A3B163681D688DB1A269D37BEC
S3150000524003F07F03282B0BD1002309682046029127
S31500005250012101930093537B6A468DF80C30A847D1
S3150000526094F89650012D03D00125284604B070BD50
S315000052700023E26994F8911084F896300D23206893
S3150000528007F050FDA4F88E50EFE7E26894F88B50D3
S3150000529093429CBFD21AE260012D0CD1002394F8F0
S315000052A09110206884F88B3084F8865084F8853015
S315000052B007F0A2FDD9E794F88520BAB90D2BD3D112
S315000052C00B681968264B9942CED1012584F88E20A9
S315000052D01F23A26994F89210206884F8885007F07A
S315000052E027FD84F88D50C0E701252AE0626815681D
S315000052F0002DB9D001933368029323690093A36903
S315000053005A7B8DF80C20DB7B03F07F03282B03D11F
S315000053106A4601212046A847E368002BE4D0A3692A
S3150000532020465A7B736804EB0212926DB3FBF2F2CD
S31500005330236913442361FFF738FFE3680546002B12
S3150000534093D10023E26994F8911084F88530012303
S31500005350206884F88E300D2307F0E4FC85E700BF53
S315000053605553425330B5036985B000250446009372
S31500005370836902955A7BC36800EB02118DF80C20F5
S31500005380B3F5803F6A46096E28BF4FF480338B42DF
S3150000539094BF01930191032143681B689847A36951
S315000053A022695B7B94F8921004EB03135B6D9A42BF
S315000053B006D22068DDE9013207F0BAFC05B030BD3F
S315000053C00123206884F88C5084F88730022384F8FF
S315000053D0845084F88F3007F00FFD2846EEE7000072
S315000053E07FB514464A680E46531C2CD194F8843077
S315000053F0A3B163681D688DB1A269D37B03F07F03F7
S315000054002A2B0BD100230968204602910221019321
S315000054100093537B6A468DF80C30A84794F88D505C
S31500005420002D40F0AB81B4F886304BB91F23A2693A
S3150000543094F89210206807F07BFC012384F88D30E5
S31500005440284604B070BDE3689A429CBF9B1AE3608D
S31500005450A369DB7B03F0BF03152B06D163681B68CA
S315000054601BB100220B212046984794F88C30012B63
S315000054700CD1002594F89210206884F8873084F8BF
S315000054808450A4F88C5007F0B7FCD9E794F8845000
S31500005490002D37D073680193336802932369009314
S315000054A0A3695A7B8DF80C2062681568CDB1DB7B49
S315000054B003F07F032A2B03D16A4602212046A84720
S315000054C0E5688DB1A36920465A7B736804EB021226
S315000054D0926DB3FBF2F2236913442361FFF742FF97
S315000054E00546E368002BABD1002384F884300D23F6
S315000054F0E26994F89110206807F014FC012384F8FF
S315000055008E309DE794F88830002B00F01E8173687A
S315000055101F2B40F01A81A369994A1968914240F0FD
S3150000552014815E7B16F0F00F40F00F81997B11F02D
S31500005530E00240F00A8194F890000130864280F043
S31500005540048101390F2900F20081E1698D4884F850
S315000055508D20E260086058688A60486084F8882078
S3150000556093F90C009E680028197B02DB321E18BFD7
S315000055700122002884F8842008DA3EB1012094F83C
S31500005580862084F8850022B1054659E7002284F872
S315000055908520DB7B032B04D0226A002090701073D9
S315000055A05073CA092F2B666284F8392050D8112B04
S315000055B00CD8032B00F09480042B00F09D80002B68
S315000055C000F09280204600F039FC57E0123B1D2B7C
S315000055D0F8D801A252F823F077560000C55500000E
S315000055E0C555000009570000C5550000C555000007
S315000055F0C5550000C55500005F560000295700003C
S31500005600C555000019570000F1560000C5550000A9
S31500005610C5550000C5550000C555000011570000CE
S31500005620C555000001570000C5550000C5550000CE
S31500005630D9560000C55500006F560000C55500003C
S31500005640C5550000C5550000C5550000215700008E
S315000056509E2B55D007D8552B56D05A2BB2D1204663
S3150000566000F054FA0AE0A82B36D0AA2BAAD120467D
S3150000567000F0FCF902E0204600F0AFF9236A054687
S315000056809B7843B1E3691A7B2AB9A269D27B032AC4
S315000056901CBF01221A73052D0ED194F88430012BFC
S315000056A046D194F887200AB984F88C30002384F810
S315000056B08430022384F88F3094F88430002B7FF4F2
S315000056C0BFAE94F88530002B7FF4BAAE94F88B30D9
S315000056D0002B7FF4B5AE0AE7204600F0A2F9CDE72D
S315000056E0204600F059F9C9E7204600F0E4F9C5E77D
S315000056F0204600F03CFBC1E7204600F019FBBDE761
S31500005700204600F053FAB9E7204600F023FAB5E741
S31500005710204600F093FAB1E7204600F049FBADE7DA
S31500005720204600F0E9F9A9E7204600F062FBA5E76C
S3150000573094F88530012BBCD194F886200AB984F8F8
S315000057408B30002384F88530B3E794F892102068F4
S3150000575007F052FB94F89110206807F04DFB0023E8
S3150000576084F88D30012384F88F3040F20113A4F8B9
S3150000577086304FF48073A4F8883061E600255FE632
S31500005780555342435553425330B484690129647BCF
S3150000579000EB0414A56D5468126804FB05F402615D
S315000057A0C46002D130BCFFF700BD30BCFFF7DABDE4
S315000057B0D0E9093270B504464BB9C1698B6012B99C
S315000057C010460A7370BD022218460A73FAE790F86B
S315000057D0391000296ED0C56942B9AB60134694F8FA
S315000057E09110E26A206807F09DFA0FE090F83A10EF
S315000057F0002954D0934290F8381013D99B1A0129E6
S31500005800AB60EBD100F13002FFF7BEFFE36908B9E8
S3150000581018735CE001221A730322236A9A7011221C
S315000058201A7354E04FF00002AA6010D1012907D183
S3150000583000F13002FFF7A8FFE36940BB1873C1E728
S31500005840C26A90F89110006807F06CFAF4E7012933
S3150000585016D18269527B00EB0212966DB3FBF6F20B
S3150000586006FB1233426300F13002AB60FFF78CFF98
S31500005870E36960B994F83820012ADFD102220CE0EE
S31500005880C26A90F89110006807F04CFAF0E701221E
S315000058901A730322236A9A7011221A7392E7C26A54
S315000058A0AB600B4690F89110006807F03BFAE3698D
S315000058B00222B5E76AB990F89210006807F09CFAE0
S315000058C0636AE26993600123137384F887300520C5
S315000058D078E790F83A1059B190F89210006807F0FE
S315000058E08BFAE369626A9A6002221A730123ECE773
S315000058F09342C56990F8386019D99B1A012EAB609E
S315000059000DD100F13002FFF73FFFE36900283FF4B5
S315000059107FAF01221A730322236A9A7080E7134627
S3150000592090F89210C26A006807F002FAEDE7A960E3
S3150000593016D1012E0DD100F13002FFF725FFE369E4
S3150000594000283FF47BAF01221A73236A03229A7060
S31500005950A3E7C26A90F89210006807F0E9F9EEE74B
S31500005960012E12D18269527B00EB0212966DB3FBB7
S31500005970F6F206FB1233426300F13002AB60FFF72A
S3150000598003FF0028E1D1E36974E7C26A90F8921038
S31500005990006807F0CDF9F4E710B5036A86B004464F
S315000059A00493836903F10F025B7B8DF8143043681F
S315000059B001921B6813B101AA0F21984712232046B2
S315000059C0A362012384F83A30236AE362002384F851
S315000059D03830FFF7EDFE06B010BD10B5036A86B08D
S315000059E004460493836903F10F025B7B8DF8143040
S315000059F04368019200221B68CDE9022213B101AA75
S31500005A0008219847029B2046A362012384F83A3076
S31500005A10039BE362002384F83830FFF7C9FE06B023
S31500005A2010BD826910B4D37BD2F81110282B09BAA5
S31500005A3015D1D38A5BBA9BB2012480F83A40527BD7
S31500005A4000EB0212926D80F838405A435DF8044B21
S31500005A5082620022C0E90C13C262FFF7A9BEA82B1E
S31500005A600ABFD2F8153000231BBAE5E7826910B4E5
S31500005A70D37B0024D2F811102A2B09BA14D1D38A69
S31500005A805BBA9BB280F83A40527B00EB0212926DF1
S31500005A905A43C0E90A24012280F838205DF8044BF5
S31500005AA0C0E90C13FFF784BEAA2B0ABFD2F8153043
S31500005AB023461BBAE6E730B5036A87B0044604936B
S31500005AC0836903F10F025B7B019201228DF814308A
S31500005AD0002380F83A208362C36280F83830FFF7EB
S31500005AE067FE636805461B681BB101AA07212046AD
S31500005AF09847284607B030BD00220121826280F80F
S31500005B003A10C26280F83820FFF752BE10B5036A19
S31500005B1086B004460493836903F10F025B7B8DF81C
S31500005B2014304368019200221B68CDE9022213B1AA
S31500005B3001AA09219847029B2046A362012384F803
S31500005B403A30039BE362002384F83830FFF730FED7
S31500005B5006B010BD10B5036A86B004460493836987
S31500005B6003F10F025B7B8DF814304368019200222B
S31500005B701B68CDE9022213B101AA0A219847029BAC
S31500005B802046039AA3620023E26284F83A3084F83E
S31500005B903830FFF70DFEA3691B7CDB0704D5236AAB
S31500005BA005229A7024221A7306B010BD836930B597
S31500005BB085B05D7B002304468DF80C50CDE901339A
S31500005BC043681B6813B101AA1021984794F89030D6
S31500005BD0AB423FBF236A052200259A70029931B174
S31500005BE0019B13B304EB0515C5E915310821A0691E
S31500005BF0437BC07B0533252804EB03135A68A16257
S31500005C0002F1FF3212BA12D1E16B0A609B681BBA2D
S31500005C104B6001232046E16284F83A30002384F881
S31500005C203830FFF7C5FD05B030BD1946DFE7216CFA
S31500005C304A609B681BBA8B60EBE7000070B53B4B74
S31500005C40044688B01868A36900905D7B0023CDE9FF
S31500005C50053363688DF81C501B681BB105AA11211A
S31500005C602046984794F89030AB423FBF236A0522FE
S31500005C7000259A70069B2BB1059A1AB104EB0515FF
S31500005C80C5E91523A36994F84C50997DDA7D42EA5B
S31500005C900121002D48D06269002A14BF022003208A
S31500005CA05B7B002D4FEAC00503F105038DF8035019
S31500005CB004EB03135A689E6812BA33BA039204932C
S31500005CC014BF4FF000734FF0807301920C223343E0
S31500005CD002EBC0021BBA8A42029328BF0A46236D12
S31500005CE09DF8001019709DF80110236D59709DF8EC
S31500005CF00210236D997001A9236DDD70042311F83C
S31500005D00015B206DC55401330C2BF8D101232046CD
